{
  "contractName": "PlayToken",
  "abi": [
    {
      "anonymous": false,
      "inputs": [
        {
          "indexed": true,
          "internalType": "address",
          "name": "owner",
          "type": "address"
        },
        {
          "indexed": true,
          "internalType": "address",
          "name": "spender",
          "type": "address"
        },
        {
          "indexed": false,
          "internalType": "uint256",
          "name": "value",
          "type": "uint256"
        }
      ],
      "name": "Approval",
      "type": "event"
    },
    {
      "anonymous": false,
      "inputs": [
        {
          "indexed": true,
          "internalType": "address",
          "name": "previousOwner",
          "type": "address"
        },
        {
          "indexed": true,
          "internalType": "address",
          "name": "newOwner",
          "type": "address"
        }
      ],
      "name": "OwnershipTransferred",
      "type": "event"
    },
    {
      "anonymous": false,
      "inputs": [
        {
          "indexed": false,
          "internalType": "address",
          "name": "account",
          "type": "address"
        }
      ],
      "name": "Paused",
      "type": "event"
    },
    {
      "anonymous": false,
      "inputs": [
        {
          "indexed": true,
          "internalType": "address",
          "name": "from",
          "type": "address"
        },
        {
          "indexed": true,
          "internalType": "address",
          "name": "to",
          "type": "address"
        },
        {
          "indexed": false,
          "internalType": "uint256",
          "name": "value",
          "type": "uint256"
        }
      ],
      "name": "Transfer",
      "type": "event"
    },
    {
      "anonymous": false,
      "inputs": [
        {
          "indexed": false,
          "internalType": "address",
          "name": "account",
          "type": "address"
        }
      ],
      "name": "Unpaused",
      "type": "event"
    },
    {
      "inputs": [
        {
          "internalType": "address",
          "name": "owner",
          "type": "address"
        },
        {
          "internalType": "address",
          "name": "spender",
          "type": "address"
        }
      ],
      "name": "allowance",
      "outputs": [
        {
          "internalType": "uint256",
          "name": "",
          "type": "uint256"
        }
      ],
      "stateMutability": "view",
      "type": "function"
    },
    {
      "inputs": [
        {
          "internalType": "address",
          "name": "spender",
          "type": "address"
        },
        {
          "internalType": "uint256",
          "name": "amount",
          "type": "uint256"
        }
      ],
      "name": "approve",
      "outputs": [
        {
          "internalType": "bool",
          "name": "",
          "type": "bool"
        }
      ],
      "stateMutability": "nonpayable",
      "type": "function"
    },
    {
      "inputs": [
        {
          "internalType": "address",
          "name": "account",
          "type": "address"
        }
      ],
      "name": "balanceOf",
      "outputs": [
        {
          "internalType": "uint256",
          "name": "",
          "type": "uint256"
        }
      ],
      "stateMutability": "view",
      "type": "function"
    },
    {
      "inputs": [],
      "name": "decimals",
      "outputs": [
        {
          "internalType": "uint8",
          "name": "",
          "type": "uint8"
        }
      ],
      "stateMutability": "view",
      "type": "function"
    },
    {
      "inputs": [
        {
          "internalType": "address",
          "name": "spender",
          "type": "address"
        },
        {
          "internalType": "uint256",
          "name": "subtractedValue",
          "type": "uint256"
        }
      ],
      "name": "decreaseAllowance",
      "outputs": [
        {
          "internalType": "bool",
          "name": "",
          "type": "bool"
        }
      ],
      "stateMutability": "nonpayable",
      "type": "function"
    },
    {
      "inputs": [
        {
          "internalType": "address",
          "name": "spender",
          "type": "address"
        },
        {
          "internalType": "uint256",
          "name": "addedValue",
          "type": "uint256"
        }
      ],
      "name": "increaseAllowance",
      "outputs": [
        {
          "internalType": "bool",
          "name": "",
          "type": "bool"
        }
      ],
      "stateMutability": "nonpayable",
      "type": "function"
    },
    {
      "inputs": [],
      "name": "name",
      "outputs": [
        {
          "internalType": "string",
          "name": "",
          "type": "string"
        }
      ],
      "stateMutability": "view",
      "type": "function"
    },
    {
      "inputs": [],
      "name": "owner",
      "outputs": [
        {
          "internalType": "address",
          "name": "",
          "type": "address"
        }
      ],
      "stateMutability": "view",
      "type": "function"
    },
    {
      "inputs": [],
      "name": "paused",
      "outputs": [
        {
          "internalType": "bool",
          "name": "",
          "type": "bool"
        }
      ],
      "stateMutability": "view",
      "type": "function"
    },
    {
      "inputs": [],
      "name": "renounceOwnership",
      "outputs": [],
      "stateMutability": "nonpayable",
      "type": "function"
    },
    {
      "inputs": [],
      "name": "symbol",
      "outputs": [
        {
          "internalType": "string",
          "name": "",
          "type": "string"
        }
      ],
      "stateMutability": "view",
      "type": "function"
    },
    {
      "inputs": [],
      "name": "totalSupply",
      "outputs": [
        {
          "internalType": "uint256",
          "name": "",
          "type": "uint256"
        }
      ],
      "stateMutability": "view",
      "type": "function"
    },
    {
      "inputs": [
        {
          "internalType": "address",
          "name": "recipient",
          "type": "address"
        },
        {
          "internalType": "uint256",
          "name": "amount",
          "type": "uint256"
        }
      ],
      "name": "transfer",
      "outputs": [
        {
          "internalType": "bool",
          "name": "",
          "type": "bool"
        }
      ],
      "stateMutability": "nonpayable",
      "type": "function"
    },
    {
      "inputs": [
        {
          "internalType": "address",
          "name": "sender",
          "type": "address"
        },
        {
          "internalType": "address",
          "name": "recipient",
          "type": "address"
        },
        {
          "internalType": "uint256",
          "name": "amount",
          "type": "uint256"
        }
      ],
      "name": "transferFrom",
      "outputs": [
        {
          "internalType": "bool",
          "name": "",
          "type": "bool"
        }
      ],
      "stateMutability": "nonpayable",
      "type": "function"
    },
    {
      "inputs": [
        {
          "internalType": "address",
          "name": "newOwner",
          "type": "address"
        }
      ],
      "name": "transferOwnership",
      "outputs": [],
      "stateMutability": "nonpayable",
      "type": "function"
    },
    {
      "inputs": [],
      "name": "initialize",
      "outputs": [],
      "stateMutability": "nonpayable",
      "type": "function"
    }
  ],
  "bytecode": "0x608060405234801561001057600080fd5b5061242f806100206000396000f3fe608060405234801561001057600080fd5b506004361061011d576000357c010000000000000000000000000000000000000000000000000000000090048063715018a6116100b4578063a457c2d711610083578063a457c2d714610494578063a9059cbb146104fa578063dd62ed3e14610560578063f2fde38b146105d85761011d565b8063715018a6146103b35780638129fc1c146103bd5780638da5cb5b146103c757806395d89b41146104115761011d565b8063313ce567116100f0578063313ce567146102af57806339509351146102d35780635c975abb1461033957806370a082311461035b5761011d565b806306fdde0314610122578063095ea7b3146101a557806318160ddd1461020b57806323b872dd14610229575b600080fd5b61012a61061c565b6040518080602001828103825283818151815260200191508051906020019080838360005b8381101561016a57808201518184015260208101905061014f565b50505050905090810190601f1680156101975780820380516001836020036101000a031916815260200191505b509250505060405180910390f35b6101f1600480360360408110156101bb57600080fd5b81019080803573ffffffffffffffffffffffffffffffffffffffff169060200190929190803590602001909291905050506106be565b604051808215151515815260200191505060405180910390f35b6102136106dc565b6040518082815260200191505060405180910390f35b6102956004803603606081101561023f57600080fd5b81019080803573ffffffffffffffffffffffffffffffffffffffff169060200190929190803573ffffffffffffffffffffffffffffffffffffffff169060200190929190803590602001909291905050506106e6565b604051808215151515815260200191505060405180910390f35b6102b76107bf565b604051808260ff1660ff16815260200191505060405180910390f35b61031f600480360360408110156102e957600080fd5b81019080803573ffffffffffffffffffffffffffffffffffffffff169060200190929190803590602001909291905050506107d6565b604051808215151515815260200191505060405180910390f35b610341610889565b604051808215151515815260200191505060405180910390f35b61039d6004803603602081101561037157600080fd5b81019080803573ffffffffffffffffffffffffffffffffffffffff1690602001909291905050506108a0565b6040518082815260200191505060405180910390f35b6103bb6108e9565b005b6103c5610a59565b005b6103cf610bf8565b604051808273ffffffffffffffffffffffffffffffffffffffff1673ffffffffffffffffffffffffffffffffffffffff16815260200191505060405180910390f35b610419610c22565b6040518080602001828103825283818151815260200191508051906020019080838360005b8381101561045957808201518184015260208101905061043e565b50505050905090810190601f1680156104865780820380516001836020036101000a031916815260200191505b509250505060405180910390f35b6104e0600480360360408110156104aa57600080fd5b81019080803573ffffffffffffffffffffffffffffffffffffffff16906020019092919080359060200190929190505050610cc4565b604051808215151515815260200191505060405180910390f35b6105466004803603604081101561051057600080fd5b81019080803573ffffffffffffffffffffffffffffffffffffffff16906020019092919080359060200190929190505050610d91565b604051808215151515815260200191505060405180910390f35b6105c26004803603604081101561057657600080fd5b81019080803573ffffffffffffffffffffffffffffffffffffffff169060200190929190803573ffffffffffffffffffffffffffffffffffffffff169060200190929190505050610daf565b6040518082815260200191505060405180910390f35b61061a600480360360208110156105ee57600080fd5b81019080803573ffffffffffffffffffffffffffffffffffffffff169060200190929190505050610e36565b005b606060688054600181600116156101000203166002900480601f0160208091040260200160405190810160405280929190818152602001828054600181600116156101000203166002900480156106b45780601f10610689576101008083540402835291602001916106b4565b820191906000526020600020905b81548152906001019060200180831161069757829003601f168201915b5050505050905090565b60006106d26106cb61102b565b8484611033565b6001905092915050565b6000606754905090565b60006106f384848461122a565b6107b4846106ff61102b565b6107af8560405180606001604052806028815260200161233a60289139606660008b73ffffffffffffffffffffffffffffffffffffffff1673ffffffffffffffffffffffffffffffffffffffff168152602001908152602001600020600061076561102b565b73ffffffffffffffffffffffffffffffffffffffff1673ffffffffffffffffffffffffffffffffffffffff168152602001908152602001600020546114ef9092919063ffffffff16565b611033565b600190509392505050565b6000606a60009054906101000a900460ff16905090565b600061087f6107e361102b565b8461087a85606660006107f461102b565b73ffffffffffffffffffffffffffffffffffffffff1673ffffffffffffffffffffffffffffffffffffffff16815260200190815260200160002060008973ffffffffffffffffffffffffffffffffffffffff1673ffffffffffffffffffffffffffffffffffffffff168152602001908152602001600020546115a990919063ffffffff16565b611033565b6001905092915050565b6000609760009054906101000a900460ff16905090565b6000606560008373ffffffffffffffffffffffffffffffffffffffff1673ffffffffffffffffffffffffffffffffffffffff168152602001908152602001600020549050919050565b6108f161102b565b73ffffffffffffffffffffffffffffffffffffffff1661090f610bf8565b73ffffffffffffffffffffffffffffffffffffffff1614610998576040517f08c379a00000000000000000000000000000000000000000000000000000000081526004018080602001828103825260208152602001807f4f776e61626c653a2063616c6c6572206973206e6f7420746865206f776e657281525060200191505060405180910390fd5b600073ffffffffffffffffffffffffffffffffffffffff16603360009054906101000a900473ffffffffffffffffffffffffffffffffffffffff1673ffffffffffffffffffffffffffffffffffffffff167f8be0079c531659141344cd1fd0a4f28419497f9722a3daafe3b4186f6b6457e060405160405180910390a36000603360006101000a81548173ffffffffffffffffffffffffffffffffffffffff021916908373ffffffffffffffffffffffffffffffffffffffff160217905550565b600060019054906101000a900460ff1680610a785750610a77611631565b5b80610a8f57506000809054906101000a900460ff16155b610ae4576040517f08c379a000000000000000000000000000000000000000000000000000000000815260040180806020018281038252602e81526020018061230c602e913960400191505060405180910390fd5b60008060019054906101000a900460ff161590508015610b34576001600060016101000a81548160ff02191690831515021790555060016000806101000a81548160ff0219169083151502179055505b610b3c611642565b610bb06040518060400160405280600881526020017f506c617963656e740000000000000000000000000000000000000000000000008152506040518060400160405280600481526020017f50434e5400000000000000000000000000000000000000000000000000000000815250611751565b610bb8611864565b610bd4610bc3610bf8565b6a31a17e847807b1bc00000061197b565b8015610bf55760008060016101000a81548160ff0219169083151502179055505b50565b6000603360009054906101000a900473ffffffffffffffffffffffffffffffffffffffff16905090565b606060698054600181600116156101000203166002900480601f016020809104026020016040519081016040528092919081815260200182805460018160011615610100020316600290048015610cba5780601f10610c8f57610100808354040283529160200191610cba565b820191906000526020600020905b815481529060010190602001808311610c9d57829003601f168201915b5050505050905090565b6000610d87610cd161102b565b84610d82856040518060600160405280602581526020016123ab6025913960666000610cfb61102b565b73ffffffffffffffffffffffffffffffffffffffff1673ffffffffffffffffffffffffffffffffffffffff16815260200190815260200160002060008a73ffffffffffffffffffffffffffffffffffffffff1673ffffffffffffffffffffffffffffffffffffffff168152602001908152602001600020546114ef9092919063ffffffff16565b611033565b6001905092915050565b6000610da5610d9e61102b565b848461122a565b6001905092915050565b6000606660008473ffffffffffffffffffffffffffffffffffffffff1673ffffffffffffffffffffffffffffffffffffffff16815260200190815260200160002060008373ffffffffffffffffffffffffffffffffffffffff1673ffffffffffffffffffffffffffffffffffffffff16815260200190815260200160002054905092915050565b610e3e61102b565b73ffffffffffffffffffffffffffffffffffffffff16610e5c610bf8565b73ffffffffffffffffffffffffffffffffffffffff1614610ee5576040517f08c379a00000000000000000000000000000000000000000000000000000000081526004018080602001828103825260208152602001807f4f776e61626c653a2063616c6c6572206973206e6f7420746865206f776e657281525060200191505060405180910390fd5b600073ffffffffffffffffffffffffffffffffffffffff168173ffffffffffffffffffffffffffffffffffffffff161415610f6b576040517f08c379a000000000000000000000000000000000000000000000000000000000815260040180806020018281038252602681526020018061229e6026913960400191505060405180910390fd5b8073ffffffffffffffffffffffffffffffffffffffff16603360009054906101000a900473ffffffffffffffffffffffffffffffffffffffff1673ffffffffffffffffffffffffffffffffffffffff167f8be0079c531659141344cd1fd0a4f28419497f9722a3daafe3b4186f6b6457e060405160405180910390a380603360006101000a81548173ffffffffffffffffffffffffffffffffffffffff021916908373ffffffffffffffffffffffffffffffffffffffff16021790555050565b600033905090565b600073ffffffffffffffffffffffffffffffffffffffff168373ffffffffffffffffffffffffffffffffffffffff1614156110b9576040517f08c379a00000000000000000000000000000000000000000000000000000000081526004018080602001828103825260248152602001806123876024913960400191505060405180910390fd5b600073ffffffffffffffffffffffffffffffffffffffff168273ffffffffffffffffffffffffffffffffffffffff16141561113f576040517f08c379a00000000000000000000000000000000000000000000000000000000081526004018080602001828103825260228152602001806122c46022913960400191505060405180910390fd5b80606660008573ffffffffffffffffffffffffffffffffffffffff1673ffffffffffffffffffffffffffffffffffffffff16815260200190815260200160002060008473ffffffffffffffffffffffffffffffffffffffff1673ffffffffffffffffffffffffffffffffffffffff168152602001908152602001600020819055508173ffffffffffffffffffffffffffffffffffffffff168373ffffffffffffffffffffffffffffffffffffffff167f8c5be1e5ebec7d5bd14f71427d1e84f3dd0314c0f7b2291e5b200ac8c7c3b925836040518082815260200191505060405180910390a3505050565b600073ffffffffffffffffffffffffffffffffffffffff168373ffffffffffffffffffffffffffffffffffffffff1614156112b0576040517f08c379a00000000000000000000000000000000000000000000000000000000081526004018080602001828103825260258152602001806123626025913960400191505060405180910390fd5b600073ffffffffffffffffffffffffffffffffffffffff168273ffffffffffffffffffffffffffffffffffffffff161415611336576040517f08c379a000000000000000000000000000000000000000000000000000000000815260040180806020018281038252602381526020018061227b6023913960400191505060405180910390fd5b611341838383611b44565b6113ad816040518060600160405280602681526020016122e660269139606560008773ffffffffffffffffffffffffffffffffffffffff1673ffffffffffffffffffffffffffffffffffffffff168152602001908152602001600020546114ef9092919063ffffffff16565b606560008573ffffffffffffffffffffffffffffffffffffffff1673ffffffffffffffffffffffffffffffffffffffff1681526020019081526020016000208190555061144281606560008573ffffffffffffffffffffffffffffffffffffffff1673ffffffffffffffffffffffffffffffffffffffff168152602001908152602001600020546115a990919063ffffffff16565b606560008473ffffffffffffffffffffffffffffffffffffffff1673ffffffffffffffffffffffffffffffffffffffff168152602001908152602001600020819055508173ffffffffffffffffffffffffffffffffffffffff168373ffffffffffffffffffffffffffffffffffffffff167fddf252ad1be2c89b69c2b068fc378daa952ba7f163c4a11628f55a4df523b3ef836040518082815260200191505060405180910390a3505050565b600083831115829061159c576040517f08c379a00000000000000000000000000000000000000000000000000000000081526004018080602001828103825283818151815260200191508051906020019080838360005b83811015611561578082015181840152602081019050611546565b50505050905090810190601f16801561158e5780820380516001836020036101000a031916815260200191505b509250505060405180910390fd5b5082840390509392505050565b600080828401905083811015611627576040517f08c379a000000000000000000000000000000000000000000000000000000000815260040180806020018281038252601b8152602001807f536166654d6174683a206164646974696f6e206f766572666c6f77000000000081525060200191505060405180910390fd5b8091505092915050565b600061163c30611bb2565b15905090565b600060019054906101000a900460ff16806116615750611660611631565b5b8061167857506000809054906101000a900460ff16155b6116cd576040517f08c379a000000000000000000000000000000000000000000000000000000000815260040180806020018281038252602e81526020018061230c602e913960400191505060405180910390fd5b60008060019054906101000a900460ff16159050801561171d576001600060016101000a81548160ff02191690831515021790555060016000806101000a81548160ff0219169083151502179055505b611725611bc5565b61172d611cc4565b801561174e5760008060016101000a81548160ff0219169083151502179055505b50565b600060019054906101000a900460ff1680611770575061176f611631565b5b8061178757506000809054906101000a900460ff16155b6117dc576040517f08c379a000000000000000000000000000000000000000000000000000000000815260040180806020018281038252602e81526020018061230c602e913960400191505060405180910390fd5b60008060019054906101000a900460ff16159050801561182c576001600060016101000a81548160ff02191690831515021790555060016000806101000a81548160ff0219169083151502179055505b611834611bc5565b61183e8383611e6c565b801561185f5760008060016101000a81548160ff0219169083151502179055505b505050565b600060019054906101000a900460ff16806118835750611882611631565b5b8061189a57506000809054906101000a900460ff16155b6118ef576040517f08c379a000000000000000000000000000000000000000000000000000000000815260040180806020018281038252602e81526020018061230c602e913960400191505060405180910390fd5b60008060019054906101000a900460ff16159050801561193f576001600060016101000a81548160ff02191690831515021790555060016000806101000a81548160ff0219169083151502179055505b611947611bc5565b61194f611fb7565b6119576120d1565b80156119785760008060016101000a81548160ff0219169083151502179055505b50565b600073ffffffffffffffffffffffffffffffffffffffff168273ffffffffffffffffffffffffffffffffffffffff161415611a1e576040517f08c379a000000000000000000000000000000000000000000000000000000000815260040180806020018281038252601f8152602001807f45524332303a206d696e7420746f20746865207a65726f20616464726573730081525060200191505060405180910390fd5b611a2a60008383611b44565b611a3f816067546115a990919063ffffffff16565b606781905550611a9781606560008573ffffffffffffffffffffffffffffffffffffffff1673ffffffffffffffffffffffffffffffffffffffff168152602001908152602001600020546115a990919063ffffffff16565b606560008473ffffffffffffffffffffffffffffffffffffffff1673ffffffffffffffffffffffffffffffffffffffff168152602001908152602001600020819055508173ffffffffffffffffffffffffffffffffffffffff16600073ffffffffffffffffffffffffffffffffffffffff167fddf252ad1be2c89b69c2b068fc378daa952ba7f163c4a11628f55a4df523b3ef836040518082815260200191505060405180910390a35050565b611b4f8383836121d0565b611b57610889565b15611bad576040517f08c379a000000000000000000000000000000000000000000000000000000000815260040180806020018281038252602a8152602001806123d0602a913960400191505060405180910390fd5b505050565b600080823b905060008111915050919050565b600060019054906101000a900460ff1680611be45750611be3611631565b5b80611bfb57506000809054906101000a900460ff16155b611c50576040517f08c379a000000000000000000000000000000000000000000000000000000000815260040180806020018281038252602e81526020018061230c602e913960400191505060405180910390fd5b60008060019054906101000a900460ff161590508015611ca0576001600060016101000a81548160ff02191690831515021790555060016000806101000a81548160ff0219169083151502179055505b8015611cc15760008060016101000a81548160ff0219169083151502179055505b50565b600060019054906101000a900460ff1680611ce35750611ce2611631565b5b80611cfa57506000809054906101000a900460ff16155b611d4f576040517f08c379a000000000000000000000000000000000000000000000000000000000815260040180806020018281038252602e81526020018061230c602e913960400191505060405180910390fd5b60008060019054906101000a900460ff161590508015611d9f576001600060016101000a81548160ff02191690831515021790555060016000806101000a81548160ff0219169083151502179055505b6000611da961102b565b905080603360006101000a81548173ffffffffffffffffffffffffffffffffffffffff021916908373ffffffffffffffffffffffffffffffffffffffff1602179055508073ffffffffffffffffffffffffffffffffffffffff16600073ffffffffffffffffffffffffffffffffffffffff167f8be0079c531659141344cd1fd0a4f28419497f9722a3daafe3b4186f6b6457e060405160405180910390a3508015611e695760008060016101000a81548160ff0219169083151502179055505b50565b600060019054906101000a900460ff1680611e8b5750611e8a611631565b5b80611ea257506000809054906101000a900460ff16155b611ef7576040517f08c379a000000000000000000000000000000000000000000000000000000000815260040180806020018281038252602e81526020018061230c602e913960400191505060405180910390fd5b60008060019054906101000a900460ff161590508015611f47576001600060016101000a81548160ff02191690831515021790555060016000806101000a81548160ff0219169083151502179055505b8260689080519060200190611f5d9291906121d5565b508160699080519060200190611f749291906121d5565b506012606a60006101000a81548160ff021916908360ff1602179055508015611fb25760008060016101000a81548160ff0219169083151502179055505b505050565b600060019054906101000a900460ff1680611fd65750611fd5611631565b5b80611fed57506000809054906101000a900460ff16155b612042576040517f08c379a000000000000000000000000000000000000000000000000000000000815260040180806020018281038252602e81526020018061230c602e913960400191505060405180910390fd5b60008060019054906101000a900460ff161590508015612092576001600060016101000a81548160ff02191690831515021790555060016000806101000a81548160ff0219169083151502179055505b6000609760006101000a81548160ff02191690831515021790555080156120ce5760008060016101000a81548160ff0219169083151502179055505b50565b600060019054906101000a900460ff16806120f057506120ef611631565b5b8061210757506000809054906101000a900460ff16155b61215c576040517f08c379a000000000000000000000000000000000000000000000000000000000815260040180806020018281038252602e81526020018061230c602e913960400191505060405180910390fd5b60008060019054906101000a900460ff1615905080156121ac576001600060016101000a81548160ff02191690831515021790555060016000806101000a81548160ff0219169083151502179055505b80156121cd5760008060016101000a81548160ff0219169083151502179055505b50565b505050565b828054600181600116156101000203166002900490600052602060002090601f016020900481019282601f1061221657805160ff1916838001178555612244565b82800160010185558215612244579182015b82811115612243578251825591602001919060010190612228565b5b5090506122519190612255565b5090565b61227791905b8082111561227357600081600090555060010161225b565b5090565b9056fe45524332303a207472616e7366657220746f20746865207a65726f20616464726573734f776e61626c653a206e6577206f776e657220697320746865207a65726f206164647265737345524332303a20617070726f766520746f20746865207a65726f206164647265737345524332303a207472616e7366657220616d6f756e7420657863656564732062616c616e6365496e697469616c697a61626c653a20636f6e747261637420697320616c726561647920696e697469616c697a656445524332303a207472616e7366657220616d6f756e74206578636565647320616c6c6f77616e636545524332303a207472616e736665722066726f6d20746865207a65726f206164647265737345524332303a20617070726f76652066726f6d20746865207a65726f206164647265737345524332303a2064656372656173656420616c6c6f77616e63652062656c6f77207a65726f45524332305061757361626c653a20746f6b656e207472616e73666572207768696c6520706175736564a26469706673582212208fac919dd40a0649b451ca62dbe70022d30519c58e04b9d2011d7a73a38c991c64736f6c63430006020033",
  "source": "pragma solidity 0.6.2;\n// SPDX-License-Identifier: MIT\n\nimport \"@openzeppelin/contracts-upgradeable/token/ERC20/ERC20Upgradeable.sol\";\nimport \"@openzeppelin/contracts-upgradeable/math/SafeMathUpgradeable.sol\";\nimport \"@openzeppelin/contracts-upgradeable/access/OwnableUpgradeable.sol\";\nimport \"@openzeppelin/contracts-upgradeable/proxy/Initializable.sol\";\nimport \"@openzeppelin/contracts-upgradeable/token/ERC20/ERC20PausableUpgradeable.sol\";\nimport \"@openzeppelin/contracts-upgradeable/math/SafeMathUpgradeable.sol\";\n\n\ncontract PlayToken is Initializable,OwnableUpgradeable,ERC20PausableUpgradeable{\n\tusing SafeMathUpgradeable for uint;\n\t/**\n\t * Category 0 - Team\n\t * Category 1 - Operations\n\t * Category 2 - Marketing/Partners\n\t * Category 3 - Advisors\n\t * Category 4 - Reserve\n\t * Category 5 - Seed Sale\n\t * Category 6 - Private 1\n\t * Category 7 - Private 2\n\t */\n\t// struct vestingDetails{\n\t// \tuint8 categoryId;\n\t// \tuint cliff;\n\t// \tuint lockUpPeriod;\n\t// \tuint vestPercentage;\n\t// \tuint totalAllocatedToken;\n\t// }\n\n\t// struct vestAccountDetails{\n\t// \tuint8 categoryId;\n\t// \taddress walletAddress;\n\t// \tuint totalAmount;\n\t// \tuint startTime;\n\t// \tuint vestingDuration;\n\t// \tuint vestingCliff;\n\t// \tuint totalMonthsClaimed;\n\t// \tuint totalAmountClaimed;\n\t// \tbool isVesting;\n\t// }\n\n\t// mapping (uint => vestingDetails) public vestCategory;\n\t// mapping(address => vestAccountDetails) public vestingDetails;\n\t\n\tfunction initialize() initializer public{\n\t\t__Ownable_init();\n        __ERC20_init('Playcent','PCNT');\t\t\n\t\t__ERC20Pausable_init();\n\t\t_mint(owner(),60000000 ether);\n \t\t\n // \t\tvestCategory[0] = vestingDetails(0,365 days,973 days,5000000000000000000,9000000 ether); // Team\n\t// \tvestCategory[1] = vestingDetails(1,91 days, 395 days,10000000000000000000,4800000 ether); // Operations\n\t// \tvestCategory[2] = vestingDetails(2,91 days, 395 days,10000000000000000000,4800000 ether); // Marketing/Partners\n\t// \tvestCategory[3] = vestingDetails(3,30 days, 334 days,10000000000000000000,2400000 ether); // Advisors\n\t// \tvestCategory[4] = vestingDetails(4,213 days, 334 days,10000000000000000000,4800000 ether); //Staking/Early Incentive Rewards\n\t// \tvestCategory[5] = vestingDetails(5,91 days, 852 days,4000000000000000000,9000000 ether); //Play Mining\t\n\t// \tvestCategory[6] = vestingDetails(5,182 days, 912 days,1000000000000000000,4200000 ether); //Reserve\t\n\t// \t// V\n\t// \tvestCategory[7] = vestingDetails(5,60 days,213 days,10000000000000000000,5700000 ether); // Seed Sale\n\t// \tvestCategory[8] = vestingDetails(6,60 days,150 days,15000000000000000000,5400000 ether); // Private Sale 1\n\t// \tvestCategory[9] = vestingDetails(7,60 days,120 days,20000000000000000000,5100000 ether); // Private Sale 2\n\t}\n\n\t// /**\n\t//  * @notice - Allows only the Owner to ADD an array of Addresses as well as their Vesting Amount\n\t//  \t\t   - The array of user and amounts should be passed along with the vestingCategory Index. \n\t//  \t\t   - Thus, a particular batch of addresses shall be added under only one Vesting Category Index \n\t//  * @param _userAddresses array of addresses of the Users\n\t//  * @param _vestingAmounts array of amounts to be vested\n\t//  * @param _vestnigType allows the owner to select the type of vesting category\n\t//  * @return - returns TRUE if Function executes successfully\n\t//  */\n\t// function addVestingDetails(address[] memory _userAddresses, uint256[] memory _vestingAmounts, uint8 _vestnigType) external onlyOwner returns(bool){\n\t// \trequire(_vestnigTypes >= 0 && _vestnigTypes <= 7,\"Invalid Vesting Index\");\n\t// \trequire(_userAddresses.length == _vestingAmounts.length,\"Unequal arrays passed\");\n\n\t// \tvestingDetails memory vestData = vestCategory[_vestnigTypes];\n\t// \tuint arrayLength = _userAddresses.length;\n\n\t// \tfor(uint i= 0; i<address.length; i++){\n\t// \t\tuint8 categoryId = _vestnigType;\n\t// \t\taddress user = _userAddresses[i];\n\t// \t\tuint256 amount = _vestingAmounts[i];\n\t// \t\tuint256 vestingDuration = vestData.lockUpPeriod;\n\t// \t\tuint256 vestingCliff = vestData.cliff;\n\t// \t\tuint256 vestPercent = vestingData.vestPercentage\n\n\n\t// \t\taddUserVestingDetails(user,categoryId,amount,vestingCliff,vestingDuration,vestPercent);\n\t// \t}\n\t// \treturn true\n\t// }\n //   *\n\t//  * @notice - Internal functions that is initializes the vestAccountDetails Struct with the respective arguments passed\n\t//  * @param _userAddresses addresses of the User\n\t//  * @param _totalAmounts total amount to be lockedUp\n\t//  * @param _categoryId denotes the type of vesting selected\n\t//  * @param _vestingCliff denotes the cliff of the vesting category selcted\n\t//  * @param _vestingDuration denotes the total duration of the vesting category selcted\n\t//  * @param _vestPercent denotes the percentage of total amount to be vested after cliff period\n\t//  * @return - returns TRUE if Function executes successfully\n\t \n\t// function addUserVestingDetails(address _userAddresses, uint8 _categoryId, uint256 _totalAmount, uint256 _vestingCliff, uint256 _vestingDuration,uint256 _vestPercent) internal{\n\t// \trequire (_userAddresses != address(0),\"Invalid Address\");\n\t// \trequire (_totalAmount>0,\"Total Amount can not be ZERO\");\n\t// \trequire (!vestingDetails[_userAddresses].isVesting,\"User Vesting Details Already Added\");\n\t\t\n\t// \tvestAccountDetails memory userVestingData = vestAccountDetails(\n\t// \t\t_categoryId,\n\t// \t\t_userAddresses,\n\t// \t\t_totalAmount,\n\t// \t\tblock.timestamp,\n\t// \t\t_vestingDuration,\n\t// \t\t_vestingCliff,\n\t// \t\t0,\n\t// \t\t0,\n\t// \t\ttrue\t\n\t// \t);\n\t// \tvestingDetails[_userAddresses] = vestingData;\n\n\t// }\n\n\t// /**\n\t//  * @notice Returns the Variable Rate of Vest depending on the no. of months passed\n\t//  * @param address of the User  \n\t//  */\n\t// function _getSaleVestRate(address user) internal view returns(uint256){\n\t// \tvestAccountDetails memory vestingData = vestingDetails[user];\n\t// \tuint8 category = vestingData.categoryId;\n\t// \t//Check whether the category id is of any particular Sale(Seed,Private 1 or Private 2)\n\t// \trequire(category >= 5 && category <= 7,\"Invalid Sale Vest Index\");\n\n\t// \tuint256 currentTime = block.timestamp;\n\t// \tuint256 userStartTime = vestingData.startTime;\n\t// \tuint256 timeElapsed = currentTime.sub(userStartTime);\n\n\t// \tuint256 currentVestRate;\n\n\t// \tif(category == 7){\n //            if(timeElapsed > 60 days && timeElapsed <= 213 days ){\n //            \tcurrentVestRate = 15000000000000000000;\n //            }\n\t// \t}\n\t// \tif(category == 8){\n //            if(timeElapsed > 60 days && timeElapsed <= 120 days ){\n //            \tcurrentVestRate = 20000000000000000000;\n //            }else if(timeElapsed > 120 days && timeElapsed <= 150 days ){\n //            \tcurrentVestRate = 25000000000000000000;\n //            }\n\t// \t}\n\t// \tif(category == 9){\n //            if(timeElapsed > 60 days && timeElapsed <= 90 days ){\n //            \tcurrentVestRate = 20000000000000000000;\n //            }else if(timeElapsed > 90 days && timeElapsed <= 120 days ){\n //            \tcurrentVestRate = 30000000000000000000;\n //            }\n\t// \t}\n\t// \treturn currentVestRate;\n\t// }\n\t\n}",
  "sourcePath": "/home/zaryab/blockchain_begins/all_about_ethereum/quillHash_CODES/bloqueLabs/playcentToken/contracts/tokenERC.sol",
  "compiler": {
    "name": "solc",
    "version": "0.6.2+commit.bacdbe57.Linux.g++"
  },
  "schemaVersion": "3.3.3",
  "updatedAt": "2021-02-22T14:21:54.143Z",
  "devdoc": {
    "methods": {
      "allowance(address,address)": {
        "details": "See {IERC20-allowance}."
      },
      "approve(address,uint256)": {
        "details": "See {IERC20-approve}.     * Requirements:     * - `spender` cannot be the zero address."
      },
      "balanceOf(address)": {
        "details": "See {IERC20-balanceOf}."
      },
      "decimals()": {
        "details": "Returns the number of decimals used to get its user representation. For example, if `decimals` equals `2`, a balance of `505` tokens should be displayed to a user as `5,05` (`505 / 10 ** 2`).     * Tokens usually opt for a value of 18, imitating the relationship between Ether and Wei. This is the value {ERC20} uses, unless {_setupDecimals} is called.     * NOTE: This information is only used for _display_ purposes: it in no way affects any of the arithmetic of the contract, including {IERC20-balanceOf} and {IERC20-transfer}."
      },
      "decreaseAllowance(address,uint256)": {
        "details": "Atomically decreases the allowance granted to `spender` by the caller.     * This is an alternative to {approve} that can be used as a mitigation for problems described in {IERC20-approve}.     * Emits an {Approval} event indicating the updated allowance.     * Requirements:     * - `spender` cannot be the zero address. - `spender` must have allowance for the caller of at least `subtractedValue`."
      },
      "increaseAllowance(address,uint256)": {
        "details": "Atomically increases the allowance granted to `spender` by the caller.     * This is an alternative to {approve} that can be used as a mitigation for problems described in {IERC20-approve}.     * Emits an {Approval} event indicating the updated allowance.     * Requirements:     * - `spender` cannot be the zero address."
      },
      "name()": {
        "details": "Returns the name of the token."
      },
      "owner()": {
        "details": "Returns the address of the current owner."
      },
      "paused()": {
        "details": "Returns true if the contract is paused, and false otherwise."
      },
      "renounceOwnership()": {
        "details": "Leaves the contract without owner. It will not be possible to call `onlyOwner` functions anymore. Can only be called by the current owner.     * NOTE: Renouncing ownership will leave the contract without an owner, thereby removing any functionality that is only available to the owner."
      },
      "symbol()": {
        "details": "Returns the symbol of the token, usually a shorter version of the name."
      },
      "totalSupply()": {
        "details": "See {IERC20-totalSupply}."
      },
      "transfer(address,uint256)": {
        "details": "See {IERC20-transfer}.     * Requirements:     * - `recipient` cannot be the zero address. - the caller must have a balance of at least `amount`."
      },
      "transferFrom(address,address,uint256)": {
        "details": "See {IERC20-transferFrom}.     * Emits an {Approval} event indicating the updated allowance. This is not required by the EIP. See the note at the beginning of {ERC20}.     * Requirements:     * - `sender` and `recipient` cannot be the zero address. - `sender` must have a balance of at least `amount`. - the caller must have allowance for ``sender``'s tokens of at least `amount`."
      },
      "transferOwnership(address)": {
        "details": "Transfers ownership of the contract to a new account (`newOwner`). Can only be called by the current owner."
      }
    }
  },
  "userdoc": {
    "methods": {
      "initialize()": {
        "notice": "Category 0 - Team Category 1 - Operations Category 2 - Marketing/Partners Category 3 - Advisors Category 4 - Reserve Category 5 - Seed Sale Category 6 - Private 1 Category 7 - Private 2"
      }
    }
  }
}