{
  "contractName": "PlayToken",
  "abi": [
    {
      "anonymous": false,
      "inputs": [
        {
          "indexed": true,
          "internalType": "address",
          "name": "owner",
          "type": "address"
        },
        {
          "indexed": true,
          "internalType": "address",
          "name": "spender",
          "type": "address"
        },
        {
          "indexed": false,
          "internalType": "uint256",
          "name": "value",
          "type": "uint256"
        }
      ],
      "name": "Approval",
      "type": "event"
    },
    {
      "anonymous": false,
      "inputs": [
        {
          "indexed": true,
          "internalType": "address",
          "name": "previousOwner",
          "type": "address"
        },
        {
          "indexed": true,
          "internalType": "address",
          "name": "newOwner",
          "type": "address"
        }
      ],
      "name": "OwnershipTransferred",
      "type": "event"
    },
    {
      "anonymous": false,
      "inputs": [
        {
          "indexed": false,
          "internalType": "address",
          "name": "account",
          "type": "address"
        }
      ],
      "name": "Paused",
      "type": "event"
    },
    {
      "anonymous": false,
      "inputs": [
        {
          "indexed": true,
          "internalType": "address",
          "name": "from",
          "type": "address"
        },
        {
          "indexed": true,
          "internalType": "address",
          "name": "to",
          "type": "address"
        },
        {
          "indexed": false,
          "internalType": "uint256",
          "name": "value",
          "type": "uint256"
        }
      ],
      "name": "Transfer",
      "type": "event"
    },
    {
      "anonymous": false,
      "inputs": [
        {
          "indexed": false,
          "internalType": "address",
          "name": "account",
          "type": "address"
        }
      ],
      "name": "Unpaused",
      "type": "event"
    },
    {
      "inputs": [
        {
          "internalType": "address",
          "name": "owner",
          "type": "address"
        },
        {
          "internalType": "address",
          "name": "spender",
          "type": "address"
        }
      ],
      "name": "allowance",
      "outputs": [
        {
          "internalType": "uint256",
          "name": "",
          "type": "uint256"
        }
      ],
      "stateMutability": "view",
      "type": "function",
      "constant": true
    },
    {
      "inputs": [
        {
          "internalType": "address",
          "name": "spender",
          "type": "address"
        },
        {
          "internalType": "uint256",
          "name": "amount",
          "type": "uint256"
        }
      ],
      "name": "approve",
      "outputs": [
        {
          "internalType": "bool",
          "name": "",
          "type": "bool"
        }
      ],
      "stateMutability": "nonpayable",
      "type": "function"
    },
    {
      "inputs": [
        {
          "internalType": "address",
          "name": "account",
          "type": "address"
        }
      ],
      "name": "balanceOf",
      "outputs": [
        {
          "internalType": "uint256",
          "name": "",
          "type": "uint256"
        }
      ],
      "stateMutability": "view",
      "type": "function",
      "constant": true
    },
    {
      "inputs": [],
      "name": "decimals",
      "outputs": [
        {
          "internalType": "uint8",
          "name": "",
          "type": "uint8"
        }
      ],
      "stateMutability": "view",
      "type": "function",
      "constant": true
    },
    {
      "inputs": [
        {
          "internalType": "address",
          "name": "spender",
          "type": "address"
        },
        {
          "internalType": "uint256",
          "name": "subtractedValue",
          "type": "uint256"
        }
      ],
      "name": "decreaseAllowance",
      "outputs": [
        {
          "internalType": "bool",
          "name": "",
          "type": "bool"
        }
      ],
      "stateMutability": "nonpayable",
      "type": "function"
    },
    {
      "inputs": [
        {
          "internalType": "address",
          "name": "spender",
          "type": "address"
        },
        {
          "internalType": "uint256",
          "name": "addedValue",
          "type": "uint256"
        }
      ],
      "name": "increaseAllowance",
      "outputs": [
        {
          "internalType": "bool",
          "name": "",
          "type": "bool"
        }
      ],
      "stateMutability": "nonpayable",
      "type": "function"
    },
    {
      "inputs": [],
      "name": "name",
      "outputs": [
        {
          "internalType": "string",
          "name": "",
          "type": "string"
        }
      ],
      "stateMutability": "view",
      "type": "function",
      "constant": true
    },
    {
      "inputs": [],
      "name": "owner",
      "outputs": [
        {
          "internalType": "address",
          "name": "",
          "type": "address"
        }
      ],
      "stateMutability": "view",
      "type": "function",
      "constant": true
    },
    {
      "inputs": [],
      "name": "paused",
      "outputs": [
        {
          "internalType": "bool",
          "name": "",
          "type": "bool"
        }
      ],
      "stateMutability": "view",
      "type": "function",
      "constant": true
    },
    {
      "inputs": [],
      "name": "renounceOwnership",
      "outputs": [],
      "stateMutability": "nonpayable",
      "type": "function"
    },
    {
      "inputs": [],
      "name": "symbol",
      "outputs": [
        {
          "internalType": "string",
          "name": "",
          "type": "string"
        }
      ],
      "stateMutability": "view",
      "type": "function",
      "constant": true
    },
    {
      "inputs": [],
      "name": "totalSupply",
      "outputs": [
        {
          "internalType": "uint256",
          "name": "",
          "type": "uint256"
        }
      ],
      "stateMutability": "view",
      "type": "function",
      "constant": true
    },
    {
      "inputs": [
        {
          "internalType": "address",
          "name": "recipient",
          "type": "address"
        },
        {
          "internalType": "uint256",
          "name": "amount",
          "type": "uint256"
        }
      ],
      "name": "transfer",
      "outputs": [
        {
          "internalType": "bool",
          "name": "",
          "type": "bool"
        }
      ],
      "stateMutability": "nonpayable",
      "type": "function"
    },
    {
      "inputs": [
        {
          "internalType": "address",
          "name": "sender",
          "type": "address"
        },
        {
          "internalType": "address",
          "name": "recipient",
          "type": "address"
        },
        {
          "internalType": "uint256",
          "name": "amount",
          "type": "uint256"
        }
      ],
      "name": "transferFrom",
      "outputs": [
        {
          "internalType": "bool",
          "name": "",
          "type": "bool"
        }
      ],
      "stateMutability": "nonpayable",
      "type": "function"
    },
    {
      "inputs": [
        {
          "internalType": "address",
          "name": "newOwner",
          "type": "address"
        }
      ],
      "name": "transferOwnership",
      "outputs": [],
      "stateMutability": "nonpayable",
      "type": "function"
    },
    {
      "inputs": [
        {
          "internalType": "address",
          "name": "",
          "type": "address"
        }
      ],
      "name": "userToVestingDetails",
      "outputs": [
        {
          "internalType": "uint8",
          "name": "categoryId",
          "type": "uint8"
        },
        {
          "internalType": "address",
          "name": "walletAddress",
          "type": "address"
        },
        {
          "internalType": "uint256",
          "name": "totalAmount",
          "type": "uint256"
        },
        {
          "internalType": "uint256",
          "name": "startTime",
          "type": "uint256"
        },
        {
          "internalType": "uint256",
          "name": "vestingDuration",
          "type": "uint256"
        },
        {
          "internalType": "uint256",
          "name": "vestingCliff",
          "type": "uint256"
        },
        {
          "internalType": "uint256",
          "name": "vestingPercent",
          "type": "uint256"
        },
        {
          "internalType": "uint256",
          "name": "totalMonthsClaimed",
          "type": "uint256"
        },
        {
          "internalType": "uint256",
          "name": "totalAmountClaimed",
          "type": "uint256"
        },
        {
          "internalType": "bool",
          "name": "isVesting",
          "type": "bool"
        }
      ],
      "stateMutability": "view",
      "type": "function",
      "constant": true
    },
    {
      "inputs": [
        {
          "internalType": "uint256",
          "name": "",
          "type": "uint256"
        }
      ],
      "name": "vestCategory",
      "outputs": [
        {
          "internalType": "uint8",
          "name": "categoryId",
          "type": "uint8"
        },
        {
          "internalType": "uint256",
          "name": "cliff",
          "type": "uint256"
        },
        {
          "internalType": "uint256",
          "name": "lockUpPeriod",
          "type": "uint256"
        },
        {
          "internalType": "uint256",
          "name": "vestPercentage",
          "type": "uint256"
        },
        {
          "internalType": "uint256",
          "name": "totalAllocatedToken",
          "type": "uint256"
        }
      ],
      "stateMutability": "view",
      "type": "function",
      "constant": true
    },
    {
      "inputs": [],
      "name": "initialize",
      "outputs": [],
      "stateMutability": "nonpayable",
      "type": "function"
    },
    {
      "inputs": [],
      "name": "getCurrentTime",
      "outputs": [
        {
          "internalType": "uint256",
          "name": "",
          "type": "uint256"
        }
      ],
      "stateMutability": "view",
      "type": "function",
      "constant": true
    },
    {
      "inputs": [
        {
          "internalType": "address[]",
          "name": "_userAddresses",
          "type": "address[]"
        },
        {
          "internalType": "uint256[]",
          "name": "_vestingAmounts",
          "type": "uint256[]"
        },
        {
          "internalType": "uint8",
          "name": "_vestnigType",
          "type": "uint8"
        }
      ],
      "name": "addVestingDetails",
      "outputs": [
        {
          "internalType": "bool",
          "name": "",
          "type": "bool"
        }
      ],
      "stateMutability": "nonpayable",
      "type": "function"
    },
    {
      "inputs": [
        {
          "internalType": "address",
          "name": "_userAddresses",
          "type": "address"
        }
      ],
      "name": "getVestingRate",
      "outputs": [
        {
          "internalType": "uint256",
          "name": "",
          "type": "uint256"
        }
      ],
      "stateMutability": "view",
      "type": "function",
      "constant": true
    },
    {
      "inputs": [
        {
          "internalType": "address",
          "name": "_userAddresses",
          "type": "address"
        }
      ],
      "name": "calculateClaimableTokens",
      "outputs": [
        {
          "internalType": "uint256",
          "name": "",
          "type": "uint256"
        }
      ],
      "stateMutability": "nonpayable",
      "type": "function"
    },
    {
      "inputs": [
        {
          "internalType": "address",
          "name": "_beneficiary",
          "type": "address"
        },
        {
          "internalType": "uint256",
          "name": "_amountOfTokens",
          "type": "uint256"
        }
      ],
      "name": "sendTokens",
      "outputs": [
        {
          "internalType": "bool",
          "name": "",
          "type": "bool"
        }
      ],
      "stateMutability": "nonpayable",
      "type": "function"
    }
  ],
  "bytecode": "0x608060405234801561001057600080fd5b50614026806100206000396000f3fe608060405234801561001057600080fd5b506004361061016a576000357c010000000000000000000000000000000000000000000000000000000090048063715018a6116100e0578063a9059cbb11610099578063a9059cbb14610716578063dd62ed3e1461077c578063f2fde38b146107f4578063f31664ff14610838578063f864e1c514610905578063fa3d888e146109695761016a565b8063715018a61461057757806371f71ace146105815780638129fc1c146105d95780638da5cb5b146105e357806395d89b411461062d578063a457c2d7146106b05761016a565b806329cb924d1161013257806329cb924d14610362578063313ce5671461038057806339509351146103a457806352985d2a1461040a5780635c975abb146104fd57806370a082311461051f5761016a565b806305ab421d1461016f57806306fdde03146101d5578063095ea7b31461025857806318160ddd146102be57806323b872dd146102dc575b600080fd5b6101bb6004803603604081101561018557600080fd5b81019080803573ffffffffffffffffffffffffffffffffffffffff169060200190929190803590602001909291905050506109c1565b604051808215151515815260200191505060405180910390f35b6101dd6109d8565b6040518080602001828103825283818151815260200191508051906020019080838360005b8381101561021d578082015181840152602081019050610202565b50505050905090810190601f16801561024a5780820380516001836020036101000a031916815260200191505b509250505060405180910390f35b6102a46004803603604081101561026e57600080fd5b81019080803573ffffffffffffffffffffffffffffffffffffffff16906020019092919080359060200190929190505050610a7a565b604051808215151515815260200191505060405180910390f35b6102c6610a98565b6040518082815260200191505060405180910390f35b610348600480360360608110156102f257600080fd5b81019080803573ffffffffffffffffffffffffffffffffffffffff169060200190929190803573ffffffffffffffffffffffffffffffffffffffff16906020019092919080359060200190929190505050610aa2565b604051808215151515815260200191505060405180910390f35b61036a610b7b565b6040518082815260200191505060405180910390f35b610388610b83565b604051808260ff1660ff16815260200191505060405180910390f35b6103f0600480360360408110156103ba57600080fd5b81019080803573ffffffffffffffffffffffffffffffffffffffff16906020019092919080359060200190929190505050610b9a565b604051808215151515815260200191505060405180910390f35b6104e36004803603606081101561042057600080fd5b810190808035906020019064010000000081111561043d57600080fd5b82018360208201111561044f57600080fd5b8035906020019184602083028401116401000000008311171561047157600080fd5b90919293919293908035906020019064010000000081111561049257600080fd5b8201836020820111156104a457600080fd5b803590602001918460208302840111640100000000831117156104c657600080fd5b9091929391929390803560ff169060200190929190505050610c4d565b604051808215151515815260200191505060405180910390f35b610505610e94565b604051808215151515815260200191505060405180910390f35b6105616004803603602081101561053557600080fd5b81019080803573ffffffffffffffffffffffffffffffffffffffff169060200190929190505050610eab565b6040518082815260200191505060405180910390f35b61057f610ef4565b005b6105c36004803603602081101561059757600080fd5b81019080803573ffffffffffffffffffffffffffffffffffffffff169060200190929190505050611064565b6040518082815260200191505060405180910390f35b6105e1611269565b005b6105eb611a7a565b604051808273ffffffffffffffffffffffffffffffffffffffff1673ffffffffffffffffffffffffffffffffffffffff16815260200191505060405180910390f35b610635611aa4565b6040518080602001828103825283818151815260200191508051906020019080838360005b8381101561067557808201518184015260208101905061065a565b50505050905090810190601f1680156106a25780820380516001836020036101000a031916815260200191505b509250505060405180910390f35b6106fc600480360360408110156106c657600080fd5b81019080803573ffffffffffffffffffffffffffffffffffffffff16906020019092919080359060200190929190505050611b46565b604051808215151515815260200191505060405180910390f35b6107626004803603604081101561072c57600080fd5b81019080803573ffffffffffffffffffffffffffffffffffffffff16906020019092919080359060200190929190505050611c13565b604051808215151515815260200191505060405180910390f35b6107de6004803603604081101561079257600080fd5b81019080803573ffffffffffffffffffffffffffffffffffffffff169060200190929190803573ffffffffffffffffffffffffffffffffffffffff169060200190929190505050611c31565b6040518082815260200191505060405180910390f35b6108366004803603602081101561080a57600080fd5b81019080803573ffffffffffffffffffffffffffffffffffffffff169060200190929190505050611cb8565b005b61087a6004803603602081101561084e57600080fd5b81019080803573ffffffffffffffffffffffffffffffffffffffff169060200190929190505050611ead565b604051808b60ff1660ff1681526020018a73ffffffffffffffffffffffffffffffffffffffff1673ffffffffffffffffffffffffffffffffffffffff168152602001898152602001888152602001878152602001868152602001858152602001848152602001838152602001821515151581526020019a505050505050505050505060405180910390f35b6109316004803603602081101561091b57600080fd5b8101908080359060200190929190505050611f3b565b604051808660ff1660ff1681526020018581526020018481526020018381526020018281526020019550505050505060405180910390f35b6109ab6004803603602081101561097f57600080fd5b81019080803573ffffffffffffffffffffffffffffffffffffffff169060200190929190505050611f7e565b6040518082815260200191505060405180910390f35b60006109cd8383611c13565b506001905092915050565b606060688054600181600116156101000203166002900480601f016020809104026020016040519081016040528092919081815260200182805460018160011615610100020316600290048015610a705780601f10610a4557610100808354040283529160200191610a70565b820191906000526020600020905b815481529060010190602001808311610a5357829003601f168201915b5050505050905090565b6000610a8e610a87612312565b848461231a565b6001905092915050565b6000606754905090565b6000610aaf848484612511565b610b7084610abb612312565b610b6b85604051806060016040528060288152602001613f3160289139606660008b73ffffffffffffffffffffffffffffffffffffffff1673ffffffffffffffffffffffffffffffffffffffff1681526020019081526020016000206000610b21612312565b73ffffffffffffffffffffffffffffffffffffffff1673ffffffffffffffffffffffffffffffffffffffff168152602001908152602001600020546127d69092919063ffffffff16565b61231a565b600190509392505050565b600042905090565b6000606a60009054906101000a900460ff16905090565b6000610c43610ba7612312565b84610c3e8560666000610bb8612312565b73ffffffffffffffffffffffffffffffffffffffff1673ffffffffffffffffffffffffffffffffffffffff16815260200190815260200160002060008973ffffffffffffffffffffffffffffffffffffffff1673ffffffffffffffffffffffffffffffffffffffff1681526020019081526020016000205461289090919063ffffffff16565b61231a565b6001905092915050565b6000610c57612312565b73ffffffffffffffffffffffffffffffffffffffff16610c75611a7a565b73ffffffffffffffffffffffffffffffffffffffff1614610cfe576040517f08c379a00000000000000000000000000000000000000000000000000000000081526004018080602001828103825260208152602001807f4f776e61626c653a2063616c6c6572206973206e6f7420746865206f776e657281525060200191505060405180910390fd5b838390508686905014610d79576040517f08c379a00000000000000000000000000000000000000000000000000000000081526004018080602001828103825260158152602001807f556e657175616c2061727261797320706173736564000000000000000000000081525060200191505060405180910390fd5b610d81613cc3565b60fb60008460ff1681526020019081526020016000206040518060a00160405290816000820160009054906101000a900460ff1660ff1660ff1681526020016001820154815260200160028201548152602001600382015481526020016004820154815250509050600087879050905060008090505b81811015610e8457600085905060008a8a84818110610e1257fe5b9050602002013573ffffffffffffffffffffffffffffffffffffffff1690506000898985818110610e3f57fe5b905060200201359050600086604001519050600087602001519050600088606001519050610e71858786858786612918565b5050505050508080600101915050610df7565b5060019250505095945050505050565b6000609760009054906101000a900460ff16905090565b6000606560008373ffffffffffffffffffffffffffffffffffffffff1673ffffffffffffffffffffffffffffffffffffffff168152602001908152602001600020549050919050565b610efc612312565b73ffffffffffffffffffffffffffffffffffffffff16610f1a611a7a565b73ffffffffffffffffffffffffffffffffffffffff1614610fa3576040517f08c379a00000000000000000000000000000000000000000000000000000000081526004018080602001828103825260208152602001807f4f776e61626c653a2063616c6c6572206973206e6f7420746865206f776e657281525060200191505060405180910390fd5b600073ffffffffffffffffffffffffffffffffffffffff16603360009054906101000a900473ffffffffffffffffffffffffffffffffffffffff1673ffffffffffffffffffffffffffffffffffffffff167f8be0079c531659141344cd1fd0a4f28419497f9722a3daafe3b4186f6b6457e060405160405180910390a36000603360006101000a81548173ffffffffffffffffffffffffffffffffffffffff021916908373ffffffffffffffffffffffffffffffffffffffff160217905550565b60008160fc60008273ffffffffffffffffffffffffffffffffffffffff1673ffffffffffffffffffffffffffffffffffffffff16815260200190815260200160002060080160009054906101000a900460ff1661110c576040517f08c379a0000000000000000000000000000000000000000000000000000000008152600401808060200182810382526026815260200180613e9a6026913960400191505060405180910390fd5b6000611116613cf5565b60fc60008673ffffffffffffffffffffffffffffffffffffffff1673ffffffffffffffffffffffffffffffffffffffff168152602001908152602001600020604051806101400160405290816000820160009054906101000a900460ff1660ff1660ff1681526020016000820160019054906101000a900473ffffffffffffffffffffffffffffffffffffffff1673ffffffffffffffffffffffffffffffffffffffff1673ffffffffffffffffffffffffffffffffffffffff168152602001600182015481526020016002820154815260200160038201548152602001600482015481526020016005820154815260200160068201548152602001600782015481526020016008820160009054906101000a900460ff16151515158152505090506006816000015160ff1611611252578060c00151915061125e565b61125b85612c79565b91505b819350505050919050565b600060019054906101000a900460ff16806112885750611287612f77565b5b8061129f57506000809054906101000a900460ff16155b6112f4576040517f08c379a000000000000000000000000000000000000000000000000000000000815260040180806020018281038252602e815260200180613ec0602e913960400191505060405180910390fd5b60008060019054906101000a900460ff161590508015611344576001600060016101000a81548160ff02191690831515021790555060016000806101000a81548160ff0219169083151502179055505b61134c612f88565b6113c06040518060400160405280600881526020017f506c617963656e740000000000000000000000000000000000000000000000008152506040518060400160405280600481526020017f50434e5400000000000000000000000000000000000000000000000000000000815250613097565b6113c86131aa565b6113e46113d3611a7a565b6a31a17e847807b1bc0000006132c1565b6040518060a00160405280600060ff1681526020016301e133808152602001630502c3808152602001674563918244f4000081526020016a0771d2fa45345aa900000081525060fb600080815260200190815260200160002060008201518160000160006101000a81548160ff021916908360ff160217905550602082015181600101556040820151816002015560608201518160030155608082015181600401559050506040518060a00160405280600160ff1681526020016277f8808152602001630208c0808152602001678ac7230489e8000081526020016a03f870857a3e0e3800000081525060fb60006001815260200190815260200160002060008201518160000160006101000a81548160ff021916908360ff160217905550602082015181600101556040820151816002015560608201518160030155608082015181600401559050506040518060a00160405280600260ff1681526020016277f8808152602001630208c0808152602001678ac7230489e8000081526020016a03f870857a3e0e3800000081525060fb60006002815260200190815260200160002060008201518160000160006101000a81548160ff021916908360ff160217905550602082015181600101556040820151816002015560608201518160030155608082015181600401559050506040518060a00160405280600360ff16815260200162278d0081526020016301b855008152602001678ac7230489e8000081526020016a01fc3842bd1f071c00000081525060fb60006003815260200190815260200160002060008201518160000160006101000a81548160ff021916908360ff160217905550602082015181600101556040820151816002015560608201518160030155608082015181600401559050506040518060a00160405280600460ff168152602001630118cf8081526020016301b855008152602001678ac7230489e8000081526020016a03f870857a3e0e3800000081525060fb60006004815260200190815260200160002060008201518160000160006101000a81548160ff021916908360ff160217905550602082015181600101556040820151816002015560608201518160030155608082015181600401559050506040518060a00160405280600560ff1681526020016277f88081526020016304633e008152602001673782dace9d90000081526020016a0771d2fa45345aa900000081525060fb60006005815260200190815260200160002060008201518160000160006101000a81548160ff021916908360ff160217905550602082015181600101556040820151816002015560608201518160030155608082015181600401559050506040518060a00160405280600560ff16815260200162eff10081526020016304b258008152602001670de0b6b3a764000081526020016a03796274caf64c7100000081525060fb60006006815260200190815260200160002060008201518160000160006101000a81548160ff021916908360ff160217905550602082015181600101556040820151816002015560608201518160030155608082015181600401559050506040518060a00160405280600560ff168152602001624f1a008152602001630118cf808152602001678ac7230489e8000081526020016a04b7059e8129b0e280000081525060fb60006007815260200190815260200160002060008201518160000160006101000a81548160ff021916908360ff160217905550602082015181600101556040820151816002015560608201518160030155608082015181600401559050506040518060a00160405280600660ff168152602001624f1a00815260200162c5c100815260200167d02ab486cedc000081526020016a04777e962985cfff00000081525060fb60006008815260200190815260200160002060008201518160000160006101000a81548160ff021916908360ff160217905550602082015181600101556040820151816002015560608201518160030155608082015181600401559050506040518060a00160405280600760ff168152602001624f1a008152602001629e340081526020016801158e460913d0000081526020016a0437f78dd1e1ef1b80000081525060fb60006009815260200190815260200160002060008201518160000160006101000a81548160ff021916908360ff160217905550602082015181600101556040820151816002015560608201518160030155608082015181600401559050508015611a775760008060016101000a81548160ff0219169083151502179055505b50565b6000603360009054906101000a900473ffffffffffffffffffffffffffffffffffffffff16905090565b606060698054600181600116156101000203166002900480601f016020809104026020016040519081016040528092919081815260200182805460018160011615610100020316600290048015611b3c5780601f10611b1157610100808354040283529160200191611b3c565b820191906000526020600020905b815481529060010190602001808311611b1f57829003601f168201915b5050505050905090565b6000611c09611b53612312565b84611c0485604051806060016040528060258152602001613fa26025913960666000611b7d612312565b73ffffffffffffffffffffffffffffffffffffffff1673ffffffffffffffffffffffffffffffffffffffff16815260200190815260200160002060008a73ffffffffffffffffffffffffffffffffffffffff1673ffffffffffffffffffffffffffffffffffffffff168152602001908152602001600020546127d69092919063ffffffff16565b61231a565b6001905092915050565b6000611c27611c20612312565b8484612511565b6001905092915050565b6000606660008473ffffffffffffffffffffffffffffffffffffffff1673ffffffffffffffffffffffffffffffffffffffff16815260200190815260200160002060008373ffffffffffffffffffffffffffffffffffffffff1673ffffffffffffffffffffffffffffffffffffffff16815260200190815260200160002054905092915050565b611cc0612312565b73ffffffffffffffffffffffffffffffffffffffff16611cde611a7a565b73ffffffffffffffffffffffffffffffffffffffff1614611d67576040517f08c379a00000000000000000000000000000000000000000000000000000000081526004018080602001828103825260208152602001807f4f776e61626c653a2063616c6c6572206973206e6f7420746865206f776e657281525060200191505060405180910390fd5b600073ffffffffffffffffffffffffffffffffffffffff168173ffffffffffffffffffffffffffffffffffffffff161415611ded576040517f08c379a0000000000000000000000000000000000000000000000000000000008152600401808060200182810382526026815260200180613e2c6026913960400191505060405180910390fd5b8073ffffffffffffffffffffffffffffffffffffffff16603360009054906101000a900473ffffffffffffffffffffffffffffffffffffffff1673ffffffffffffffffffffffffffffffffffffffff167f8be0079c531659141344cd1fd0a4f28419497f9722a3daafe3b4186f6b6457e060405160405180910390a380603360006101000a81548173ffffffffffffffffffffffffffffffffffffffff021916908373ffffffffffffffffffffffffffffffffffffffff16021790555050565b60fc6020528060005260406000206000915090508060000160009054906101000a900460ff16908060000160019054906101000a900473ffffffffffffffffffffffffffffffffffffffff16908060010154908060020154908060030154908060040154908060050154908060060154908060070154908060080160009054906101000a900460ff1690508a565b60fb6020528060005260406000206000915090508060000160009054906101000a900460ff16908060010154908060020154908060030154908060040154905085565b60008160fc60008273ffffffffffffffffffffffffffffffffffffffff1673ffffffffffffffffffffffffffffffffffffffff16815260200190815260200160002060080160009054906101000a900460ff16612026576040517f08c379a0000000000000000000000000000000000000000000000000000000008152600401808060200182810382526026815260200180613e9a6026913960400191505060405180910390fd5b61202e613cf5565b60fc60008573ffffffffffffffffffffffffffffffffffffffff1673ffffffffffffffffffffffffffffffffffffffff168152602001908152602001600020604051806101400160405290816000820160009054906101000a900460ff1660ff1660ff1681526020016000820160019054906101000a900473ffffffffffffffffffffffffffffffffffffffff1673ffffffffffffffffffffffffffffffffffffffff1673ffffffffffffffffffffffffffffffffffffffff168152602001600182015481526020016002820154815260200160038201548152602001600482015481526020016005820154815260200160068201548152602001600782015481526020016008820160009054906101000a900460ff16151515158152505090506000806000836060015190506000612165610b7b565b905060006121808660a001518461289090919063ffffffff16565b9050600061219b87608001518561289090919063ffffffff16565b905060006121b2858561348a90919063ffffffff16565b905060006121be61350d565b90506121c98c611064565b9750838510156121e55760009a5050505050505050505061230c565b82851115612210576122098961010001518a6040015161348a90919063ffffffff16565b9650612302565b600061224468056bc75e2d631000006122368b8d6040015161351890919063ffffffff16565b61359e90919063ffffffff16565b9050600061225b838561359e90919063ffffffff16565b9050600081116122d3576040517f08c379a00000000000000000000000000000000000000000000000000000000081526004018080602001828103825260208152602001807f4e756d626572206f66206d6f6e74687320656c6170736564206973205a45524f81525060200191505060405180910390fd5b6122fd8b61010001516122ef838561351890919063ffffffff16565b61348a90919063ffffffff16565b985050505b5050505050505050505b50919050565b600033905090565b600073ffffffffffffffffffffffffffffffffffffffff168373ffffffffffffffffffffffffffffffffffffffff1614156123a0576040517f08c379a0000000000000000000000000000000000000000000000000000000008152600401808060200182810382526024815260200180613f7e6024913960400191505060405180910390fd5b600073ffffffffffffffffffffffffffffffffffffffff168273ffffffffffffffffffffffffffffffffffffffff161415612426576040517f08c379a0000000000000000000000000000000000000000000000000000000008152600401808060200182810382526022815260200180613e526022913960400191505060405180910390fd5b80606660008573ffffffffffffffffffffffffffffffffffffffff1673ffffffffffffffffffffffffffffffffffffffff16815260200190815260200160002060008473ffffffffffffffffffffffffffffffffffffffff1673ffffffffffffffffffffffffffffffffffffffff168152602001908152602001600020819055508173ffffffffffffffffffffffffffffffffffffffff168373ffffffffffffffffffffffffffffffffffffffff167f8c5be1e5ebec7d5bd14f71427d1e84f3dd0314c0f7b2291e5b200ac8c7c3b925836040518082815260200191505060405180910390a3505050565b600073ffffffffffffffffffffffffffffffffffffffff168373ffffffffffffffffffffffffffffffffffffffff161415612597576040517f08c379a0000000000000000000000000000000000000000000000000000000008152600401808060200182810382526025815260200180613f596025913960400191505060405180910390fd5b600073ffffffffffffffffffffffffffffffffffffffff168273ffffffffffffffffffffffffffffffffffffffff16141561261d576040517f08c379a0000000000000000000000000000000000000000000000000000000008152600401808060200182810382526023815260200180613e096023913960400191505060405180910390fd5b612628838383613627565b61269481604051806060016040528060268152602001613e7460269139606560008773ffffffffffffffffffffffffffffffffffffffff1673ffffffffffffffffffffffffffffffffffffffff168152602001908152602001600020546127d69092919063ffffffff16565b606560008573ffffffffffffffffffffffffffffffffffffffff1673ffffffffffffffffffffffffffffffffffffffff1681526020019081526020016000208190555061272981606560008573ffffffffffffffffffffffffffffffffffffffff1673ffffffffffffffffffffffffffffffffffffffff1681526020019081526020016000205461289090919063ffffffff16565b606560008473ffffffffffffffffffffffffffffffffffffffff1673ffffffffffffffffffffffffffffffffffffffff168152602001908152602001600020819055508173ffffffffffffffffffffffffffffffffffffffff168373ffffffffffffffffffffffffffffffffffffffff167fddf252ad1be2c89b69c2b068fc378daa952ba7f163c4a11628f55a4df523b3ef836040518082815260200191505060405180910390a3505050565b6000838311158290612883576040517f08c379a00000000000000000000000000000000000000000000000000000000081526004018080602001828103825283818151815260200191508051906020019080838360005b8381101561284857808201518184015260208101905061282d565b50505050905090810190601f1680156128755780820380516001836020036101000a031916815260200191505b509250505060405180910390fd5b5082840390509392505050565b60008082840190508381101561290e576040517f08c379a000000000000000000000000000000000000000000000000000000000815260040180806020018281038252601b8152602001807f536166654d6174683a206164646974696f6e206f766572666c6f77000000000081525060200191505060405180910390fd5b8091505092915050565b858560008160ff1610158015612932575060098160ff1611155b6129a4576040517f08c379a00000000000000000000000000000000000000000000000000000000081526004018080602001828103825260158152602001807f496e76616c69642056657374696e6720496e646578000000000000000000000081525060200191505060405180910390fd5b600073ffffffffffffffffffffffffffffffffffffffff168273ffffffffffffffffffffffffffffffffffffffff161415612a47576040517f08c379a000000000000000000000000000000000000000000000000000000000815260040180806020018281038252600f8152602001807f496e76616c69642041646472657373000000000000000000000000000000000081525060200191505060405180910390fd5b60fc60008373ffffffffffffffffffffffffffffffffffffffff1673ffffffffffffffffffffffffffffffffffffffff16815260200190815260200160002060080160009054906101000a900460ff1615612aed576040517f08c379a0000000000000000000000000000000000000000000000000000000008152600401808060200182810382526022815260200180613eee6022913960400191505060405180910390fd5b612af5613cf5565b6040518061014001604052808960ff1681526020018a73ffffffffffffffffffffffffffffffffffffffff16815260200188815260200142815260200186815260200187815260200185815260200160008152602001600081526020016001151581525090508060fc60008b73ffffffffffffffffffffffffffffffffffffffff1673ffffffffffffffffffffffffffffffffffffffff16815260200190815260200160002060008201518160000160006101000a81548160ff021916908360ff16021790555060208201518160000160016101000a81548173ffffffffffffffffffffffffffffffffffffffff021916908373ffffffffffffffffffffffffffffffffffffffff16021790555060408201518160010155606082015181600201556080820151816003015560a0820151816004015560c0820151816005015560e0820151816006015561010082015181600701556101208201518160080160006101000a81548160ff021916908315150217905550905050505050505050505050565b6000612c83613cf5565b60fc60008473ffffffffffffffffffffffffffffffffffffffff1673ffffffffffffffffffffffffffffffffffffffff168152602001908152602001600020604051806101400160405290816000820160009054906101000a900460ff1660ff1660ff1681526020016000820160019054906101000a900473ffffffffffffffffffffffffffffffffffffffff1673ffffffffffffffffffffffffffffffffffffffff1673ffffffffffffffffffffffffffffffffffffffff168152602001600182015481526020016002820154815260200160038201548152602001600482015481526020016005820154815260200160068201548152602001600782015481526020016008820160009054906101000a900460ff161515151581525050905060008160000151905060078160ff1610158015612dc5575060098160ff1611155b612e37576040517f08c379a00000000000000000000000000000000000000000000000000000000081526004018080602001828103825260178152602001807f496e76616c69642053616c65205665737420496e64657800000000000000000081525060200191505060405180910390fd5b6000612e41610b7b565b90506000836060015190506000612e61828461348a90919063ffffffff16565b90506000612e6d613695565b90506000612e84828461359e90919063ffffffff16565b9050600060078760ff161415612eb757603c82118015612ea5575060d58211155b15612eb65767d02ab486cedc000090505b5b60088760ff161415612f0f57603c82118015612ed4575060788211155b15612eea576801158e460913d000009050612f0e565b607882118015612efb575060968211155b15612f0d5768015af1d78b58c4000090505b5b5b60098760ff161415612f6757603c82118015612f2c5750605a8211155b15612f42576801158e460913d000009050612f66565b605a82118015612f53575060788211155b15612f65576801a055690d9db8000090505b5b5b8098505050505050505050919050565b6000612f82306136a0565b15905090565b600060019054906101000a900460ff1680612fa75750612fa6612f77565b5b80612fbe57506000809054906101000a900460ff16155b613013576040517f08c379a000000000000000000000000000000000000000000000000000000000815260040180806020018281038252602e815260200180613ec0602e913960400191505060405180910390fd5b60008060019054906101000a900460ff161590508015613063576001600060016101000a81548160ff02191690831515021790555060016000806101000a81548160ff0219169083151502179055505b61306b6136b3565b6130736137b2565b80156130945760008060016101000a81548160ff0219169083151502179055505b50565b600060019054906101000a900460ff16806130b657506130b5612f77565b5b806130cd57506000809054906101000a900460ff16155b613122576040517f08c379a000000000000000000000000000000000000000000000000000000000815260040180806020018281038252602e815260200180613ec0602e913960400191505060405180910390fd5b60008060019054906101000a900460ff161590508015613172576001600060016101000a81548160ff02191690831515021790555060016000806101000a81548160ff0219169083151502179055505b61317a6136b3565b613184838361395a565b80156131a55760008060016101000a81548160ff0219169083151502179055505b505050565b600060019054906101000a900460ff16806131c957506131c8612f77565b5b806131e057506000809054906101000a900460ff16155b613235576040517f08c379a000000000000000000000000000000000000000000000000000000000815260040180806020018281038252602e815260200180613ec0602e913960400191505060405180910390fd5b60008060019054906101000a900460ff161590508015613285576001600060016101000a81548160ff02191690831515021790555060016000806101000a81548160ff0219169083151502179055505b61328d6136b3565b613295613aa5565b61329d613bbf565b80156132be5760008060016101000a81548160ff0219169083151502179055505b50565b600073ffffffffffffffffffffffffffffffffffffffff168273ffffffffffffffffffffffffffffffffffffffff161415613364576040517f08c379a000000000000000000000000000000000000000000000000000000000815260040180806020018281038252601f8152602001807f45524332303a206d696e7420746f20746865207a65726f20616464726573730081525060200191505060405180910390fd5b61337060008383613627565b6133858160675461289090919063ffffffff16565b6067819055506133dd81606560008573ffffffffffffffffffffffffffffffffffffffff1673ffffffffffffffffffffffffffffffffffffffff1681526020019081526020016000205461289090919063ffffffff16565b606560008473ffffffffffffffffffffffffffffffffffffffff1673ffffffffffffffffffffffffffffffffffffffff168152602001908152602001600020819055508173ffffffffffffffffffffffffffffffffffffffff16600073ffffffffffffffffffffffffffffffffffffffff167fddf252ad1be2c89b69c2b068fc378daa952ba7f163c4a11628f55a4df523b3ef836040518082815260200191505060405180910390a35050565b600082821115613502576040517f08c379a000000000000000000000000000000000000000000000000000000000815260040180806020018281038252601e8152602001807f536166654d6174683a207375627472616374696f6e206f766572666c6f77000081525060200191505060405180910390fd5b818303905092915050565b600062278d00905090565b60008083141561352b5760009050613598565b600082840290508284828161353c57fe5b0414613593576040517f08c379a0000000000000000000000000000000000000000000000000000000008152600401808060200182810382526021815260200180613f106021913960400191505060405180910390fd5b809150505b92915050565b6000808211613615576040517f08c379a000000000000000000000000000000000000000000000000000000000815260040180806020018281038252601a8152602001807f536166654d6174683a206469766973696f6e206279207a65726f00000000000081525060200191505060405180910390fd5b81838161361e57fe5b04905092915050565b613632838383613cbe565b61363a610e94565b15613690576040517f08c379a000000000000000000000000000000000000000000000000000000000815260040180806020018281038252602a815260200180613fc7602a913960400191505060405180910390fd5b505050565b600062015180905090565b600080823b905060008111915050919050565b600060019054906101000a900460ff16806136d257506136d1612f77565b5b806136e957506000809054906101000a900460ff16155b61373e576040517f08c379a000000000000000000000000000000000000000000000000000000000815260040180806020018281038252602e815260200180613ec0602e913960400191505060405180910390fd5b60008060019054906101000a900460ff16159050801561378e576001600060016101000a81548160ff02191690831515021790555060016000806101000a81548160ff0219169083151502179055505b80156137af5760008060016101000a81548160ff0219169083151502179055505b50565b600060019054906101000a900460ff16806137d157506137d0612f77565b5b806137e857506000809054906101000a900460ff16155b61383d576040517f08c379a000000000000000000000000000000000000000000000000000000000815260040180806020018281038252602e815260200180613ec0602e913960400191505060405180910390fd5b60008060019054906101000a900460ff16159050801561388d576001600060016101000a81548160ff02191690831515021790555060016000806101000a81548160ff0219169083151502179055505b6000613897612312565b905080603360006101000a81548173ffffffffffffffffffffffffffffffffffffffff021916908373ffffffffffffffffffffffffffffffffffffffff1602179055508073ffffffffffffffffffffffffffffffffffffffff16600073ffffffffffffffffffffffffffffffffffffffff167f8be0079c531659141344cd1fd0a4f28419497f9722a3daafe3b4186f6b6457e060405160405180910390a35080156139575760008060016101000a81548160ff0219169083151502179055505b50565b600060019054906101000a900460ff16806139795750613978612f77565b5b8061399057506000809054906101000a900460ff16155b6139e5576040517f08c379a000000000000000000000000000000000000000000000000000000000815260040180806020018281038252602e815260200180613ec0602e913960400191505060405180910390fd5b60008060019054906101000a900460ff161590508015613a35576001600060016101000a81548160ff02191690831515021790555060016000806101000a81548160ff0219169083151502179055505b8260689080519060200190613a4b929190613d63565b508160699080519060200190613a62929190613d63565b506012606a60006101000a81548160ff021916908360ff1602179055508015613aa05760008060016101000a81548160ff0219169083151502179055505b505050565b600060019054906101000a900460ff1680613ac45750613ac3612f77565b5b80613adb57506000809054906101000a900460ff16155b613b30576040517f08c379a000000000000000000000000000000000000000000000000000000000815260040180806020018281038252602e815260200180613ec0602e913960400191505060405180910390fd5b60008060019054906101000a900460ff161590508015613b80576001600060016101000a81548160ff02191690831515021790555060016000806101000a81548160ff0219169083151502179055505b6000609760006101000a81548160ff0219169083151502179055508015613bbc5760008060016101000a81548160ff0219169083151502179055505b50565b600060019054906101000a900460ff1680613bde5750613bdd612f77565b5b80613bf557506000809054906101000a900460ff16155b613c4a576040517f08c379a000000000000000000000000000000000000000000000000000000000815260040180806020018281038252602e815260200180613ec0602e913960400191505060405180910390fd5b60008060019054906101000a900460ff161590508015613c9a576001600060016101000a81548160ff02191690831515021790555060016000806101000a81548160ff0219169083151502179055505b8015613cbb5760008060016101000a81548160ff0219169083151502179055505b50565b505050565b6040518060a00160405280600060ff168152602001600081526020016000815260200160008152602001600081525090565b604051806101400160405280600060ff168152602001600073ffffffffffffffffffffffffffffffffffffffff168152602001600081526020016000815260200160008152602001600081526020016000815260200160008152602001600081526020016000151581525090565b828054600181600116156101000203166002900490600052602060002090601f016020900481019282601f10613da457805160ff1916838001178555613dd2565b82800160010185558215613dd2579182015b82811115613dd1578251825591602001919060010190613db6565b5b509050613ddf9190613de3565b5090565b613e0591905b80821115613e01576000816000905550600101613de9565b5090565b9056fe45524332303a207472616e7366657220746f20746865207a65726f20616464726573734f776e61626c653a206e6577206f776e657220697320746865207a65726f206164647265737345524332303a20617070726f766520746f20746865207a65726f206164647265737345524332303a207472616e7366657220616d6f756e7420657863656564732062616c616e636555736572204e4f5420616464656420746f20616e792056657374696e672043617465676f7279496e697469616c697a61626c653a20636f6e747261637420697320616c726561647920696e697469616c697a6564557365722056657374696e672044657461696c7320416c7265616479204164646564536166654d6174683a206d756c7469706c69636174696f6e206f766572666c6f7745524332303a207472616e7366657220616d6f756e74206578636565647320616c6c6f77616e636545524332303a207472616e736665722066726f6d20746865207a65726f206164647265737345524332303a20617070726f76652066726f6d20746865207a65726f206164647265737345524332303a2064656372656173656420616c6c6f77616e63652062656c6f77207a65726f45524332305061757361626c653a20746f6b656e207472616e73666572207768696c6520706175736564a26469706673582212206da63a1d0365c7fc1c7107a2b06d29f59eb27c2caef569f21f5b2304a8ab6ead64736f6c63430006020033",
  "source": "pragma solidity 0.6.2;\n// SPDX-License-Identifier: MIT\n\nimport \"@openzeppelin/contracts-upgradeable/token/ERC20/ERC20Upgradeable.sol\";\nimport \"@openzeppelin/contracts-upgradeable/math/SafeMathUpgradeable.sol\";\nimport \"@openzeppelin/contracts-upgradeable/access/OwnableUpgradeable.sol\";\nimport \"@openzeppelin/contracts-upgradeable/proxy/Initializable.sol\";\nimport \"@openzeppelin/contracts-upgradeable/token/ERC20/ERC20PausableUpgradeable.sol\";\nimport \"@openzeppelin/contracts-upgradeable/math/SafeMathUpgradeable.sol\";\n\n\ncontract PlayToken is Initializable,OwnableUpgradeable,ERC20PausableUpgradeable{\n\tusing SafeMathUpgradeable for uint;\n\t/**\n\t * Category 0 - Team\n\t * Category 1 - Operations\n\t * Category 2 - Marketing/Partners\n\t * Category 3 - Advisors\n\t * Category 4 - Staking/Earn Incentives\n\t * Category 5 - Play/Mining\n\t * Category 6 - Reserve\n\t * Category 7 - Seed Sale\n\t * Category 8 - Private 1\n\t * Category 9 - Private 2\n\t */\n\tstruct vestingDetails{\n\t\tuint8 categoryId;\n\t\tuint cliff;\n\t\tuint lockUpPeriod;\n\t\tuint vestPercentage;\n\t\tuint totalAllocatedToken;\n\t}\n\n\tstruct vestAccountDetails{\n\t\tuint8 categoryId;\n\t\taddress walletAddress;\n\t\tuint totalAmount;\n\t\tuint startTime;\n\t\tuint vestingDuration;\n\t\tuint vestingCliff;\n\t\tuint vestingPercent;\n\t\tuint totalMonthsClaimed;\n\t\tuint totalAmountClaimed;\n\t\tbool isVesting;\n\t}\n\n\tmapping (uint => vestingDetails) public vestCategory;\n\tmapping(address => vestAccountDetails) public userToVestingDetails;\n\t\n\tfunction initialize() initializer public{\n\t\t__Ownable_init();\n        __ERC20_init('Playcent','PCNT');\t\t\n\t\t__ERC20Pausable_init();\n\t\t_mint(owner(),60000000 ether);\n \t\t\n \t\tvestCategory[0] = vestingDetails(0,365 days,973 days,5000000000000000000,9000000 ether); // Team\n\t\tvestCategory[1] = vestingDetails(1,91 days, 395 days,10000000000000000000,4800000 ether); // Operations\n\t\tvestCategory[2] = vestingDetails(2,91 days, 395 days,10000000000000000000,4800000 ether); // Marketing/Partners\n\t\tvestCategory[3] = vestingDetails(3,30 days, 334 days,10000000000000000000,2400000 ether); // Advisors\n\t\tvestCategory[4] = vestingDetails(4,213 days, 334 days,10000000000000000000,4800000 ether); //Staking/Early Incentive Rewards\n\t\tvestCategory[5] = vestingDetails(5,91 days, 852 days,4000000000000000000,9000000 ether); //Play Mining\t\n\t\tvestCategory[6] = vestingDetails(5,182 days, 912 days,1000000000000000000,4200000 ether); //Reserve\t\n\t\t// Sale Vesting Strategies\n\t\tvestCategory[7] = vestingDetails(5,60 days,213 days,10000000000000000000,5700000 ether); // Seed Sale\n\t\tvestCategory[8] = vestingDetails(6,60 days,150 days,15000000000000000000,5400000 ether); // Private Sale 1\n\t\tvestCategory[9] = vestingDetails(7,60 days,120 days,20000000000000000000,5100000 ether); // Private Sale 2\n\t}\n\n\n\tmodifier onlyValidVestingBenifciary(address _userAddresses,uint8 _vestingIndex) { \n\t\trequire(_vestingIndex >= 0 && _vestingIndex <= 9,\"Invalid Vesting Index\");\t\t  \n\t\trequire (_userAddresses != address(0),\"Invalid Address\");\n\t\trequire (!userToVestingDetails[_userAddresses].isVesting,\"User Vesting Details Already Added\");\n\t\t_; \n\t}\n\n\tmodifier checkValidVestingCategory(uint8 _index){ \n\t\trequire(_index >= 0 && _index <= 9,\"Invalid Vesting Index\");\n\t\t_; \n\t}\n\n\tmodifier checkVestingStatus(address _userAddresses){ \n\t \trequire (userToVestingDetails[_userAddresses].isVesting,\"User NOT added to any Vesting Category\");\n\t\t_; \n\t}\n\n\tfunction getCurrentTime() public view returns(uint256){\n\t\treturn block.timestamp;\n\t}\t\n\n\tfunction monthInSeconds() internal pure returns(uint256){\t\t\n\t\treturn 2592000;\n\t}\n\t\n\tfunction daysInSeconds() internal pure returns(uint256){\t\t\n\t\treturn 86400;\n\t}\n\t/**\n\t * @notice - Allows only the Owner to ADD an array of Addresses as well as their Vesting Amount\n\t \t\t   - The array of user and amounts should be passed along with the vestingCategory Index. \n\t \t\t   - Thus, a particular batch of addresses shall be added under only one Vesting Category Index \n\t * @param _userAddresses array of addresses of the Users\n\t * @param _vestingAmounts array of amounts to be vested\n\t * @param _vestnigType allows the owner to select the type of vesting category\n\t * @return - true if Function executes successfully\n\t */\n\n\tfunction addVestingDetails(address[] calldata _userAddresses, uint256[] calldata _vestingAmounts, uint8 _vestnigType) external onlyOwner returns(bool){\n\t\trequire(_userAddresses.length == _vestingAmounts.length,\"Unequal arrays passed\");\n\n\t\tvestingDetails memory vestData = vestCategory[_vestnigType];\n\t\tuint arrayLength = _userAddresses.length;\n\n\t\tfor(uint i= 0; i<arrayLength; i++){\n\t\t\tuint8 categoryId = _vestnigType;\n\t\t\taddress user = _userAddresses[i];\n\t\t\tuint256 amount = _vestingAmounts[i];\n\t\t\tuint256 vestingDuration = vestData.lockUpPeriod;\n\t\t\tuint256 vestingCliff = vestData.cliff;\n\t\t\tuint256 vestPercent = vestData.vestPercentage;\n\n\n\t\t\taddUserVestingDetails(user,categoryId,amount,vestingCliff,vestingDuration,vestPercent);\n\t\t}\n\t\treturn true;\n\t}\n\n\n\t/** @notice - Internal functions that is initializes the vestAccountDetails Struct with the respective arguments passed\n\t * @param _userAddresses addresses of the User\n\t * @param _totalAmount total amount to be lockedUp\n\t * @param _categoryId denotes the type of vesting selected\n\t * @param _vestingCliff denotes the cliff of the vesting category selcted\n\t * @param _vestingDuration denotes the total duration of the vesting category selcted\n\t * @param _vestPercent denotes the percentage of total amount to be vested after cliff period\n\t */\n\t \n\tfunction addUserVestingDetails(address _userAddresses, uint8 _categoryId, uint256 _totalAmount, uint256 _vestingCliff, uint256 _vestingDuration,uint256 _vestPercent) onlyValidVestingBenifciary(_userAddresses,_categoryId) internal{\t\n\t\tvestAccountDetails memory userVestingData = vestAccountDetails(\n\t\t\t_categoryId,\n\t\t\t_userAddresses,\n\t\t\t_totalAmount,\n\t\t\tblock.timestamp,\n\t\t\t_vestingDuration,\n\t\t\t_vestingCliff,\n\t\t\t_vestPercent,\n\t\t\t0,\n\t\t\t0,\n\t\t\ttrue\t\n\t\t);\n\t\tuserToVestingDetails[_userAddresses] = userVestingData;\n\t}\n\n\t/**\n\t * @notice Calculates the Variable Rate of Vest depending on the amount of time(months) elapsed\n\t * @param user address of the User  \n\t */\n\tfunction _getSaleVestRate(address user) internal view returns(uint256){\n\t\tvestAccountDetails memory vestingData = userToVestingDetails[user];\n\t\tuint8 category = vestingData.categoryId;\n\t\t//Check whether the category id is of any particular Sale(Seed,Private 1 or Private 2)\n\t\trequire(category >= 7 && category <= 9,\"Invalid Sale Vest Index\");\n\n\t\tuint256 currentTime = getCurrentTime();\n\t\tuint256 userStartTime = vestingData.startTime;\n\t\tuint256 timeElapsed = currentTime.sub(userStartTime);\n\t\tuint256 oneDayInSeconds = daysInSeconds();\n\n\t\tuint256 timeElapsedInDays = timeElapsed.div(oneDayInSeconds);\n\t\tuint256 currentVestRate;\n\n\t\tif(category == 7){\n            if(timeElapsedInDays > 60 && timeElapsedInDays <= 213 ){\n            \tcurrentVestRate = 15000000000000000000;\n            }\n\t\t}\n\t\tif(category == 8){\n            if(timeElapsedInDays > 60 && timeElapsedInDays <= 120 ){\n            \tcurrentVestRate = 20000000000000000000;\n            }else if(timeElapsedInDays > 120 && timeElapsedInDays <= 150 ){\n            \tcurrentVestRate = 25000000000000000000;\n            }\n\t\t}\n\t\tif(category == 9){\n            if(timeElapsedInDays > 60 && timeElapsedInDays <= 90 ){\n            \tcurrentVestRate = 20000000000000000000;\n            }else if(timeElapsedInDays > 90 && timeElapsedInDays <= 120 ){\n            \tcurrentVestRate = 30000000000000000000;\n            }\n\t\t}\n\t\treturn currentVestRate;\n\t}\n\n\tfunction getVestingRate(address _userAddresses) public checkVestingStatus(_userAddresses) view returns(uint256){\n\t\tuint256 vestRate;\n\t\tvestAccountDetails memory vestData = userToVestingDetails[_userAddresses];\n\n\t\tif(vestData.categoryId <= 6){\n\t \t\tvestRate = vestData.vestingPercent;\n\t \t}else{\n\t \t\tvestRate = _getSaleVestRate(_userAddresses);\n\t \t}\n\n\t \treturn vestRate;\n\t}\n\t\n   /**\n\t * @notice Calculates the amount of tokens to be transferred at any given point of time\n\t * @param _userAddresses address of the User  \n\t */\n\n\t function calculateClaimableTokens(address _userAddresses) public checkVestingStatus(_userAddresses) returns(uint256){\t \t\n\t \t// Get Vesting Details\n\t \tvestAccountDetails memory vestData = userToVestingDetails[_userAddresses];\n\t \t\n\t \tuint256 vestRate;\n\t \tuint256 totalClaimableAmount;\n\t \tuint256 vestStartTime = vestData.startTime;\n\t \tuint256 currentTime = getCurrentTime();\n\t \tuint256 vestCliff = vestStartTime.add(vestData.vestingCliff);\n\t \tuint256 vestDuration = vestStartTime.add(vestData.vestingDuration);\n\t \t\n\t \t\n\t \tuint256 timeElapsed = currentTime.sub(vestStartTime);\n\t \tuint256 oneMonthInSeconds = monthInSeconds();\n\n\t\tvestRate = getVestingRate(_userAddresses);\n\t \t// Finally check the Claimable Amount by comparing the timeElapsed with the Current Time\n\n\t \tif(currentTime < vestCliff){  // If Vesting Cliff is not reached yet\n\t \t\treturn 0;\n\t \t}else if(currentTime > vestDuration){ // If total duration of Vesting already crossed\n\t \t\t// uint256 amountPerMonth = (vestData.totalAmount.mul(vestRate)).div(100000000000000000000);\n\t \t\t// uint256 totalDuration = vestData.vestingDuration.div(oneMonthInSeconds);\n\t \t\ttotalClaimableAmount = vestData.totalAmount.sub(vestData.totalAmountClaimed);\n\t \t}else{ // if current time has crossed the Vesting Cliff but not the total Vesting Duration\n\t \t\tuint256 amountPerMonth = (vestData.totalAmount.mul(vestRate)).div(100000000000000000000);\n\t \t\tuint256 totalMonthsElapsed = timeElapsed.div(oneMonthInSeconds);\n\t \t\trequire (totalMonthsElapsed > 0,\"Number of months elapsed is ZERO\");\n\t \t\ttotalClaimableAmount = (amountPerMonth.mul(totalMonthsElapsed)).sub(vestData.totalAmountClaimed);\n\t \t}\n\n\t }\n\t \n\tfunction sendTokens(address _beneficiary, uint256 _amountOfTokens) external returns(bool){\n\t\tsuper.transfer(_beneficiary,_amountOfTokens);\n\t\treturn true;\n\t}\n\t\n\t\n}",
  "sourcePath": "/home/zaryab/blockchain_begins/all_about_ethereum/quillHash_CODES/bloqueLabs/playcentToken/contracts/tokenERC.sol",
  "compiler": {
    "name": "solc",
    "version": "0.6.2+commit.bacdbe57.Linux.g++"
  },
  "schemaVersion": "3.3.3",
  "updatedAt": "2021-02-24T16:01:33.114Z",
  "networkType": "ethereum",
  "devdoc": {
    "methods": {
      "addVestingDetails(address[],uint256[],uint8)": {
        "params": {
          "_userAddresses": "array of addresses of the Users",
          "_vestingAmounts": "array of amounts to be vested",
          "_vestnigType": "allows the owner to select the type of vesting category"
        },
        "returns": {
          "_0": "- true if Function executes successfully"
        }
      },
      "allowance(address,address)": {
        "details": "See {IERC20-allowance}."
      },
      "approve(address,uint256)": {
        "details": "See {IERC20-approve}.     * Requirements:     * - `spender` cannot be the zero address."
      },
      "balanceOf(address)": {
        "details": "See {IERC20-balanceOf}."
      },
      "calculateClaimableTokens(address)": {
        "params": {
          "_userAddresses": "address of the User  "
        }
      },
      "decimals()": {
        "details": "Returns the number of decimals used to get its user representation. For example, if `decimals` equals `2`, a balance of `505` tokens should be displayed to a user as `5,05` (`505 / 10 ** 2`).     * Tokens usually opt for a value of 18, imitating the relationship between Ether and Wei. This is the value {ERC20} uses, unless {_setupDecimals} is called.     * NOTE: This information is only used for _display_ purposes: it in no way affects any of the arithmetic of the contract, including {IERC20-balanceOf} and {IERC20-transfer}."
      },
      "decreaseAllowance(address,uint256)": {
        "details": "Atomically decreases the allowance granted to `spender` by the caller.     * This is an alternative to {approve} that can be used as a mitigation for problems described in {IERC20-approve}.     * Emits an {Approval} event indicating the updated allowance.     * Requirements:     * - `spender` cannot be the zero address. - `spender` must have allowance for the caller of at least `subtractedValue`."
      },
      "increaseAllowance(address,uint256)": {
        "details": "Atomically increases the allowance granted to `spender` by the caller.     * This is an alternative to {approve} that can be used as a mitigation for problems described in {IERC20-approve}.     * Emits an {Approval} event indicating the updated allowance.     * Requirements:     * - `spender` cannot be the zero address."
      },
      "name()": {
        "details": "Returns the name of the token."
      },
      "owner()": {
        "details": "Returns the address of the current owner."
      },
      "paused()": {
        "details": "Returns true if the contract is paused, and false otherwise."
      },
      "renounceOwnership()": {
        "details": "Leaves the contract without owner. It will not be possible to call `onlyOwner` functions anymore. Can only be called by the current owner.     * NOTE: Renouncing ownership will leave the contract without an owner, thereby removing any functionality that is only available to the owner."
      },
      "symbol()": {
        "details": "Returns the symbol of the token, usually a shorter version of the name."
      },
      "totalSupply()": {
        "details": "See {IERC20-totalSupply}."
      },
      "transfer(address,uint256)": {
        "details": "See {IERC20-transfer}.     * Requirements:     * - `recipient` cannot be the zero address. - the caller must have a balance of at least `amount`."
      },
      "transferFrom(address,address,uint256)": {
        "details": "See {IERC20-transferFrom}.     * Emits an {Approval} event indicating the updated allowance. This is not required by the EIP. See the note at the beginning of {ERC20}.     * Requirements:     * - `sender` and `recipient` cannot be the zero address. - `sender` must have a balance of at least `amount`. - the caller must have allowance for ``sender``'s tokens of at least `amount`."
      },
      "transferOwnership(address)": {
        "details": "Transfers ownership of the contract to a new account (`newOwner`). Can only be called by the current owner."
      }
    }
  },
  "userdoc": {
    "methods": {
      "addVestingDetails(address[],uint256[],uint8)": {
        "notice": "- Allows only the Owner to ADD an array of Addresses as well as their Vesting Amount - The array of user and amounts should be passed along with the vestingCategory Index.  - Thus, a particular batch of addresses shall be added under only one Vesting Category Index "
      },
      "calculateClaimableTokens(address)": {
        "notice": "Calculates the amount of tokens to be transferred at any given point of time"
      }
    }
  }
}