{
  "contractName": "PlayToken",
  "abi": [
    {
      "anonymous": false,
      "inputs": [
        {
          "indexed": true,
          "internalType": "address",
          "name": "owner",
          "type": "address"
        },
        {
          "indexed": true,
          "internalType": "address",
          "name": "spender",
          "type": "address"
        },
        {
          "indexed": false,
          "internalType": "uint256",
          "name": "value",
          "type": "uint256"
        }
      ],
      "name": "Approval",
      "type": "event"
    },
    {
      "anonymous": false,
      "inputs": [
        {
          "indexed": true,
          "internalType": "address",
          "name": "previousOwner",
          "type": "address"
        },
        {
          "indexed": true,
          "internalType": "address",
          "name": "newOwner",
          "type": "address"
        }
      ],
      "name": "OwnershipTransferred",
      "type": "event"
    },
    {
      "anonymous": false,
      "inputs": [
        {
          "indexed": false,
          "internalType": "address",
          "name": "account",
          "type": "address"
        }
      ],
      "name": "Paused",
      "type": "event"
    },
    {
      "anonymous": false,
      "inputs": [
        {
          "indexed": true,
          "internalType": "address",
          "name": "from",
          "type": "address"
        },
        {
          "indexed": true,
          "internalType": "address",
          "name": "to",
          "type": "address"
        },
        {
          "indexed": false,
          "internalType": "uint256",
          "name": "value",
          "type": "uint256"
        }
      ],
      "name": "Transfer",
      "type": "event"
    },
    {
      "anonymous": false,
      "inputs": [
        {
          "indexed": false,
          "internalType": "address",
          "name": "account",
          "type": "address"
        }
      ],
      "name": "Unpaused",
      "type": "event"
    },
    {
      "inputs": [
        {
          "internalType": "address",
          "name": "owner",
          "type": "address"
        },
        {
          "internalType": "address",
          "name": "spender",
          "type": "address"
        }
      ],
      "name": "allowance",
      "outputs": [
        {
          "internalType": "uint256",
          "name": "",
          "type": "uint256"
        }
      ],
      "stateMutability": "view",
      "type": "function",
      "constant": true
    },
    {
      "inputs": [
        {
          "internalType": "address",
          "name": "spender",
          "type": "address"
        },
        {
          "internalType": "uint256",
          "name": "amount",
          "type": "uint256"
        }
      ],
      "name": "approve",
      "outputs": [
        {
          "internalType": "bool",
          "name": "",
          "type": "bool"
        }
      ],
      "stateMutability": "nonpayable",
      "type": "function"
    },
    {
      "inputs": [
        {
          "internalType": "address",
          "name": "account",
          "type": "address"
        }
      ],
      "name": "balanceOf",
      "outputs": [
        {
          "internalType": "uint256",
          "name": "",
          "type": "uint256"
        }
      ],
      "stateMutability": "view",
      "type": "function",
      "constant": true
    },
    {
      "inputs": [],
      "name": "decimals",
      "outputs": [
        {
          "internalType": "uint8",
          "name": "",
          "type": "uint8"
        }
      ],
      "stateMutability": "view",
      "type": "function",
      "constant": true
    },
    {
      "inputs": [
        {
          "internalType": "address",
          "name": "spender",
          "type": "address"
        },
        {
          "internalType": "uint256",
          "name": "subtractedValue",
          "type": "uint256"
        }
      ],
      "name": "decreaseAllowance",
      "outputs": [
        {
          "internalType": "bool",
          "name": "",
          "type": "bool"
        }
      ],
      "stateMutability": "nonpayable",
      "type": "function"
    },
    {
      "inputs": [
        {
          "internalType": "address",
          "name": "spender",
          "type": "address"
        },
        {
          "internalType": "uint256",
          "name": "addedValue",
          "type": "uint256"
        }
      ],
      "name": "increaseAllowance",
      "outputs": [
        {
          "internalType": "bool",
          "name": "",
          "type": "bool"
        }
      ],
      "stateMutability": "nonpayable",
      "type": "function"
    },
    {
      "inputs": [],
      "name": "name",
      "outputs": [
        {
          "internalType": "string",
          "name": "",
          "type": "string"
        }
      ],
      "stateMutability": "view",
      "type": "function",
      "constant": true
    },
    {
      "inputs": [],
      "name": "owner",
      "outputs": [
        {
          "internalType": "address",
          "name": "",
          "type": "address"
        }
      ],
      "stateMutability": "view",
      "type": "function",
      "constant": true
    },
    {
      "inputs": [],
      "name": "paused",
      "outputs": [
        {
          "internalType": "bool",
          "name": "",
          "type": "bool"
        }
      ],
      "stateMutability": "view",
      "type": "function",
      "constant": true
    },
    {
      "inputs": [],
      "name": "renounceOwnership",
      "outputs": [],
      "stateMutability": "nonpayable",
      "type": "function"
    },
    {
      "inputs": [],
      "name": "symbol",
      "outputs": [
        {
          "internalType": "string",
          "name": "",
          "type": "string"
        }
      ],
      "stateMutability": "view",
      "type": "function",
      "constant": true
    },
    {
      "inputs": [],
      "name": "totalSupply",
      "outputs": [
        {
          "internalType": "uint256",
          "name": "",
          "type": "uint256"
        }
      ],
      "stateMutability": "view",
      "type": "function",
      "constant": true
    },
    {
      "inputs": [
        {
          "internalType": "address",
          "name": "recipient",
          "type": "address"
        },
        {
          "internalType": "uint256",
          "name": "amount",
          "type": "uint256"
        }
      ],
      "name": "transfer",
      "outputs": [
        {
          "internalType": "bool",
          "name": "",
          "type": "bool"
        }
      ],
      "stateMutability": "nonpayable",
      "type": "function"
    },
    {
      "inputs": [
        {
          "internalType": "address",
          "name": "sender",
          "type": "address"
        },
        {
          "internalType": "address",
          "name": "recipient",
          "type": "address"
        },
        {
          "internalType": "uint256",
          "name": "amount",
          "type": "uint256"
        }
      ],
      "name": "transferFrom",
      "outputs": [
        {
          "internalType": "bool",
          "name": "",
          "type": "bool"
        }
      ],
      "stateMutability": "nonpayable",
      "type": "function"
    },
    {
      "inputs": [
        {
          "internalType": "address",
          "name": "newOwner",
          "type": "address"
        }
      ],
      "name": "transferOwnership",
      "outputs": [],
      "stateMutability": "nonpayable",
      "type": "function"
    },
    {
      "inputs": [
        {
          "internalType": "address",
          "name": "",
          "type": "address"
        },
        {
          "internalType": "uint8",
          "name": "",
          "type": "uint8"
        }
      ],
      "name": "userToVestingDetails",
      "outputs": [
        {
          "internalType": "uint8",
          "name": "vestingIndex",
          "type": "uint8"
        },
        {
          "internalType": "address",
          "name": "walletAddress",
          "type": "address"
        },
        {
          "internalType": "uint256",
          "name": "totalAmount",
          "type": "uint256"
        },
        {
          "internalType": "uint256",
          "name": "startTime",
          "type": "uint256"
        },
        {
          "internalType": "uint256",
          "name": "vestingDuration",
          "type": "uint256"
        },
        {
          "internalType": "uint256",
          "name": "vestingCliff",
          "type": "uint256"
        },
        {
          "internalType": "uint256",
          "name": "vestingPercent",
          "type": "uint256"
        },
        {
          "internalType": "uint256",
          "name": "totalAmountClaimed",
          "type": "uint256"
        },
        {
          "internalType": "bool",
          "name": "isVesting",
          "type": "bool"
        },
        {
          "internalType": "bool",
          "name": "tgeTokensClaimed",
          "type": "bool"
        }
      ],
      "stateMutability": "view",
      "type": "function",
      "constant": true
    },
    {
      "inputs": [
        {
          "internalType": "uint256",
          "name": "",
          "type": "uint256"
        }
      ],
      "name": "vestCategory",
      "outputs": [
        {
          "internalType": "uint8",
          "name": "vestingIndex",
          "type": "uint8"
        },
        {
          "internalType": "uint256",
          "name": "cliff",
          "type": "uint256"
        },
        {
          "internalType": "uint256",
          "name": "vestingDuration",
          "type": "uint256"
        },
        {
          "internalType": "uint256",
          "name": "vestPercentage",
          "type": "uint256"
        },
        {
          "internalType": "uint256",
          "name": "totalAllocatedToken",
          "type": "uint256"
        }
      ],
      "stateMutability": "view",
      "type": "function",
      "constant": true
    },
    {
      "inputs": [
        {
          "internalType": "address",
          "name": "_PublicSaleAddress",
          "type": "address"
        }
      ],
      "name": "initialize",
      "outputs": [],
      "stateMutability": "nonpayable",
      "type": "function"
    },
    {
      "inputs": [],
      "name": "getCurrentTime",
      "outputs": [
        {
          "internalType": "uint256",
          "name": "",
          "type": "uint256"
        }
      ],
      "stateMutability": "view",
      "type": "function",
      "constant": true
    },
    {
      "inputs": [],
      "name": "getTgeTIME",
      "outputs": [
        {
          "internalType": "uint256",
          "name": "",
          "type": "uint256"
        }
      ],
      "stateMutability": "pure",
      "type": "function",
      "constant": true
    },
    {
      "inputs": [
        {
          "internalType": "address[]",
          "name": "_userAddresses",
          "type": "address[]"
        },
        {
          "internalType": "uint256[]",
          "name": "_vestingAmounts",
          "type": "uint256[]"
        },
        {
          "internalType": "uint8",
          "name": "_vestnigType",
          "type": "uint8"
        }
      ],
      "name": "addVestingDetails",
      "outputs": [
        {
          "internalType": "bool",
          "name": "",
          "type": "bool"
        }
      ],
      "stateMutability": "nonpayable",
      "type": "function"
    },
    {
      "inputs": [
        {
          "internalType": "address",
          "name": "_userAddresses",
          "type": "address"
        },
        {
          "internalType": "uint8",
          "name": "_vestingIndex",
          "type": "uint8"
        }
      ],
      "name": "getVestingRate",
      "outputs": [
        {
          "internalType": "uint256",
          "name": "",
          "type": "uint256"
        }
      ],
      "stateMutability": "view",
      "type": "function",
      "constant": true
    },
    {
      "inputs": [
        {
          "internalType": "address",
          "name": "_userAddresses",
          "type": "address"
        },
        {
          "internalType": "uint8",
          "name": "_vestingIndex",
          "type": "uint8"
        }
      ],
      "name": "calculateClaimableTokens",
      "outputs": [
        {
          "internalType": "uint256",
          "name": "",
          "type": "uint256"
        }
      ],
      "stateMutability": "view",
      "type": "function",
      "constant": true
    },
    {
      "inputs": [
        {
          "internalType": "address",
          "name": "_userAddresses",
          "type": "address"
        },
        {
          "internalType": "uint8",
          "name": "_vestingIndex",
          "type": "uint8"
        }
      ],
      "name": "claimTGETokens",
      "outputs": [
        {
          "internalType": "bool",
          "name": "",
          "type": "bool"
        }
      ],
      "stateMutability": "nonpayable",
      "type": "function"
    },
    {
      "inputs": [
        {
          "internalType": "address",
          "name": "_userAddresses",
          "type": "address"
        },
        {
          "internalType": "uint8",
          "name": "_vestingIndex",
          "type": "uint8"
        }
      ],
      "name": "claimVestTokens",
      "outputs": [
        {
          "internalType": "bool",
          "name": "",
          "type": "bool"
        }
      ],
      "stateMutability": "nonpayable",
      "type": "function"
    }
  ],
  "bytecode": "0x608060405234801561001057600080fd5b50615220806100206000396000f3fe608060405234801561001057600080fd5b5060043610610190576000357c0100000000000000000000000000000000000000000000000000000000900480638da5cb5b116100fb578063b09ee193116100b4578063dd62ed3e1161008e578063dd62ed3e146108d8578063e4f150be14610950578063f2fde38b14610a2e578063f864e1c514610a7257610190565b8063b09ee19314610811578063c4d66de81461082f578063ce997dbb1461087357610190565b80638da5cb5b146105aa5780638e6e9e22146105f45780638f9335e41461065d57806395d89b41146106c2578063a457c2d714610745578063a9059cbb146107ab57610190565b8063395093511161014d578063395093511461036457806352985d2a146103ca57806358a91b76146104bd5780635c975abb1461052657806370a0823114610548578063715018a6146105a057610190565b806306fdde0314610195578063095ea7b31461021857806318160ddd1461027e57806323b872dd1461029c57806329cb924d14610322578063313ce56714610340575b600080fd5b61019d610ad6565b6040518080602001828103825283818151815260200191508051906020019080838360005b838110156101dd5780820151818401526020810190506101c2565b50505050905090810190601f16801561020a5780820380516001836020036101000a031916815260200191505b509250505060405180910390f35b6102646004803603604081101561022e57600080fd5b81019080803573ffffffffffffffffffffffffffffffffffffffff16906020019092919080359060200190929190505050610b78565b604051808215151515815260200191505060405180910390f35b610286610b96565b6040518082815260200191505060405180910390f35b610308600480360360608110156102b257600080fd5b81019080803573ffffffffffffffffffffffffffffffffffffffff169060200190929190803573ffffffffffffffffffffffffffffffffffffffff16906020019092919080359060200190929190505050610ba0565b604051808215151515815260200191505060405180910390f35b61032a610c79565b6040518082815260200191505060405180910390f35b610348610c81565b604051808260ff1660ff16815260200191505060405180910390f35b6103b06004803603604081101561037a57600080fd5b81019080803573ffffffffffffffffffffffffffffffffffffffff16906020019092919080359060200190929190505050610c98565b604051808215151515815260200191505060405180910390f35b6104a3600480360360608110156103e057600080fd5b81019080803590602001906401000000008111156103fd57600080fd5b82018360208201111561040f57600080fd5b8035906020019184602083028401116401000000008311171561043157600080fd5b90919293919293908035906020019064010000000081111561045257600080fd5b82018360208201111561046457600080fd5b8035906020019184602083028401116401000000008311171561048657600080fd5b9091929391929390803560ff169060200190929190505050610d4b565b604051808215151515815260200191505060405180910390f35b61050c600480360360408110156104d357600080fd5b81019080803573ffffffffffffffffffffffffffffffffffffffff169060200190929190803560ff169060200190929190505050610f92565b604051808215151515815260200191505060405180910390f35b61052e6114a5565b604051808215151515815260200191505060405180910390f35b61058a6004803603602081101561055e57600080fd5b81019080803573ffffffffffffffffffffffffffffffffffffffff1690602001909291905050506114bc565b6040518082815260200191505060405180910390f35b6105a8611505565b005b6105b2611675565b604051808273ffffffffffffffffffffffffffffffffffffffff1673ffffffffffffffffffffffffffffffffffffffff16815260200191505060405180910390f35b6106436004803603604081101561060a57600080fd5b81019080803573ffffffffffffffffffffffffffffffffffffffff169060200190929190803560ff16906020019092919050505061169f565b604051808215151515815260200191505060405180910390f35b6106ac6004803603604081101561067357600080fd5b81019080803573ffffffffffffffffffffffffffffffffffffffff169060200190929190803560ff169060200190929190505050611bb0565b6040518082815260200191505060405180910390f35b6106ca611fdd565b6040518080602001828103825283818151815260200191508051906020019080838360005b8381101561070a5780820151818401526020810190506106ef565b50505050905090810190601f1680156107375780820380516001836020036101000a031916815260200191505b509250505060405180910390f35b6107916004803603604081101561075b57600080fd5b81019080803573ffffffffffffffffffffffffffffffffffffffff1690602001909291908035906020019092919050505061207f565b604051808215151515815260200191505060405180910390f35b6107f7600480360360408110156107c157600080fd5b81019080803573ffffffffffffffffffffffffffffffffffffffff1690602001909291908035906020019092919050505061214c565b604051808215151515815260200191505060405180910390f35b61081961216a565b6040518082815260200191505060405180910390f35b6108716004803603602081101561084557600080fd5b81019080803573ffffffffffffffffffffffffffffffffffffffff169060200190929190505050612176565b005b6108c26004803603604081101561088957600080fd5b81019080803573ffffffffffffffffffffffffffffffffffffffff169060200190929190803560ff16906020019092919050505061299d565b6040518082815260200191505060405180910390f35b61093a600480360360408110156108ee57600080fd5b81019080803573ffffffffffffffffffffffffffffffffffffffff169060200190929190803573ffffffffffffffffffffffffffffffffffffffff169060200190929190505050612c60565b6040518082815260200191505060405180910390f35b61099f6004803603604081101561096657600080fd5b81019080803573ffffffffffffffffffffffffffffffffffffffff169060200190929190803560ff169060200190929190505050612ce7565b604051808b60ff1660ff1681526020018a73ffffffffffffffffffffffffffffffffffffffff1673ffffffffffffffffffffffffffffffffffffffff16815260200189815260200188815260200187815260200186815260200185815260200184815260200183151515158152602001821515151581526020019a505050505050505050505060405180910390f35b610a7060048036036020811015610a4457600080fd5b81019080803573ffffffffffffffffffffffffffffffffffffffff169060200190929190505050612d8f565b005b610a9e60048036036020811015610a8857600080fd5b8101908080359060200190929190505050612f84565b604051808660ff1660ff1681526020018581526020018481526020018381526020018281526020019550505050505060405180910390f35b606060688054600181600116156101000203166002900480601f016020809104026020016040519081016040528092919081815260200182805460018160011615610100020316600290048015610b6e5780601f10610b4357610100808354040283529160200191610b6e565b820191906000526020600020905b815481529060010190602001808311610b5157829003601f168201915b5050505050905090565b6000610b8c610b85612fc7565b8484612fcf565b6001905092915050565b6000606754905090565b6000610bad8484846131c6565b610c6e84610bb9612fc7565b610c69856040518060600160405280602881526020016150ab60289139606660008b73ffffffffffffffffffffffffffffffffffffffff1673ffffffffffffffffffffffffffffffffffffffff1681526020019081526020016000206000610c1f612fc7565b73ffffffffffffffffffffffffffffffffffffffff1673ffffffffffffffffffffffffffffffffffffffff1681526020019081526020016000205461348b9092919063ffffffff16565b612fcf565b600190509392505050565b600042905090565b6000606a60009054906101000a900460ff16905090565b6000610d41610ca5612fc7565b84610d3c8560666000610cb6612fc7565b73ffffffffffffffffffffffffffffffffffffffff1673ffffffffffffffffffffffffffffffffffffffff16815260200190815260200160002060008973ffffffffffffffffffffffffffffffffffffffff1673ffffffffffffffffffffffffffffffffffffffff1681526020019081526020016000205461354590919063ffffffff16565b612fcf565b6001905092915050565b6000610d55612fc7565b73ffffffffffffffffffffffffffffffffffffffff16610d73611675565b73ffffffffffffffffffffffffffffffffffffffff1614610dfc576040517f08c379a00000000000000000000000000000000000000000000000000000000081526004018080602001828103825260208152602001807f4f776e61626c653a2063616c6c6572206973206e6f7420746865206f776e657281525060200191505060405180910390fd5b838390508686905014610e77576040517f08c379a00000000000000000000000000000000000000000000000000000000081526004018080602001828103825260158152602001807f556e657175616c2061727261797320706173736564000000000000000000000081525060200191505060405180910390fd5b610e7f614dfb565b60fb60008460ff1681526020019081526020016000206040518060a00160405290816000820160009054906101000a900460ff1660ff1660ff1681526020016001820154815260200160028201548152602001600382015481526020016004820154815250509050600087879050905060008090505b81811015610f8257600085905060008a8a84818110610f1057fe5b9050602002013573ffffffffffffffffffffffffffffffffffffffff1690506000898985818110610f3d57fe5b905060200201359050600086604001519050600087602001519050600088606001519050610f6f8587868587866135cd565b5050505050508080600101915050610ef5565b5060019250505095945050505050565b6000828260fc60008373ffffffffffffffffffffffffffffffffffffffff1673ffffffffffffffffffffffffffffffffffffffff16815260200190815260200160002060008260ff1660ff16815260200190815260200160002060070160009054906101000a900460ff16611052576040517f08c379a0000000000000000000000000000000000000000000000000000000008152600401808060200182810382526026815260200180614fd46026913960400191505060405180910390fd5b61105a614e2d565b60fc60008773ffffffffffffffffffffffffffffffffffffffff1673ffffffffffffffffffffffffffffffffffffffff16815260200190815260200160002060008660ff1660ff168152602001908152602001600020604051806101400160405290816000820160009054906101000a900460ff1660ff1660ff1681526020016000820160019054906101000a900473ffffffffffffffffffffffffffffffffffffffff1673ffffffffffffffffffffffffffffffffffffffff1673ffffffffffffffffffffffffffffffffffffffff1681526020016001820154815260200160028201548152602001600382015481526020016004820154815260200160058201548152602001600682015481526020016007820160009054906101000a900460ff161515151581526020016007820160019054906101000a900460ff161515151581525050905060006111af8787611bb0565b905060008111611227576040517f08c379a00000000000000000000000000000000000000000000000000000000081526004018080602001828103825260158152602001807f4e6f20746f6b656e7320746f207472616e73666572000000000000000000000081525060200191505060405180910390fd5b6000611232306114bc565b905081811161128c576040517f08c379a00000000000000000000000000000000000000000000000000000000081526004018080602001828103825260248152602001806151786024913960400191505060405180910390fd5b82604001516112a8838560e0015161354590919063ffffffff16565b111561131c576040517f08c379a00000000000000000000000000000000000000000000000000000000081526004018080602001828103825260208152602001807f43616e6e6f7420436c61696d206d6f7265207468616e20416c6c6f636174656481525060200191505060405180910390fd5b818360e001818151019150818152505082604001518360e00151141561134f576000836101000190151590811515815250505b8260fc60008a73ffffffffffffffffffffffffffffffffffffffff1673ffffffffffffffffffffffffffffffffffffffff16815260200190815260200160002060008960ff1660ff16815260200190815260200160002060008201518160000160006101000a81548160ff021916908360ff16021790555060208201518160000160016101000a81548173ffffffffffffffffffffffffffffffffffffffff021916908373ffffffffffffffffffffffffffffffffffffffff16021790555060408201518160010155606082015181600201556080820151816003015560a0820151816004015560c0820151816005015560e082015181600601556101008201518160070160006101000a81548160ff0219169083151502179055506101208201518160070160016101000a81548160ff0219169083151502179055509050506114998883613974565b50505050505092915050565b6000609760009054906101000a900460ff16905090565b6000606560008373ffffffffffffffffffffffffffffffffffffffff1673ffffffffffffffffffffffffffffffffffffffff168152602001908152602001600020549050919050565b61150d612fc7565b73ffffffffffffffffffffffffffffffffffffffff1661152b611675565b73ffffffffffffffffffffffffffffffffffffffff16146115b4576040517f08c379a00000000000000000000000000000000000000000000000000000000081526004018080602001828103825260208152602001807f4f776e61626c653a2063616c6c6572206973206e6f7420746865206f776e657281525060200191505060405180910390fd5b600073ffffffffffffffffffffffffffffffffffffffff16603360009054906101000a900473ffffffffffffffffffffffffffffffffffffffff1673ffffffffffffffffffffffffffffffffffffffff167f8be0079c531659141344cd1fd0a4f28419497f9722a3daafe3b4186f6b6457e060405160405180910390a36000603360006101000a81548173ffffffffffffffffffffffffffffffffffffffff021916908373ffffffffffffffffffffffffffffffffffffffff160217905550565b6000603360009054906101000a900473ffffffffffffffffffffffffffffffffffffffff16905090565b6000828260fc60008373ffffffffffffffffffffffffffffffffffffffff1673ffffffffffffffffffffffffffffffffffffffff16815260200190815260200160002060008260ff1660ff16815260200190815260200160002060070160009054906101000a900460ff1661175f576040517f08c379a0000000000000000000000000000000000000000000000000000000008152600401808060200182810382526026815260200180614fd46026913960400191505060405180910390fd5b6000611769610c79565b905061177361216a565b81116117ca576040517f08c379a00000000000000000000000000000000000000000000000000000000081526004018080602001828103825260268152602001806151096026913960400191505060405180910390fd5b6117d2614e2d565b60fc60008873ffffffffffffffffffffffffffffffffffffffff1673ffffffffffffffffffffffffffffffffffffffff16815260200190815260200160002060008760ff1660ff168152602001908152602001600020604051806101400160405290816000820160009054906101000a900460ff1660ff1660ff1681526020016000820160019054906101000a900473ffffffffffffffffffffffffffffffffffffffff1673ffffffffffffffffffffffffffffffffffffffff1673ffffffffffffffffffffffffffffffffffffffff1681526020016001820154815260200160028201548152602001600382015481526020016004820154815260200160058201548152602001600682015481526020016007820160009054906101000a900460ff161515151581526020016007820160019054906101000a900460ff16151515158152505090506007816000015160ff161015801561193b57506009816000015160ff1611155b611990576040517f08c379a000000000000000000000000000000000000000000000000000000000815260040180806020018281038252602f815260200180614ffa602f913960400191505060405180910390fd5b600015158161012001511515146119f2576040517f08c379a00000000000000000000000000000000000000000000000000000000081526004018080602001828103825260368152602001806150d36036913960400191505060405180910390fd5b60008160400151905060008260c0015190506000611a3468056bc75e2d63100000611a26848661398b90919063ffffffff16565b613a1190919063ffffffff16565b9050808460e00181815101915081815250506001846101200190151590811515815250508360fc60008c73ffffffffffffffffffffffffffffffffffffffff1673ffffffffffffffffffffffffffffffffffffffff16815260200190815260200160002060008b60ff1660ff16815260200190815260200160002060008201518160000160006101000a81548160ff021916908360ff16021790555060208201518160000160016101000a81548173ffffffffffffffffffffffffffffffffffffffff021916908373ffffffffffffffffffffffffffffffffffffffff16021790555060408201518160010155606082015181600201556080820151816003015560a0820151816004015560c0820151816005015560e082015181600601556101008201518160070160006101000a81548160ff0219169083151502179055506101208201518160070160016101000a81548160ff021916908315150217905550905050611ba28a82613974565b505050505050505092915050565b6000828260fc60008373ffffffffffffffffffffffffffffffffffffffff1673ffffffffffffffffffffffffffffffffffffffff16815260200190815260200160002060008260ff1660ff16815260200190815260200160002060070160009054906101000a900460ff16611c70576040517f08c379a0000000000000000000000000000000000000000000000000000000008152600401808060200182810382526026815260200180614fd46026913960400191505060405180910390fd5b611c78614e2d565b60fc60008773ffffffffffffffffffffffffffffffffffffffff1673ffffffffffffffffffffffffffffffffffffffff16815260200190815260200160002060008660ff1660ff168152602001908152602001600020604051806101400160405290816000820160009054906101000a900460ff1660ff1660ff1681526020016000820160019054906101000a900473ffffffffffffffffffffffffffffffffffffffff1673ffffffffffffffffffffffffffffffffffffffff1673ffffffffffffffffffffffffffffffffffffffff1681526020016001820154815260200160028201548152602001600382015481526020016004820154815260200160058201548152602001600682015481526020016007820160009054906101000a900460ff161515151581526020016007820160019054906101000a900460ff16151515158152505090506000806000836060015190506000611dd7610c79565b90506000611df28660a001518461354590919063ffffffff16565b90506000611e0d87608001518561354590919063ffffffff16565b90506000611e248585613a9a90919063ffffffff16565b90506000611e30613b1d565b90506007896000015160ff1611611fb557611e4b8e8e61299d565b975083851015611e675760009b50505050505050505050611fd5565b82851115611e9157611e8a8960e001518a60400151613a9a90919063ffffffff16565b9650611fb0565b6000611ec568056bc75e2d63100000611eb78b8d6040015161398b90919063ffffffff16565b613a1190919063ffffffff16565b90506000611edc8385613a1190919063ffffffff16565b90506000611f09611efa858e60a00151613a1190919063ffffffff16565b83613a9a90919063ffffffff16565b905060008111611f81576040517f08c379a00000000000000000000000000000000000000000000000000000000081526004018080602001828103825260208152602001807f4e756d626572206f66206d6f6e74687320656c6170736564206973205a45524f81525060200191505060405180910390fd5b611faa8c60e00151611f9c838661398b90919063ffffffff16565b613a9a90919063ffffffff16565b99505050505b611fc8565b6000611fc18f8f613b28565b9050809750505b869b505050505050505050505b505092915050565b606060698054600181600116156101000203166002900480601f0160208091040260200160405190810160405280929190818152602001828054600181600116156101000203166002900480156120755780601f1061204a57610100808354040283529160200191612075565b820191906000526020600020905b81548152906001019060200180831161205857829003601f168201915b5050505050905090565b600061214261208c612fc7565b8461213d8560405180606001604052806025815260200161519c60259139606660006120b6612fc7565b73ffffffffffffffffffffffffffffffffffffffff1673ffffffffffffffffffffffffffffffffffffffff16815260200190815260200160002060008a73ffffffffffffffffffffffffffffffffffffffff1673ffffffffffffffffffffffffffffffffffffffff1681526020019081526020016000205461348b9092919063ffffffff16565b612fcf565b6001905092915050565b6000612160612159612fc7565b84846131c6565b6001905092915050565b600063604e5628905090565b600060019054906101000a900460ff1680612195575061219461424c565b5b806121ac57506000809054906101000a900460ff16155b612201576040517f08c379a000000000000000000000000000000000000000000000000000000000815260040180806020018281038252602e815260200180615029602e913960400191505060405180910390fd5b60008060019054906101000a900460ff161590508015612251576001600060016101000a81548160ff02191690831515021790555060016000806101000a81548160ff0219169083151502179055505b61225961425d565b6122cd6040518060400160405280600881526020017f506c617963656e740000000000000000000000000000000000000000000000008152506040518060400160405280600481526020017f50434e540000000000000000000000000000000000000000000000000000000081525061436c565b6122d561447f565b6122f16122e0611675565b6a2fa54641bae8aaa0000000614596565b612306826a01fc3842bd1f071c000000614596565b6040518060a00160405280600060ff1681526020016301e133808152602001630502c3808152602001674563918244f4000081526020016a0771d2fa45345aa900000081525060fb600080815260200190815260200160002060008201518160000160006101000a81548160ff021916908360ff160217905550602082015181600101556040820151816002015560608201518160030155608082015181600401559050506040518060a00160405280600160ff1681526020016277f8808152602001630208c0808152602001678ac7230489e8000081526020016a03f870857a3e0e3800000081525060fb60006001815260200190815260200160002060008201518160000160006101000a81548160ff021916908360ff160217905550602082015181600101556040820151816002015560608201518160030155608082015181600401559050506040518060a00160405280600260ff1681526020016277f8808152602001630208c0808152602001678ac7230489e8000081526020016a03f870857a3e0e3800000081525060fb60006002815260200190815260200160002060008201518160000160006101000a81548160ff021916908360ff160217905550602082015181600101556040820151816002015560608201518160030155608082015181600401559050506040518060a00160405280600360ff16815260200162278d0081526020016301b855008152602001678ac7230489e8000081526020016a01fc3842bd1f071c00000081525060fb60006003815260200190815260200160002060008201518160000160006101000a81548160ff021916908360ff160217905550602082015181600101556040820151816002015560608201518160030155608082015181600401559050506040518060a00160405280600460ff168152602001630118cf8081526020016301b855008152602001678ac7230489e8000081526020016a03f870857a3e0e3800000081525060fb60006004815260200190815260200160002060008201518160000160006101000a81548160ff021916908360ff160217905550602082015181600101556040820151816002015560608201518160030155608082015181600401559050506040518060a00160405280600560ff1681526020016277f88081526020016304633e008152602001673782dace9d90000081526020016a0771d2fa45345aa900000081525060fb60006005815260200190815260200160002060008201518160000160006101000a81548160ff021916908360ff160217905550602082015181600101556040820151816002015560608201518160030155608082015181600401559050506040518060a00160405280600660ff16815260200162eff10081526020016304b258008152602001670de0b6b3a764000081526020016a03796274caf64c7100000081525060fb60006006815260200190815260200160002060008201518160000160006101000a81548160ff021916908360ff160217905550602082015181600101556040820151816002015560608201518160030155608082015181600401559050506040518060a00160405280600760ff168152602001624f1a008152602001630114db008152602001678ac7230489e8000081526020016a04b7059e8129b0e280000081525060fb60006007815260200190815260200160002060008201518160000160006101000a81548160ff021916908360ff160217905550602082015181600101556040820151816002015560608201518160030155608082015181600401559050506040518060a00160405280600860ff168152602001624f1a00815260200162ed4e00815260200167d02ab486cedc000081526020016a04777e962985cfff00000081525060fb60006008815260200190815260200160002060008201518160000160006101000a81548160ff021916908360ff160217905550602082015181600101556040820151816002015560608201518160030155608082015181600401559050506040518060a00160405280600960ff168152602001624f1a00815260200162c5c10081526020016801158e460913d0000081526020016a0437f78dd1e1ef1b80000081525060fb60006009815260200190815260200160002060008201518160000160006101000a81548160ff021916908360ff1602179055506020820151816001015560408201518160020155606082015181600301556080820151816004015590505080156129995760008060016101000a81548160ff0219169083151502179055505b5050565b6000828260fc60008373ffffffffffffffffffffffffffffffffffffffff1673ffffffffffffffffffffffffffffffffffffffff16815260200190815260200160002060008260ff1660ff16815260200190815260200160002060070160009054906101000a900460ff16612a5d576040517f08c379a0000000000000000000000000000000000000000000000000000000008152600401808060200182810382526026815260200180614fd46026913960400191505060405180910390fd5b6000612a67614e2d565b60fc60008873ffffffffffffffffffffffffffffffffffffffff1673ffffffffffffffffffffffffffffffffffffffff16815260200190815260200160002060008760ff1660ff168152602001908152602001600020604051806101400160405290816000820160009054906101000a900460ff1660ff1660ff1681526020016000820160019054906101000a900473ffffffffffffffffffffffffffffffffffffffff1673ffffffffffffffffffffffffffffffffffffffff1673ffffffffffffffffffffffffffffffffffffffff1681526020016001820154815260200160028201548152602001600382015481526020016004820154815260200160058201548152602001600682015481526020016007820160009054906101000a900460ff161515151581526020016007820160019054906101000a900460ff16151515158152505090506000612bba610c79565b90506000826060015190506000612bda8284613a9a90919063ffffffff16565b90506000612be661475f565b90506000612bfd8284613a1190919063ffffffff16565b90506006866000015160ff1611612c1a578560c001519650612c4e565b6007866000015160ff161415612c4d57605a81118015612c3b575060f08111155b15612c4c5767d02ab486cedc000096505b5b5b86995050505050505050505092915050565b6000606660008473ffffffffffffffffffffffffffffffffffffffff1673ffffffffffffffffffffffffffffffffffffffff16815260200190815260200160002060008373ffffffffffffffffffffffffffffffffffffffff1673ffffffffffffffffffffffffffffffffffffffff16815260200190815260200160002054905092915050565b60fc602052816000526040600020602052806000526040600020600091509150508060000160009054906101000a900460ff16908060000160019054906101000a900473ffffffffffffffffffffffffffffffffffffffff16908060010154908060020154908060030154908060040154908060050154908060060154908060070160009054906101000a900460ff16908060070160019054906101000a900460ff1690508a565b612d97612fc7565b73ffffffffffffffffffffffffffffffffffffffff16612db5611675565b73ffffffffffffffffffffffffffffffffffffffff1614612e3e576040517f08c379a00000000000000000000000000000000000000000000000000000000081526004018080602001828103825260208152602001807f4f776e61626c653a2063616c6c6572206973206e6f7420746865206f776e657281525060200191505060405180910390fd5b600073ffffffffffffffffffffffffffffffffffffffff168173ffffffffffffffffffffffffffffffffffffffff161415612ec4576040517f08c379a0000000000000000000000000000000000000000000000000000000008152600401808060200182810382526026815260200180614f666026913960400191505060405180910390fd5b8073ffffffffffffffffffffffffffffffffffffffff16603360009054906101000a900473ffffffffffffffffffffffffffffffffffffffff1673ffffffffffffffffffffffffffffffffffffffff167f8be0079c531659141344cd1fd0a4f28419497f9722a3daafe3b4186f6b6457e060405160405180910390a380603360006101000a81548173ffffffffffffffffffffffffffffffffffffffff021916908373ffffffffffffffffffffffffffffffffffffffff16021790555050565b60fb6020528060005260406000206000915090508060000160009054906101000a900460ff16908060010154908060020154908060030154908060040154905085565b600033905090565b600073ffffffffffffffffffffffffffffffffffffffff168373ffffffffffffffffffffffffffffffffffffffff161415613055576040517f08c379a00000000000000000000000000000000000000000000000000000000081526004018080602001828103825260248152602001806151546024913960400191505060405180910390fd5b600073ffffffffffffffffffffffffffffffffffffffff168273ffffffffffffffffffffffffffffffffffffffff1614156130db576040517f08c379a0000000000000000000000000000000000000000000000000000000008152600401808060200182810382526022815260200180614f8c6022913960400191505060405180910390fd5b80606660008573ffffffffffffffffffffffffffffffffffffffff1673ffffffffffffffffffffffffffffffffffffffff16815260200190815260200160002060008473ffffffffffffffffffffffffffffffffffffffff1673ffffffffffffffffffffffffffffffffffffffff168152602001908152602001600020819055508173ffffffffffffffffffffffffffffffffffffffff168373ffffffffffffffffffffffffffffffffffffffff167f8c5be1e5ebec7d5bd14f71427d1e84f3dd0314c0f7b2291e5b200ac8c7c3b925836040518082815260200191505060405180910390a3505050565b600073ffffffffffffffffffffffffffffffffffffffff168373ffffffffffffffffffffffffffffffffffffffff16141561324c576040517f08c379a000000000000000000000000000000000000000000000000000000000815260040180806020018281038252602581526020018061512f6025913960400191505060405180910390fd5b600073ffffffffffffffffffffffffffffffffffffffff168273ffffffffffffffffffffffffffffffffffffffff1614156132d2576040517f08c379a0000000000000000000000000000000000000000000000000000000008152600401808060200182810382526023815260200180614f436023913960400191505060405180910390fd5b6132dd83838361476a565b61334981604051806060016040528060268152602001614fae60269139606560008773ffffffffffffffffffffffffffffffffffffffff1673ffffffffffffffffffffffffffffffffffffffff1681526020019081526020016000205461348b9092919063ffffffff16565b606560008573ffffffffffffffffffffffffffffffffffffffff1673ffffffffffffffffffffffffffffffffffffffff168152602001908152602001600020819055506133de81606560008573ffffffffffffffffffffffffffffffffffffffff1673ffffffffffffffffffffffffffffffffffffffff1681526020019081526020016000205461354590919063ffffffff16565b606560008473ffffffffffffffffffffffffffffffffffffffff1673ffffffffffffffffffffffffffffffffffffffff168152602001908152602001600020819055508173ffffffffffffffffffffffffffffffffffffffff168373ffffffffffffffffffffffffffffffffffffffff167fddf252ad1be2c89b69c2b068fc378daa952ba7f163c4a11628f55a4df523b3ef836040518082815260200191505060405180910390a3505050565b6000838311158290613538576040517f08c379a00000000000000000000000000000000000000000000000000000000081526004018080602001828103825283818151815260200191508051906020019080838360005b838110156134fd5780820151818401526020810190506134e2565b50505050905090810190601f16801561352a5780820380516001836020036101000a031916815260200191505b509250505060405180910390fd5b5082840390509392505050565b6000808284019050838110156135c3576040517f08c379a000000000000000000000000000000000000000000000000000000000815260040180806020018281038252601b8152602001807f536166654d6174683a206164646974696f6e206f766572666c6f77000000000081525060200191505060405180910390fd5b8091505092915050565b858560008160ff16101580156135e7575060098160ff1611155b613659576040517f08c379a00000000000000000000000000000000000000000000000000000000081526004018080602001828103825260158152602001807f496e76616c69642056657374696e6720496e646578000000000000000000000081525060200191505060405180910390fd5b600073ffffffffffffffffffffffffffffffffffffffff168273ffffffffffffffffffffffffffffffffffffffff1614156136fc576040517f08c379a000000000000000000000000000000000000000000000000000000000815260040180806020018281038252600f8152602001807f496e76616c69642041646472657373000000000000000000000000000000000081525060200191505060405180910390fd5b60fc60008373ffffffffffffffffffffffffffffffffffffffff1673ffffffffffffffffffffffffffffffffffffffff16815260200190815260200160002060008260ff1660ff16815260200190815260200160002060070160009054906101000a900460ff16156137b9576040517f08c379a00000000000000000000000000000000000000000000000000000000081526004018080602001828103825260338152602001806150576033913960400191505060405180910390fd5b6137c1614e2d565b6040518061014001604052808960ff1681526020018a73ffffffffffffffffffffffffffffffffffffffff168152602001888152602001428152602001868152602001878152602001858152602001600081526020016001151581526020016000151581525090508060fc60008b73ffffffffffffffffffffffffffffffffffffffff1673ffffffffffffffffffffffffffffffffffffffff16815260200190815260200160002060008a60ff1660ff16815260200190815260200160002060008201518160000160006101000a81548160ff021916908360ff16021790555060208201518160000160016101000a81548173ffffffffffffffffffffffffffffffffffffffff021916908373ffffffffffffffffffffffffffffffffffffffff16021790555060408201518160010155606082015181600201556080820151816003015560a0820151816004015560c0820151816005015560e082015181600601556101008201518160070160006101000a81548160ff0219169083151502179055506101208201518160070160016101000a81548160ff021916908315150217905550905050505050505050505050565b60006139813084846131c6565b6001905092915050565b60008083141561399e5760009050613a0b565b60008284029050828482816139af57fe5b0414613a06576040517f08c379a000000000000000000000000000000000000000000000000000000000815260040180806020018281038252602181526020018061508a6021913960400191505060405180910390fd5b809150505b92915050565b6000808211613a88576040517f08c379a000000000000000000000000000000000000000000000000000000000815260040180806020018281038252601a8152602001807f536166654d6174683a206469766973696f6e206279207a65726f00000000000081525060200191505060405180910390fd5b818381613a9157fe5b04905092915050565b600082821115613b12576040517f08c379a000000000000000000000000000000000000000000000000000000000815260040180806020018281038252601e8152602001807f536166654d6174683a207375627472616374696f6e206f766572666c6f77000081525060200191505060405180910390fd5b818303905092915050565b600062278d00905090565b6000613b32614e2d565b60fc60008573ffffffffffffffffffffffffffffffffffffffff1673ffffffffffffffffffffffffffffffffffffffff16815260200190815260200160002060008460ff1660ff168152602001908152602001600020604051806101400160405290816000820160009054906101000a900460ff1660ff1660ff1681526020016000820160019054906101000a900473ffffffffffffffffffffffffffffffffffffffff1673ffffffffffffffffffffffffffffffffffffffff1673ffffffffffffffffffffffffffffffffffffffff1681526020016001820154815260200160028201548152602001600382015481526020016004820154815260200160058201548152602001600682015481526020016007820160009054906101000a900460ff161515151581526020016007820160019054906101000a900460ff161515151581525050905060008160000151905060078160ff1610158015613c9c575060098160ff1611155b613d0e576040517f08c379a00000000000000000000000000000000000000000000000000000000081526004018080602001828103825260178152602001807f496e76616c69642053616c65205665737420496e64657800000000000000000081525060200191505060405180910390fd5b6000613d18610c79565b90506000836060015190506000613d388284613a9a90919063ffffffff16565b90506000613d4461475f565b90506000613d5b8284613a1190919063ffffffff16565b9050600080613d9668056bc75e2d63100000613d888b60c001518c6040015161398b90919063ffffffff16565b613a1190919063ffffffff16565b905060088860ff16141561402657605a83118015613db5575060788311155b15613dfc57613df568056bc75e2d63100000613de76801158e460913d000008c6040015161398b90919063ffffffff16565b613a1190919063ffffffff16565b9150614021565b607883118015613e0d575060968311155b15613eac576000613e4f68056bc75e2d63100000613e416801158e460913d000008d6040015161398b90919063ffffffff16565b613a1190919063ffffffff16565b90506000613e8e68056bc75e2d63100000613e806801158e460913d000008e6040015161398b90919063ffffffff16565b613a1190919063ffffffff16565b9050613ea3828261354590919063ffffffff16565b93505050614020565b609683118015613ebd575060b48311155b15613f5c576000613eff68056bc75e2d63100000613ef168022b1c8c1227a000008d6040015161398b90919063ffffffff16565b613a1190919063ffffffff16565b90506000613f3e68056bc75e2d63100000613f306801158e460913d000008e6040015161398b90919063ffffffff16565b613a1190919063ffffffff16565b9050613f53828261354590919063ffffffff16565b9350505061401f565b60b483118015613f6d575060d28311155b1561400c576000613faf68056bc75e2d63100000613fa1680340aad21b3b7000008d6040015161398b90919063ffffffff16565b613a1190919063ffffffff16565b90506000613fee68056bc75e2d63100000613fe068015af1d78b58c400008e6040015161398b90919063ffffffff16565b613a1190919063ffffffff16565b9050614003828261354590919063ffffffff16565b9350505061401e565b60d283111561401d57886040015191505b5b5b5b5b614200565b60098860ff1614156141ff57605a83118015614043575060788311155b1561408a5761408368056bc75e2d631000006140756801158e460913d000008c6040015161398b90919063ffffffff16565b613a1190919063ffffffff16565b91506141fe565b60788311801561409b575060968311155b1561413a5760006140dd68056bc75e2d631000006140cf6801158e460913d000008d6040015161398b90919063ffffffff16565b613a1190919063ffffffff16565b9050600061411c68056bc75e2d6310000061410e6801a055690d9db800008e6040015161398b90919063ffffffff16565b613a1190919063ffffffff16565b9050614131828261354590919063ffffffff16565b935050506141fd565b60968311801561414b575060b48311155b156141ea57600061418d68056bc75e2d6310000061417f6801158e460913d000008d6040015161398b90919063ffffffff16565b613a1190919063ffffffff16565b905060006141cc68056bc75e2d631000006141be680340aad21b3b7000008e6040015161398b90919063ffffffff16565b613a1190919063ffffffff16565b90506141e1828261354590919063ffffffff16565b935050506141fc565b60b48311156141fb57886040015191505b5b5b5b5b5b6142178960e0015183613a9a90919063ffffffff16565b91508861012001511561423a57614237818361354590919063ffffffff16565b91505b81995050505050505050505092915050565b6000614257306147d8565b15905090565b600060019054906101000a900460ff168061427c575061427b61424c565b5b8061429357506000809054906101000a900460ff16155b6142e8576040517f08c379a000000000000000000000000000000000000000000000000000000000815260040180806020018281038252602e815260200180615029602e913960400191505060405180910390fd5b60008060019054906101000a900460ff161590508015614338576001600060016101000a81548160ff02191690831515021790555060016000806101000a81548160ff0219169083151502179055505b6143406147eb565b6143486148ea565b80156143695760008060016101000a81548160ff0219169083151502179055505b50565b600060019054906101000a900460ff168061438b575061438a61424c565b5b806143a257506000809054906101000a900460ff16155b6143f7576040517f08c379a000000000000000000000000000000000000000000000000000000000815260040180806020018281038252602e815260200180615029602e913960400191505060405180910390fd5b60008060019054906101000a900460ff161590508015614447576001600060016101000a81548160ff02191690831515021790555060016000806101000a81548160ff0219169083151502179055505b61444f6147eb565b6144598383614a92565b801561447a5760008060016101000a81548160ff0219169083151502179055505b505050565b600060019054906101000a900460ff168061449e575061449d61424c565b5b806144b557506000809054906101000a900460ff16155b61450a576040517f08c379a000000000000000000000000000000000000000000000000000000000815260040180806020018281038252602e815260200180615029602e913960400191505060405180910390fd5b60008060019054906101000a900460ff16159050801561455a576001600060016101000a81548160ff02191690831515021790555060016000806101000a81548160ff0219169083151502179055505b6145626147eb565b61456a614bdd565b614572614cf7565b80156145935760008060016101000a81548160ff0219169083151502179055505b50565b600073ffffffffffffffffffffffffffffffffffffffff168273ffffffffffffffffffffffffffffffffffffffff161415614639576040517f08c379a000000000000000000000000000000000000000000000000000000000815260040180806020018281038252601f8152602001807f45524332303a206d696e7420746f20746865207a65726f20616464726573730081525060200191505060405180910390fd5b6146456000838361476a565b61465a8160675461354590919063ffffffff16565b6067819055506146b281606560008573ffffffffffffffffffffffffffffffffffffffff1673ffffffffffffffffffffffffffffffffffffffff1681526020019081526020016000205461354590919063ffffffff16565b606560008473ffffffffffffffffffffffffffffffffffffffff1673ffffffffffffffffffffffffffffffffffffffff168152602001908152602001600020819055508173ffffffffffffffffffffffffffffffffffffffff16600073ffffffffffffffffffffffffffffffffffffffff167fddf252ad1be2c89b69c2b068fc378daa952ba7f163c4a11628f55a4df523b3ef836040518082815260200191505060405180910390a35050565b600062015180905090565b614775838383614df6565b61477d6114a5565b156147d3576040517f08c379a000000000000000000000000000000000000000000000000000000000815260040180806020018281038252602a8152602001806151c1602a913960400191505060405180910390fd5b505050565b600080823b905060008111915050919050565b600060019054906101000a900460ff168061480a575061480961424c565b5b8061482157506000809054906101000a900460ff16155b614876576040517f08c379a000000000000000000000000000000000000000000000000000000000815260040180806020018281038252602e815260200180615029602e913960400191505060405180910390fd5b60008060019054906101000a900460ff1615905080156148c6576001600060016101000a81548160ff02191690831515021790555060016000806101000a81548160ff0219169083151502179055505b80156148e75760008060016101000a81548160ff0219169083151502179055505b50565b600060019054906101000a900460ff1680614909575061490861424c565b5b8061492057506000809054906101000a900460ff16155b614975576040517f08c379a000000000000000000000000000000000000000000000000000000000815260040180806020018281038252602e815260200180615029602e913960400191505060405180910390fd5b60008060019054906101000a900460ff1615905080156149c5576001600060016101000a81548160ff02191690831515021790555060016000806101000a81548160ff0219169083151502179055505b60006149cf612fc7565b905080603360006101000a81548173ffffffffffffffffffffffffffffffffffffffff021916908373ffffffffffffffffffffffffffffffffffffffff1602179055508073ffffffffffffffffffffffffffffffffffffffff16600073ffffffffffffffffffffffffffffffffffffffff167f8be0079c531659141344cd1fd0a4f28419497f9722a3daafe3b4186f6b6457e060405160405180910390a3508015614a8f5760008060016101000a81548160ff0219169083151502179055505b50565b600060019054906101000a900460ff1680614ab15750614ab061424c565b5b80614ac857506000809054906101000a900460ff16155b614b1d576040517f08c379a000000000000000000000000000000000000000000000000000000000815260040180806020018281038252602e815260200180615029602e913960400191505060405180910390fd5b60008060019054906101000a900460ff161590508015614b6d576001600060016101000a81548160ff02191690831515021790555060016000806101000a81548160ff0219169083151502179055505b8260689080519060200190614b83929190614e9d565b508160699080519060200190614b9a929190614e9d565b506012606a60006101000a81548160ff021916908360ff1602179055508015614bd85760008060016101000a81548160ff0219169083151502179055505b505050565b600060019054906101000a900460ff1680614bfc5750614bfb61424c565b5b80614c1357506000809054906101000a900460ff16155b614c68576040517f08c379a000000000000000000000000000000000000000000000000000000000815260040180806020018281038252602e815260200180615029602e913960400191505060405180910390fd5b60008060019054906101000a900460ff161590508015614cb8576001600060016101000a81548160ff02191690831515021790555060016000806101000a81548160ff0219169083151502179055505b6000609760006101000a81548160ff0219169083151502179055508015614cf45760008060016101000a81548160ff0219169083151502179055505b50565b600060019054906101000a900460ff1680614d165750614d1561424c565b5b80614d2d57506000809054906101000a900460ff16155b614d82576040517f08c379a000000000000000000000000000000000000000000000000000000000815260040180806020018281038252602e815260200180615029602e913960400191505060405180910390fd5b60008060019054906101000a900460ff161590508015614dd2576001600060016101000a81548160ff02191690831515021790555060016000806101000a81548160ff0219169083151502179055505b8015614df35760008060016101000a81548160ff0219169083151502179055505b50565b505050565b6040518060a00160405280600060ff168152602001600081526020016000815260200160008152602001600081525090565b604051806101400160405280600060ff168152602001600073ffffffffffffffffffffffffffffffffffffffff1681526020016000815260200160008152602001600081526020016000815260200160008152602001600081526020016000151581526020016000151581525090565b828054600181600116156101000203166002900490600052602060002090601f016020900481019282601f10614ede57805160ff1916838001178555614f0c565b82800160010185558215614f0c579182015b82811115614f0b578251825591602001919060010190614ef0565b5b509050614f199190614f1d565b5090565b614f3f91905b80821115614f3b576000816000905550600101614f23565b5090565b9056fe45524332303a207472616e7366657220746f20746865207a65726f20616464726573734f776e61626c653a206e6577206f776e657220697320746865207a65726f206164647265737345524332303a20617070726f766520746f20746865207a65726f206164647265737345524332303a207472616e7366657220616d6f756e7420657863656564732062616c616e636555736572204e4f5420616464656420746f20616e792056657374696e672043617465676f727956657374696e672043617465676f727920646f65736e27742062656c6f6e6720746f2053414c452056457374696e67496e697469616c697a61626c653a20636f6e747261637420697320616c726561647920696e697469616c697a6564557365722056657374696e672044657461696c7320416c726561647920416464656420746f20746869732043617465676f7279536166654d6174683a206d756c7469706c69636174696f6e206f766572666c6f7745524332303a207472616e7366657220616d6f756e74206578636565647320616c6c6f77616e636554474520546f6b656e73204861766520616c7265616479206265656e20636c61696d656420666f7220476976656e2041646472657373546f6b656e2047656e65726174696f6e204576656e74204e6f7420537461727465642059657445524332303a207472616e736665722066726f6d20746865207a65726f206164647265737345524332303a20617070726f76652066726f6d20746865207a65726f20616464726573734e6f7420456e6f75676820546f6b656e2042616c616e636520696e20436f6e747261637445524332303a2064656372656173656420616c6c6f77616e63652062656c6f77207a65726f45524332305061757361626c653a20746f6b656e207472616e73666572207768696c6520706175736564a26469706673582212204ce5082094755b994c590f03682c112603a8ee3a0b5c5452c7df7ffa95396f1164736f6c63430006020033",
  "source": "pragma solidity 0.6.2;\n// SPDX-License-Identifier: MIT\n\nimport \"@openzeppelin/contracts-upgradeable/token/ERC20/ERC20Upgradeable.sol\";\nimport \"@openzeppelin/contracts-upgradeable/math/SafeMathUpgradeable.sol\";\nimport \"@openzeppelin/contracts-upgradeable/access/OwnableUpgradeable.sol\";\nimport \"@openzeppelin/contracts-upgradeable/proxy/Initializable.sol\";\nimport \"@openzeppelin/contracts-upgradeable/token/ERC20/ERC20PausableUpgradeable.sol\";\nimport \"@openzeppelin/contracts-upgradeable/math/SafeMathUpgradeable.sol\";\n\n\ncontract PlayToken is Initializable,OwnableUpgradeable,ERC20PausableUpgradeable{\n\tusing SafeMathUpgradeable for uint;\n\t/**\n\t * Category 0 - Team\n\t * Category 1 - Operations\n\t * Category 2 - Marketing/Partners\n\t * Category 3 - Advisors\n\t * Category 4 - Staking/Earn Incentives\n\t * Category 5 - Play/Mining\n\t * Category 6 - Reserve\n\t * Category 7 - Seed Sale\n\t * Category 8 - Private 1\n\t * Category 9 - Private 2\n\t */\n\tstruct VestingDetails{\n\t\tuint8 vestingIndex;\n\t\tuint cliff;\n\t\tuint vestingDuration;\n\t\tuint vestPercentage;\n\t\tuint totalAllocatedToken;\n\t}\n\n\tstruct VestAccountDetails{\n\t\tuint8 vestingIndex;\n\t\taddress walletAddress;\n\t\tuint totalAmount;\n\t\tuint startTime;\n\t\tuint vestingDuration;\n\t\tuint vestingCliff;\n\t\tuint vestingPercent;\n\t\tuint totalAmountClaimed;\n\t\tbool isVesting;\n\t\tbool tgeTokensClaimed;\n\t}\n\n\tmapping (uint => VestingDetails) public vestCategory;\n\tmapping(address => mapping(uint8 => VestAccountDetails)) public userToVestingDetails;\n\t\n\tfunction initialize(address _PublicSaleAddress) initializer public{\n\t\t__Ownable_init();\n        __ERC20_init('Playcent','PCNT');\t\t\n\t\t__ERC20Pausable_init();\n\t\t_mint(owner(),57600000 ether);\n\t\t_mint(_PublicSaleAddress,2400000 ether);\n \t\t\n \t\tvestCategory[0] = VestingDetails(0,365 days,973 days,5000000000000000000,9000000 ether); // Team\n\t\tvestCategory[1] = VestingDetails(1,91 days, 395 days,10000000000000000000,4800000 ether); // Operations\n\t\tvestCategory[2] = VestingDetails(2,91 days, 395 days,10000000000000000000,4800000 ether); // Marketing/Partners\n\t\tvestCategory[3] = VestingDetails(3,30 days, 334 days,10000000000000000000,2400000 ether); // Advisors\n\t\tvestCategory[4] = VestingDetails(4,213 days, 334 days,10000000000000000000,4800000 ether); //Staking/Early Incentive Rewards\n\t\tvestCategory[5] = VestingDetails(5,91 days, 852 days,4000000000000000000,9000000 ether); //Play Mining\t\n\t\tvestCategory[6] = VestingDetails(6,182 days, 912 days,1000000000000000000,4200000 ether); //Reserve\t\n\t\t// Sale Vesting Strategies\n\t\tvestCategory[7] = VestingDetails(7,60 days,210 days,10000000000000000000,5700000 ether); // Seed Sale\n\t\tvestCategory[8] = VestingDetails(8,60 days,180 days,15000000000000000000,5400000 ether); // Private Sale 1\n\t\tvestCategory[9] = VestingDetails(9,60 days,150 days,20000000000000000000,5100000 ether); // Private Sale 2\n\t}\n\n\n\tmodifier onlyValidVestingBenifciary(address _userAddresses,uint8 _vestingIndex) { \n\t\trequire(_vestingIndex >= 0 && _vestingIndex <= 9,\"Invalid Vesting Index\");\t\t  \n\t\trequire (_userAddresses != address(0),\"Invalid Address\");\n\t\trequire (!userToVestingDetails[_userAddresses][_vestingIndex].isVesting,\"User Vesting Details Already Added to this Category\");\n\t\t_; \n\t}\n\n\tmodifier checkValidVestingCategory(uint8 _index){ \n\t\trequire(_index >= 0 && _index <= 9,\"Invalid Vesting Index\");\n\t\t_; \n\t}\n\n\tmodifier checkVestingStatus(address _userAddresses,uint8 _vestingIndex){ \n\t \trequire (userToVestingDetails[_userAddresses][_vestingIndex].isVesting,\"User NOT added to any Vesting Category\");\n\t\t_; \n\t}\n\n\tfunction getCurrentTime() public view returns(uint256){\n\t\treturn block.timestamp;\n\t}\t\n\n\tfunction monthInSeconds() internal pure returns(uint256){\t\t\n\t\treturn 2592000;\n\t}\n\t\n\tfunction daysInSeconds() internal pure returns(uint256){\t\t\n\t\treturn 86400;\n\t}\n\n\tfunction  getTgeTIME() public pure returns(uint256){\n\t\treturn 1615746600; // March 15th\n\t}\n\t\n\t/**\n\t * @notice - Allows only the Owner to ADD an array of Addresses as well as their Vesting Amount\n\t \t\t   - The array of user and amounts should be passed along with the vestingCategory Index. \n\t \t\t   - Thus, a particular batch of addresses shall be added under only one Vesting Category Index \n\t * @param _userAddresses array of addresses of the Users\n\t * @param _vestingAmounts array of amounts to be vested\n\t * @param _vestnigType allows the owner to select the type of vesting category\n\t * @return - true if Function executes successfully\n\t */\n\n\tfunction addVestingDetails(address[] calldata _userAddresses, uint256[] calldata _vestingAmounts, uint8 _vestnigType) external onlyOwner returns(bool){\n\t\trequire(_userAddresses.length == _vestingAmounts.length,\"Unequal arrays passed\");\n\n\t\tVestingDetails memory vestData = vestCategory[_vestnigType];\n\t\tuint arrayLength = _userAddresses.length;\n\n\t\tfor(uint i= 0; i<arrayLength; i++){\n\t\t\tuint8 vestingIndex = _vestnigType;\n\t\t\taddress user = _userAddresses[i];\n\t\t\tuint256 amount = _vestingAmounts[i];\n\t\t\tuint256 vestingDuration = vestData.vestingDuration;\n\t\t\tuint256 vestingCliff = vestData.cliff;\n\t\t\tuint256 vestPercent = vestData.vestPercentage;\n\n\n\t\t\taddUserVestingDetails(user,vestingIndex,amount,vestingCliff,vestingDuration,vestPercent);\n\t\t}\n\t\treturn true;\n\t}\n\n\n\t/** @notice - Internal functions that is initializes the VestAccountDetails Struct with the respective arguments passed\n\t * @param _userAddresses addresses of the User\n\t * @param _totalAmount total amount to be lockedUp\n\t * @param _categoryId denotes the type of vesting selected\n\t * @param _vestingCliff denotes the cliff of the vesting category selcted\n\t * @param _vestingDuration denotes the total duration of the vesting category selcted\n\t * @param _vestPercent denotes the percentage of total amount to be vested after cliff period\n\t */\n\t \n\tfunction addUserVestingDetails(address _userAddresses, uint8 _categoryId, uint256 _totalAmount, uint256 _vestingCliff, uint256 _vestingDuration,uint256 _vestPercent) onlyValidVestingBenifciary(_userAddresses,_categoryId) internal{\t\n\t\tVestAccountDetails memory userVestingData = VestAccountDetails(\n\t\t\t_categoryId,\n\t\t\t_userAddresses,\n\t\t\t_totalAmount,\n\t\t\tblock.timestamp,\n\t\t\t_vestingDuration,\n\t\t\t_vestingCliff,\n\t\t\t_vestPercent,\n\t\t\t0,\n\t\t\ttrue,\n\t\t\tfalse\t\n\t\t);\n\t\tuserToVestingDetails[_userAddresses][_categoryId] = userVestingData;\n\t}\n\n\t/**\n\t * @notice Calculates the Variable Rate of Vest depending on the amount of time(months) elapsed\n\t * @param user address of the User  \n\t */\n\tfunction _getSaleVestTokens(address user,uint8 _vestingIndex) internal view returns(uint256){\n\t\tVestAccountDetails memory vestingData = userToVestingDetails[user][_vestingIndex];\n\t\tuint8 category = vestingData.vestingIndex;\n\t\t//Check whether the category id is of any particular Sale(Seed,Private 1 or Private 2)\n\t\trequire(category >= 7 && category <= 9,\"Invalid Sale Vest Index\");\n\n\t\tuint256 currentTime = getCurrentTime();\n\t\tuint256 userStartTime = vestingData.startTime;\n\t\tuint256 timeElapsed = currentTime.sub(userStartTime);\n\t\tuint256 oneDayInSeconds = daysInSeconds();\n\n\t\tuint256 timeElapsedInDays = timeElapsed.div(oneDayInSeconds);\n\t\tuint256 tokensToTransfer;\n\n\t\tuint256 tgeTokens = vestingData.totalAmount.mul(vestingData.vestingPercent).div(100 ether);\n\n\t\t// Calculating tokens to be sent at each duration of time\n\t\tif(category == 8){\n            if(timeElapsedInDays > 90 && timeElapsedInDays <= 120 ){\n            \ttokensToTransfer = vestingData.totalAmount.mul(20 ether).div(100 ether);\n            }else if(timeElapsedInDays > 120 && timeElapsedInDays <= 150){\n            \tuint256 previousTokens = vestingData.totalAmount.mul(20 ether).div(100 ether);\n            \tuint256 currentTokens  = vestingData.totalAmount.mul(20 ether).div(100 ether);\n            \ttokensToTransfer = currentTokens.add(previousTokens);\n            }else if(timeElapsedInDays > 150 && timeElapsedInDays <= 180){\n            \tuint256 previousTokens = vestingData.totalAmount.mul(40 ether).div(100 ether);\n            \tuint256 currentTokens  = vestingData.totalAmount.mul(20 ether).div(100 ether);\n            \ttokensToTransfer = currentTokens.add(previousTokens);\n            }else if(timeElapsedInDays > 180 && timeElapsedInDays <= 210){\n            \tuint256 previousTokens = vestingData.totalAmount.mul(60 ether).div(100 ether);\n            \tuint256 currentTokens  = vestingData.totalAmount.mul(25 ether).div(100 ether);\n            \ttokensToTransfer = currentTokens.add(previousTokens);\n            }else if(timeElapsedInDays > 210){\n            \ttokensToTransfer = vestingData.totalAmount;\n            }\n\t\t}else if(category == 9){\n            if(timeElapsedInDays > 90 && timeElapsedInDays <= 120 ){\n            \ttokensToTransfer = vestingData.totalAmount.mul(20 ether).div(100 ether);\n\n            }else if(timeElapsedInDays > 120 && timeElapsedInDays <= 150 ){\n            \tuint256 previousTokens = vestingData.totalAmount.mul(20 ether).div(100 ether);\n            \tuint256 currentTokens = vestingData.totalAmount.mul(30 ether).div(100 ether);\n            \ttokensToTransfer = currentTokens.add(previousTokens);\n\n            }else if(timeElapsedInDays > 150 && timeElapsedInDays <= 180){\n            \tuint256 previousTokens = vestingData.totalAmount.mul(20 ether).div(100 ether);\n            \tuint256 currentTokens = vestingData.totalAmount.mul(60 ether).div(100 ether);\n            \ttokensToTransfer = currentTokens.add(previousTokens);\n            }else if(timeElapsedInDays > 180){\n            \ttokensToTransfer = vestingData.totalAmount;\n            }\n\t\t}\n\t\t// Total tokens to be transferred should be subtracted by the total tokens already claimed by the User\n\t\ttokensToTransfer = tokensToTransfer.sub(vestingData.totalAmountClaimed);\n\t\tif(vestingData.tgeTokensClaimed){\n\t\t\ttokensToTransfer = tokensToTransfer.add(tgeTokens);\n\t\t}\n\t\treturn tokensToTransfer;\n\t}\n\n\tfunction getVestingRate(address _userAddresses,uint8 _vestingIndex) public checkVestingStatus(_userAddresses,_vestingIndex) view returns(uint256){\n\t\tuint256 vestRate;\n\t\tVestAccountDetails memory vestData = userToVestingDetails[_userAddresses][_vestingIndex];\n\n\t\tuint256 currentTime = getCurrentTime();\n\t\tuint256 userStartTime = vestData.startTime;\n\t\tuint256 timeElapsed = currentTime.sub(userStartTime);\n\t\tuint256 oneDayInSeconds = daysInSeconds();\n\n\t\tuint256 timeElapsedInDays = timeElapsed.div(oneDayInSeconds);\n\n\t\tif(vestData.vestingIndex <= 6){\n\t \t\tvestRate = vestData.vestingPercent;\n\t \t}else if(vestData.vestingIndex == 7){\n\t \t\tif(timeElapsedInDays > 90 && timeElapsedInDays <= 240)\n\t \t\tvestRate = 15 ether;\n\t \t}\n\n\t \treturn vestRate;\n\t}\n\t\n   /**\n\t * @notice Calculates the amount of tokens to be transferred at any given point of time\n\t * @param _userAddresses address of the User  \n\t */\n\t function calculateClaimableTokens(address _userAddresses,uint8 _vestingIndex) public view checkVestingStatus(_userAddresses,_vestingIndex) returns(uint256){\t \t\n\t \t// Get Vesting Details\n\t \tVestAccountDetails memory vestData = userToVestingDetails[_userAddresses][_vestingIndex];\n\t \t\n\t \tuint256 vestRate;\n\t \tuint256 totalClaimableAmount;\n\t \tuint256 vestStartTime = vestData.startTime;\n\t \tuint256 currentTime = getCurrentTime();\n\t \tuint256 vestCliff = vestStartTime.add(vestData.vestingCliff);\n\t \tuint256 vestDuration = vestStartTime.add(vestData.vestingDuration);\n\t \t\n\t \t\n\t \tuint256 timeElapsed = currentTime.sub(vestStartTime);\n\t \tuint256 oneMonthInSeconds = monthInSeconds();\n\n\t\tif(vestData.vestingIndex <= 7){\n\t\t\t vestRate = getVestingRate(_userAddresses,_vestingIndex);\n\n\t\t\t// Finally check the Claimable Amount by comparing the timeElapsed with the Current Time\n\t\tif(currentTime < vestCliff){  // If Vesting Cliff is not reached yet\n\t \t\treturn 0;\n\t \t}else if(currentTime > vestDuration){ // If total duration of Vesting already crossed\n\t \t\ttotalClaimableAmount = vestData.totalAmount.sub(vestData.totalAmountClaimed);\n\t \t}else{ // if current time has crossed the Vesting Cliff but not the total Vesting Duration\n\t \t\t\n\t \t\tuint256 amountPerMonth = (vestData.totalAmount.mul(vestRate)).div(100000000000000000000);\n\t \t\tuint256 totalMonthsElapsed = timeElapsed.div(oneMonthInSeconds);\n\t \t\t\n\t \t\t// Calculating Actual Months(Excluding the CLIFF) to initiate vesting\n\t \t\t\n\t \t\tuint actualMonthElapsed = totalMonthsElapsed.sub(vestData.vestingCliff.div(oneMonthInSeconds)); \n\t \t\trequire (actualMonthElapsed > 0,\"Number of months elapsed is ZERO\");\n\t \t\ttotalClaimableAmount = (amountPerMonth.mul(actualMonthElapsed)).sub(vestData.totalAmountClaimed);\n\t \t}\n\n\t\t}else{\n\t\t\t uint256 tokensToTransfer = _getSaleVestTokens(_userAddresses,_vestingIndex);\n\t\t\t totalClaimableAmount = tokensToTransfer;\n\t\t}\n\t \t\n\t \treturn totalClaimableAmount;\n\n\t }\n\t \n\n   /**\n\t * @notice An Internal Function to transfer tokens from this contract to the user\n\t * @param _beneficiary address of the User  \n\t * @param _amountOfTokens number of tokens to be transferred\n\t */\n\tfunction _sendTokens(address _beneficiary, uint256 _amountOfTokens) internal returns(bool){\n\t\t_transfer(address(this),_beneficiary,_amountOfTokens);\n\t\treturn true;\n\t}\n\n\t/**\n\t * @notice Calculates and Transfer the total tokens to be transferred to the user after Token Generation Event is over\n\t * @dev The function shall only work for users under Sale Vesting Category(index - 7,8,9). \n\t * @dev The function can only be called once by the user(only if the tgeTokensClaimed boolean value is FALSE). \n\t * Once the tokens have been transferred, tgeTokensClaimed becomes TRUE for that particular address\n\t * @param _userAddresses address of the User  \n\t */\n\tfunction  claimTGETokens(address _userAddresses,uint8 _vestingIndex) external checkVestingStatus(_userAddresses,_vestingIndex) returns(bool){\n\t\tuint256 currentTime = getCurrentTime();\n\t\trequire (currentTime>getTgeTIME(), \"Token Generation Event Not Started Yet\");\n\t\t// Get Vesting Details\n\t \tVestAccountDetails memory vestData = userToVestingDetails[_userAddresses][_vestingIndex];\n\n\t \trequire (vestData.vestingIndex >= 7 && vestData.vestingIndex <= 9, \"Vesting Category doesn't belong to SALE VEsting\" );\n\t \trequire (vestData.tgeTokensClaimed == false, \"TGE Tokens Have already been claimed for Given Address\");\n\t \t\n\t \tuint256 totalAmount = vestData.totalAmount;\n\t \tuint256 vestRate = vestData.vestingPercent;\n\n\t \tuint256 tokensToTransfer = totalAmount.mul(vestRate).div(100000000000000000000);\n\n\t \t// Updating Contract State\n\t \tvestData.totalAmountClaimed += tokensToTransfer;\n\t\tvestData.tgeTokensClaimed = true;\n\t\tuserToVestingDetails[_userAddresses][_vestingIndex] = vestData;\n\t\t_sendTokens(_userAddresses,tokensToTransfer);\n\n\n\t}\n\t\n\t/**\n\t * @notice Calculates and Transfers the total tokens to be transferred to the user by calculating the Amount of tokens to be transferred at the given time\n\t * @dev The function shall only work for users under Vesting Category is valid(index - 1 to 9). \n\t * @dev isVesting becomes false if all allocated tokens have been claimed.\n\t * @dev User cannot claim more tokens than actually allocated to them by the OWNER\n\t * @param _userAddresses address of the User  \n\t */\n\tfunction claimVestTokens(address _userAddresses,uint8 _vestingIndex) external checkVestingStatus(_userAddresses,_vestingIndex) returns(bool){\n\t\t// Get Vesting Details\n\t \tVestAccountDetails memory vestData = userToVestingDetails[_userAddresses][_vestingIndex];\n\t\t\n\t\t// Get total token amount to be transferred\n\t\tuint256 tokensToTransfer = calculateClaimableTokens(_userAddresses,_vestingIndex);\n\t\trequire (tokensToTransfer > 0,\"No tokens to transfer\");\n\t\tuint256 contractTokenBalance = balanceOf(address(this));\n\t\trequire(contractTokenBalance > tokensToTransfer,\"Not Enough Token Balance in Contract\");\n\t\trequire(vestData.totalAmountClaimed.add(tokensToTransfer) <= vestData.totalAmount,\"Cannot Claim more than Allocated\");\n\t\t\n\t\tvestData.totalAmountClaimed += tokensToTransfer;\n\t\tif(vestData.totalAmountClaimed == vestData.totalAmount){\n\t\t\tvestData.isVesting = false;\n\t\t}\n\t\tuserToVestingDetails[_userAddresses][_vestingIndex] = vestData;\n\t\t_sendTokens(_userAddresses,tokensToTransfer);\n\t}\n}",
  "sourcePath": "/home/zaryab/blockchain_begins/all_about_ethereum/quillHash_CODES/bloqueLabs/playcentToken/contracts/tokenERC.sol",
  "compiler": {
    "name": "solc",
    "version": "0.6.2+commit.bacdbe57.Linux.g++"
  },
  "schemaVersion": "3.3.3",
  "updatedAt": "2021-02-27T14:46:50.759Z",
  "networkType": "ethereum",
  "devdoc": {
    "methods": {
      "addVestingDetails(address[],uint256[],uint8)": {
        "params": {
          "_userAddresses": "array of addresses of the Users",
          "_vestingAmounts": "array of amounts to be vested",
          "_vestnigType": "allows the owner to select the type of vesting category"
        },
        "returns": {
          "_0": "- true if Function executes successfully"
        }
      },
      "allowance(address,address)": {
        "details": "See {IERC20-allowance}."
      },
      "approve(address,uint256)": {
        "details": "See {IERC20-approve}.     * Requirements:     * - `spender` cannot be the zero address."
      },
      "balanceOf(address)": {
        "details": "See {IERC20-balanceOf}."
      },
      "calculateClaimableTokens(address,uint8)": {
        "params": {
          "_userAddresses": "address of the User  "
        }
      },
      "claimTGETokens(address,uint8)": {
        "details": "The function shall only work for users under Sale Vesting Category(index - 7,8,9). The function can only be called once by the user(only if the tgeTokensClaimed boolean value is FALSE).  Once the tokens have been transferred, tgeTokensClaimed becomes TRUE for that particular address",
        "params": {
          "_userAddresses": "address of the User  "
        }
      },
      "claimVestTokens(address,uint8)": {
        "details": "The function shall only work for users under Vesting Category is valid(index - 1 to 9). isVesting becomes false if all allocated tokens have been claimed.User cannot claim more tokens than actually allocated to them by the OWNER",
        "params": {
          "_userAddresses": "address of the User  "
        }
      },
      "decimals()": {
        "details": "Returns the number of decimals used to get its user representation. For example, if `decimals` equals `2`, a balance of `505` tokens should be displayed to a user as `5,05` (`505 / 10 ** 2`).     * Tokens usually opt for a value of 18, imitating the relationship between Ether and Wei. This is the value {ERC20} uses, unless {_setupDecimals} is called.     * NOTE: This information is only used for _display_ purposes: it in no way affects any of the arithmetic of the contract, including {IERC20-balanceOf} and {IERC20-transfer}."
      },
      "decreaseAllowance(address,uint256)": {
        "details": "Atomically decreases the allowance granted to `spender` by the caller.     * This is an alternative to {approve} that can be used as a mitigation for problems described in {IERC20-approve}.     * Emits an {Approval} event indicating the updated allowance.     * Requirements:     * - `spender` cannot be the zero address. - `spender` must have allowance for the caller of at least `subtractedValue`."
      },
      "increaseAllowance(address,uint256)": {
        "details": "Atomically increases the allowance granted to `spender` by the caller.     * This is an alternative to {approve} that can be used as a mitigation for problems described in {IERC20-approve}.     * Emits an {Approval} event indicating the updated allowance.     * Requirements:     * - `spender` cannot be the zero address."
      },
      "name()": {
        "details": "Returns the name of the token."
      },
      "owner()": {
        "details": "Returns the address of the current owner."
      },
      "paused()": {
        "details": "Returns true if the contract is paused, and false otherwise."
      },
      "renounceOwnership()": {
        "details": "Leaves the contract without owner. It will not be possible to call `onlyOwner` functions anymore. Can only be called by the current owner.     * NOTE: Renouncing ownership will leave the contract without an owner, thereby removing any functionality that is only available to the owner."
      },
      "symbol()": {
        "details": "Returns the symbol of the token, usually a shorter version of the name."
      },
      "totalSupply()": {
        "details": "See {IERC20-totalSupply}."
      },
      "transfer(address,uint256)": {
        "details": "See {IERC20-transfer}.     * Requirements:     * - `recipient` cannot be the zero address. - the caller must have a balance of at least `amount`."
      },
      "transferFrom(address,address,uint256)": {
        "details": "See {IERC20-transferFrom}.     * Emits an {Approval} event indicating the updated allowance. This is not required by the EIP. See the note at the beginning of {ERC20}.     * Requirements:     * - `sender` and `recipient` cannot be the zero address. - `sender` must have a balance of at least `amount`. - the caller must have allowance for ``sender``'s tokens of at least `amount`."
      },
      "transferOwnership(address)": {
        "details": "Transfers ownership of the contract to a new account (`newOwner`). Can only be called by the current owner."
      }
    }
  },
  "userdoc": {
    "methods": {
      "addVestingDetails(address[],uint256[],uint8)": {
        "notice": "- Allows only the Owner to ADD an array of Addresses as well as their Vesting Amount - The array of user and amounts should be passed along with the vestingCategory Index.  - Thus, a particular batch of addresses shall be added under only one Vesting Category Index "
      },
      "calculateClaimableTokens(address,uint8)": {
        "notice": "Calculates the amount of tokens to be transferred at any given point of time"
      },
      "claimTGETokens(address,uint8)": {
        "notice": "Calculates and Transfer the total tokens to be transferred to the user after Token Generation Event is over"
      },
      "claimVestTokens(address,uint8)": {
        "notice": "Calculates and Transfers the total tokens to be transferred to the user by calculating the Amount of tokens to be transferred at the given time"
      }
    }
  }
}