{
  "contractName": "PlaycentTokenV1",
  "abi": [
    {
      "anonymous": false,
      "inputs": [
        {
          "indexed": true,
          "internalType": "address",
          "name": "owner",
          "type": "address"
        },
        {
          "indexed": true,
          "internalType": "address",
          "name": "spender",
          "type": "address"
        },
        {
          "indexed": false,
          "internalType": "uint256",
          "name": "value",
          "type": "uint256"
        }
      ],
      "name": "Approval",
      "type": "event"
    },
    {
      "anonymous": false,
      "inputs": [
        {
          "indexed": true,
          "internalType": "address",
          "name": "previousOwner",
          "type": "address"
        },
        {
          "indexed": true,
          "internalType": "address",
          "name": "newOwner",
          "type": "address"
        }
      ],
      "name": "OwnershipTransferred",
      "type": "event"
    },
    {
      "anonymous": false,
      "inputs": [
        {
          "indexed": false,
          "internalType": "address",
          "name": "account",
          "type": "address"
        }
      ],
      "name": "Paused",
      "type": "event"
    },
    {
      "anonymous": false,
      "inputs": [
        {
          "indexed": true,
          "internalType": "address",
          "name": "from",
          "type": "address"
        },
        {
          "indexed": true,
          "internalType": "address",
          "name": "to",
          "type": "address"
        },
        {
          "indexed": false,
          "internalType": "uint256",
          "name": "value",
          "type": "uint256"
        }
      ],
      "name": "Transfer",
      "type": "event"
    },
    {
      "anonymous": false,
      "inputs": [
        {
          "indexed": false,
          "internalType": "address",
          "name": "account",
          "type": "address"
        }
      ],
      "name": "Unpaused",
      "type": "event"
    },
    {
      "inputs": [
        {
          "internalType": "address",
          "name": "owner",
          "type": "address"
        },
        {
          "internalType": "address",
          "name": "spender",
          "type": "address"
        }
      ],
      "name": "allowance",
      "outputs": [
        {
          "internalType": "uint256",
          "name": "",
          "type": "uint256"
        }
      ],
      "stateMutability": "view",
      "type": "function",
      "constant": true
    },
    {
      "inputs": [
        {
          "internalType": "address",
          "name": "spender",
          "type": "address"
        },
        {
          "internalType": "uint256",
          "name": "amount",
          "type": "uint256"
        }
      ],
      "name": "approve",
      "outputs": [
        {
          "internalType": "bool",
          "name": "",
          "type": "bool"
        }
      ],
      "stateMutability": "nonpayable",
      "type": "function"
    },
    {
      "inputs": [
        {
          "internalType": "address",
          "name": "account",
          "type": "address"
        }
      ],
      "name": "balanceOf",
      "outputs": [
        {
          "internalType": "uint256",
          "name": "",
          "type": "uint256"
        }
      ],
      "stateMutability": "view",
      "type": "function",
      "constant": true
    },
    {
      "inputs": [],
      "name": "decimals",
      "outputs": [
        {
          "internalType": "uint8",
          "name": "",
          "type": "uint8"
        }
      ],
      "stateMutability": "view",
      "type": "function",
      "constant": true
    },
    {
      "inputs": [
        {
          "internalType": "address",
          "name": "spender",
          "type": "address"
        },
        {
          "internalType": "uint256",
          "name": "subtractedValue",
          "type": "uint256"
        }
      ],
      "name": "decreaseAllowance",
      "outputs": [
        {
          "internalType": "bool",
          "name": "",
          "type": "bool"
        }
      ],
      "stateMutability": "nonpayable",
      "type": "function"
    },
    {
      "inputs": [
        {
          "internalType": "address",
          "name": "spender",
          "type": "address"
        },
        {
          "internalType": "uint256",
          "name": "addedValue",
          "type": "uint256"
        }
      ],
      "name": "increaseAllowance",
      "outputs": [
        {
          "internalType": "bool",
          "name": "",
          "type": "bool"
        }
      ],
      "stateMutability": "nonpayable",
      "type": "function"
    },
    {
      "inputs": [],
      "name": "name",
      "outputs": [
        {
          "internalType": "string",
          "name": "",
          "type": "string"
        }
      ],
      "stateMutability": "view",
      "type": "function",
      "constant": true
    },
    {
      "inputs": [],
      "name": "owner",
      "outputs": [
        {
          "internalType": "address",
          "name": "",
          "type": "address"
        }
      ],
      "stateMutability": "view",
      "type": "function",
      "constant": true
    },
    {
      "inputs": [],
      "name": "paused",
      "outputs": [
        {
          "internalType": "bool",
          "name": "",
          "type": "bool"
        }
      ],
      "stateMutability": "view",
      "type": "function",
      "constant": true
    },
    {
      "inputs": [],
      "name": "renounceOwnership",
      "outputs": [],
      "stateMutability": "nonpayable",
      "type": "function"
    },
    {
      "inputs": [],
      "name": "symbol",
      "outputs": [
        {
          "internalType": "string",
          "name": "",
          "type": "string"
        }
      ],
      "stateMutability": "view",
      "type": "function",
      "constant": true
    },
    {
      "inputs": [],
      "name": "totalSupply",
      "outputs": [
        {
          "internalType": "uint256",
          "name": "",
          "type": "uint256"
        }
      ],
      "stateMutability": "view",
      "type": "function",
      "constant": true
    },
    {
      "inputs": [
        {
          "internalType": "address",
          "name": "recipient",
          "type": "address"
        },
        {
          "internalType": "uint256",
          "name": "amount",
          "type": "uint256"
        }
      ],
      "name": "transfer",
      "outputs": [
        {
          "internalType": "bool",
          "name": "",
          "type": "bool"
        }
      ],
      "stateMutability": "nonpayable",
      "type": "function"
    },
    {
      "inputs": [
        {
          "internalType": "address",
          "name": "sender",
          "type": "address"
        },
        {
          "internalType": "address",
          "name": "recipient",
          "type": "address"
        },
        {
          "internalType": "uint256",
          "name": "amount",
          "type": "uint256"
        }
      ],
      "name": "transferFrom",
      "outputs": [
        {
          "internalType": "bool",
          "name": "",
          "type": "bool"
        }
      ],
      "stateMutability": "nonpayable",
      "type": "function"
    },
    {
      "inputs": [
        {
          "internalType": "address",
          "name": "newOwner",
          "type": "address"
        }
      ],
      "name": "transferOwnership",
      "outputs": [],
      "stateMutability": "nonpayable",
      "type": "function"
    },
    {
      "inputs": [
        {
          "internalType": "uint256",
          "name": "",
          "type": "uint256"
        }
      ],
      "name": "vestTypes",
      "outputs": [
        {
          "internalType": "uint8",
          "name": "indexId",
          "type": "uint8"
        },
        {
          "internalType": "uint8",
          "name": "lockPeriod",
          "type": "uint8"
        },
        {
          "internalType": "uint8",
          "name": "vestingDuration",
          "type": "uint8"
        },
        {
          "internalType": "uint8",
          "name": "tgePercent",
          "type": "uint8"
        },
        {
          "internalType": "uint8",
          "name": "monthlyPercent",
          "type": "uint8"
        },
        {
          "internalType": "uint256",
          "name": "totalTokenAllocation",
          "type": "uint256"
        }
      ],
      "stateMutability": "view",
      "type": "function",
      "constant": true
    },
    {
      "inputs": [
        {
          "internalType": "address",
          "name": "",
          "type": "address"
        },
        {
          "internalType": "uint8",
          "name": "",
          "type": "uint8"
        }
      ],
      "name": "walletToVestAllocations",
      "outputs": [
        {
          "internalType": "uint8",
          "name": "vestIndexID",
          "type": "uint8"
        },
        {
          "internalType": "uint256",
          "name": "totalTokensAllocated",
          "type": "uint256"
        },
        {
          "internalType": "uint256",
          "name": "totalTGETokens",
          "type": "uint256"
        },
        {
          "internalType": "uint256",
          "name": "monthlyTokens",
          "type": "uint256"
        },
        {
          "internalType": "uint8",
          "name": "vestingDuration",
          "type": "uint8"
        },
        {
          "internalType": "uint8",
          "name": "lockPeriod",
          "type": "uint8"
        },
        {
          "internalType": "uint256",
          "name": "totalVestTokensClaimed",
          "type": "uint256"
        },
        {
          "internalType": "bool",
          "name": "isVesting",
          "type": "bool"
        },
        {
          "internalType": "bool",
          "name": "isTgeTokensClaimed",
          "type": "bool"
        },
        {
          "internalType": "uint256",
          "name": "startTime",
          "type": "uint256"
        }
      ],
      "stateMutability": "view",
      "type": "function",
      "constant": true
    },
    {
      "inputs": [
        {
          "internalType": "address",
          "name": "_PublicSaleAddress",
          "type": "address"
        }
      ],
      "name": "initialize",
      "outputs": [],
      "stateMutability": "nonpayable",
      "type": "function"
    },
    {
      "inputs": [],
      "name": "getCurrentTime",
      "outputs": [
        {
          "internalType": "uint256",
          "name": "",
          "type": "uint256"
        }
      ],
      "stateMutability": "view",
      "type": "function",
      "constant": true
    },
    {
      "inputs": [],
      "name": "getTgeTIME",
      "outputs": [
        {
          "internalType": "uint256",
          "name": "",
          "type": "uint256"
        }
      ],
      "stateMutability": "pure",
      "type": "function",
      "constant": true
    },
    {
      "inputs": [
        {
          "internalType": "uint256",
          "name": "_totalAmount",
          "type": "uint256"
        },
        {
          "internalType": "uint256",
          "name": "_rate",
          "type": "uint256"
        }
      ],
      "name": "percentage",
      "outputs": [
        {
          "internalType": "uint256",
          "name": "",
          "type": "uint256"
        }
      ],
      "stateMutability": "pure",
      "type": "function",
      "constant": true
    },
    {
      "inputs": [
        {
          "internalType": "address[]",
          "name": "_userAddresses",
          "type": "address[]"
        },
        {
          "internalType": "uint256[]",
          "name": "_vestingAmounts",
          "type": "uint256[]"
        },
        {
          "internalType": "uint8",
          "name": "_vestnigType",
          "type": "uint8"
        }
      ],
      "name": "addVestingDetails",
      "outputs": [
        {
          "internalType": "bool",
          "name": "",
          "type": "bool"
        }
      ],
      "stateMutability": "nonpayable",
      "type": "function"
    },
    {
      "inputs": [
        {
          "internalType": "address",
          "name": "_userAddresses",
          "type": "address"
        },
        {
          "internalType": "uint8",
          "name": "_vestingIndex",
          "type": "uint8"
        }
      ],
      "name": "totalTokensClaimed",
      "outputs": [
        {
          "internalType": "uint256",
          "name": "",
          "type": "uint256"
        }
      ],
      "stateMutability": "view",
      "type": "function",
      "constant": true
    },
    {
      "inputs": [
        {
          "internalType": "address",
          "name": "_userAddresses",
          "type": "address"
        },
        {
          "internalType": "uint8",
          "name": "_vestingIndex",
          "type": "uint8"
        }
      ],
      "name": "calculateClaimableTokens",
      "outputs": [
        {
          "internalType": "uint256",
          "name": "",
          "type": "uint256"
        }
      ],
      "stateMutability": "view",
      "type": "function",
      "constant": true
    },
    {
      "inputs": [
        {
          "internalType": "address",
          "name": "_userAddresses",
          "type": "address"
        },
        {
          "internalType": "uint8",
          "name": "_vestingIndex",
          "type": "uint8"
        }
      ],
      "name": "claimTGETokensOnlyOwner",
      "outputs": [
        {
          "internalType": "bool",
          "name": "",
          "type": "bool"
        }
      ],
      "stateMutability": "nonpayable",
      "type": "function"
    },
    {
      "inputs": [
        {
          "internalType": "uint8",
          "name": "_vestingIndex",
          "type": "uint8"
        }
      ],
      "name": "claimTGETokens",
      "outputs": [
        {
          "internalType": "bool",
          "name": "",
          "type": "bool"
        }
      ],
      "stateMutability": "nonpayable",
      "type": "function"
    },
    {
      "inputs": [
        {
          "internalType": "address",
          "name": "_userAddresses",
          "type": "address"
        },
        {
          "internalType": "uint8",
          "name": "_vestingIndex",
          "type": "uint8"
        },
        {
          "internalType": "uint256",
          "name": "_tokenAmount",
          "type": "uint256"
        }
      ],
      "name": "_claimVestTokens",
      "outputs": [
        {
          "internalType": "bool",
          "name": "",
          "type": "bool"
        }
      ],
      "stateMutability": "nonpayable",
      "type": "function"
    },
    {
      "inputs": [],
      "name": "withdrawContractTokens",
      "outputs": [
        {
          "internalType": "bool",
          "name": "",
          "type": "bool"
        }
      ],
      "stateMutability": "nonpayable",
      "type": "function"
    }
  ],
  "bytecode": "0x608060405234801561001057600080fd5b506152f6806100206000396000f3fe608060405234801561001057600080fd5b50600436106101e1576000357c010000000000000000000000000000000000000000000000000000000090048063715018a611610116578063a9059cbb116100b4578063d6a2ba871161008e578063d6a2ba8714610a53578063dd62ed3e14610ac6578063f2fde38b14610b3e578063f70c12d314610b82576101e1565b8063a9059cbb1461098b578063b09ee193146109f1578063c4d66de814610a0f576101e1565b806393018547116100f0578063930185471461079b578063943e7b7b1461085957806395d89b41146108a2578063a457c2d714610925576101e1565b8063715018a6146106e25780638da5cb5b146106ec5780638f9335e414610736576101e1565b8063313ce56711610183578063395093511161015d578063395093511461050f57806352985d2a146105755780635c975abb1461066857806370a082311461068a576101e1565b8063313ce567146103ff578063316fb2f51461042357806337285ee9146104a6576101e1565b806318160ddd116101bf57806318160ddd1461031b57806323b872dd1461033957806329cb924d146103bf5780632fe47163146103dd576101e1565b8063016eb8a8146101e657806306fdde0314610232578063095ea7b3146102b5575b600080fd5b61021c600480360360408110156101fc57600080fd5b810190808035906020019092919080359060200190929190505050610be7565b6040518082815260200191505060405180910390f35b61023a610c17565b6040518080602001828103825283818151815260200191508051906020019080838360005b8381101561027a57808201518184015260208101905061025f565b50505050905090810190601f1680156102a75780820380516001836020036101000a031916815260200191505b509250505060405180910390f35b610301600480360360408110156102cb57600080fd5b81019080803573ffffffffffffffffffffffffffffffffffffffff16906020019092919080359060200190929190505050610cb9565b604051808215151515815260200191505060405180910390f35b610323610cd7565b6040518082815260200191505060405180910390f35b6103a56004803603606081101561034f57600080fd5b81019080803573ffffffffffffffffffffffffffffffffffffffff169060200190929190803573ffffffffffffffffffffffffffffffffffffffff16906020019092919080359060200190929190505050610ce1565b604051808215151515815260200191505060405180910390f35b6103c7610dba565b6040518082815260200191505060405180910390f35b6103e5610dc2565b604051808215151515815260200191505060405180910390f35b610407610e96565b604051808260ff1660ff16815260200191505060405180910390f35b61044f6004803603602081101561043957600080fd5b8101908080359060200190929190505050610ead565b604051808760ff1660ff1681526020018660ff1660ff1681526020018560ff1660ff1681526020018460ff1660ff1681526020018360ff1660ff168152602001828152602001965050505050505060405180910390f35b6104f5600480360360408110156104bc57600080fd5b81019080803573ffffffffffffffffffffffffffffffffffffffff169060200190929190803560ff169060200190929190505050610f2a565b604051808215151515815260200191505060405180910390f35b61055b6004803603604081101561052557600080fd5b81019080803573ffffffffffffffffffffffffffffffffffffffff16906020019092919080359060200190929190505050610fec565b604051808215151515815260200191505060405180910390f35b61064e6004803603606081101561058b57600080fd5b81019080803590602001906401000000008111156105a857600080fd5b8201836020820111156105ba57600080fd5b803590602001918460208302840111640100000000831117156105dc57600080fd5b9091929391929390803590602001906401000000008111156105fd57600080fd5b82018360208201111561060f57600080fd5b8035906020019184602083028401116401000000008311171561063157600080fd5b9091929391929390803560ff16906020019092919050505061109f565b604051808215151515815260200191505060405180910390f35b61067061135f565b604051808215151515815260200191505060405180910390f35b6106cc600480360360208110156106a057600080fd5b81019080803573ffffffffffffffffffffffffffffffffffffffff169060200190929190505050611376565b6040518082815260200191505060405180910390f35b6106ea6113bf565b005b6106f461152f565b604051808273ffffffffffffffffffffffffffffffffffffffff1673ffffffffffffffffffffffffffffffffffffffff16815260200191505060405180910390f35b6107856004803603604081101561074c57600080fd5b81019080803573ffffffffffffffffffffffffffffffffffffffff169060200190929190803560ff169060200190929190505050611559565b6040518082815260200191505060405180910390f35b6107ea600480360360408110156107b157600080fd5b81019080803573ffffffffffffffffffffffffffffffffffffffff169060200190929190803560ff169060200190929190505050611a78565b604051808b60ff1660ff1681526020018a81526020018981526020018881526020018760ff1660ff1681526020018660ff1660ff16815260200185815260200184151515158152602001831515151581526020018281526020019a505050505050505050505060405180910390f35b6108886004803603602081101561086f57600080fd5b81019080803560ff169060200190929190505050611b1a565b604051808215151515815260200191505060405180910390f35b6108aa611b2c565b6040518080602001828103825283818151815260200191508051906020019080838360005b838110156108ea5780820151818401526020810190506108cf565b50505050905090810190601f1680156109175780820380516001836020036101000a031916815260200191505b509250505060405180910390f35b6109716004803603604081101561093b57600080fd5b81019080803573ffffffffffffffffffffffffffffffffffffffff16906020019092919080359060200190929190505050611bce565b604051808215151515815260200191505060405180910390f35b6109d7600480360360408110156109a157600080fd5b81019080803573ffffffffffffffffffffffffffffffffffffffff16906020019092919080359060200190929190505050611c9b565b604051808215151515815260200191505060405180910390f35b6109f9611cb9565b6040518082815260200191505060405180910390f35b610a5160048036036020811015610a2557600080fd5b81019080803573ffffffffffffffffffffffffffffffffffffffff169060200190929190505050611cc5565b005b610aac60048036036060811015610a6957600080fd5b81019080803573ffffffffffffffffffffffffffffffffffffffff169060200190929190803560ff1690602001909291908035906020019092919050505061292d565b604051808215151515815260200191505060405180910390f35b610b2860048036036040811015610adc57600080fd5b81019080803573ffffffffffffffffffffffffffffffffffffffff169060200190929190803573ffffffffffffffffffffffffffffffffffffffff169060200190929190505050612e60565b6040518082815260200191505060405180910390f35b610b8060048036036020811015610b5457600080fd5b81019080803573ffffffffffffffffffffffffffffffffffffffff169060200190929190505050612ee7565b005b610bd160048036036040811015610b9857600080fd5b81019080803573ffffffffffffffffffffffffffffffffffffffff169060200190929190803560ff1690602001909291905050506130dc565b6040518082815260200191505060405180910390f35b6000610c0f6064610c01848661325390919063ffffffff16565b6132d990919063ffffffff16565b905092915050565b606060688054600181600116156101000203166002900480601f016020809104026020016040519081016040528092919081815260200182805460018160011615610100020316600290048015610caf5780601f10610c8457610100808354040283529160200191610caf565b820191906000526020600020905b815481529060010190602001808311610c9257829003601f168201915b5050505050905090565b6000610ccd610cc6613362565b848461336a565b6001905092915050565b6000606754905090565b6000610cee848484613561565b610daf84610cfa613362565b610daa8560405180606001604052806028815260200161515760289139606660008b73ffffffffffffffffffffffffffffffffffffffff1673ffffffffffffffffffffffffffffffffffffffff1681526020019081526020016000206000610d60613362565b73ffffffffffffffffffffffffffffffffffffffff1673ffffffffffffffffffffffffffffffffffffffff168152602001908152602001600020546138269092919063ffffffff16565b61336a565b600190509392505050565b600042905090565b6000610dcc613362565b73ffffffffffffffffffffffffffffffffffffffff16610dea61152f565b73ffffffffffffffffffffffffffffffffffffffff1614610e73576040517f08c379a00000000000000000000000000000000000000000000000000000000081526004018080602001828103825260208152602001807f4f776e61626c653a2063616c6c6572206973206e6f7420746865206f776e657281525060200191505060405180910390fd5b6000610e7e30611376565b9050610e91610e8b61152f565b826138e0565b505090565b6000606a60009054906101000a900460ff16905090565b60fb6020528060005260406000206000915090508060000160009054906101000a900460ff16908060000160019054906101000a900460ff16908060000160029054906101000a900460ff16908060000160039054906101000a900460ff16908060000160049054906101000a900460ff16908060010154905086565b6000610f34613362565b73ffffffffffffffffffffffffffffffffffffffff16610f5261152f565b73ffffffffffffffffffffffffffffffffffffffff1614610fdb576040517f08c379a00000000000000000000000000000000000000000000000000000000081526004018080602001828103825260208152602001807f4f776e61626c653a2063616c6c6572206973206e6f7420746865206f776e657281525060200191505060405180910390fd5b610fe583836138f7565b5092915050565b6000611095610ff9613362565b84611090856066600061100a613362565b73ffffffffffffffffffffffffffffffffffffffff1673ffffffffffffffffffffffffffffffffffffffff16815260200190815260200160002060008973ffffffffffffffffffffffffffffffffffffffff1673ffffffffffffffffffffffffffffffffffffffff16815260200190815260200160002054613d8090919063ffffffff16565b61336a565b6001905092915050565b60006110a9613362565b73ffffffffffffffffffffffffffffffffffffffff166110c761152f565b73ffffffffffffffffffffffffffffffffffffffff1614611150576040517f08c379a00000000000000000000000000000000000000000000000000000000081526004018080602001828103825260208152602001807f4f776e61626c653a2063616c6c6572206973206e6f7420746865206f776e657281525060200191505060405180910390fd5b8383905086869050146111cb576040517f08c379a00000000000000000000000000000000000000000000000000000000081526004018080602001828103825260158152602001807f556e657175616c2061727261797320706173736564000000000000000000000081525060200191505060405180910390fd5b6111d3614e57565b60fb60008460ff1681526020019081526020016000206040518060c00160405290816000820160009054906101000a900460ff1660ff1660ff1681526020016000820160019054906101000a900460ff1660ff1660ff1681526020016000820160029054906101000a900460ff1660ff1660ff1681526020016000820160039054906101000a900460ff1660ff1660ff1681526020016000820160049054906101000a900460ff1660ff1660ff1681526020016001820154815250509050600087879050905060008090505b8181101561134f57600085905060008a8a848181106112ba57fe5b9050602002013573ffffffffffffffffffffffffffffffffffffffff16905060008989858181106112e757fe5b9050602002013590506000866020015190506000876040015190506000611315848a6060015160ff16610be7565b9050600061132a858b6080015160ff16610be7565b905061133b86888787878787613e08565b50505050505050808060010191505061129f565b5060019250505095945050505050565b6000609760009054906101000a900460ff16905090565b6000606560008373ffffffffffffffffffffffffffffffffffffffff1673ffffffffffffffffffffffffffffffffffffffff168152602001908152602001600020549050919050565b6113c7613362565b73ffffffffffffffffffffffffffffffffffffffff166113e561152f565b73ffffffffffffffffffffffffffffffffffffffff161461146e576040517f08c379a00000000000000000000000000000000000000000000000000000000081526004018080602001828103825260208152602001807f4f776e61626c653a2063616c6c6572206973206e6f7420746865206f776e657281525060200191505060405180910390fd5b600073ffffffffffffffffffffffffffffffffffffffff16603360009054906101000a900473ffffffffffffffffffffffffffffffffffffffff1673ffffffffffffffffffffffffffffffffffffffff167f8be0079c531659141344cd1fd0a4f28419497f9722a3daafe3b4186f6b6457e060405160405180910390a36000603360006101000a81548173ffffffffffffffffffffffffffffffffffffffff021916908373ffffffffffffffffffffffffffffffffffffffff160217905550565b6000603360009054906101000a900473ffffffffffffffffffffffffffffffffffffffff16905090565b6000828260fc60008373ffffffffffffffffffffffffffffffffffffffff1673ffffffffffffffffffffffffffffffffffffffff16815260200190815260200160002060008260ff1660ff16815260200190815260200160002060060160009054906101000a900460ff16611619576040517f08c379a00000000000000000000000000000000000000000000000000000000081526004018080602001828103825260268152602001806150556026913960400191505060405180910390fd5b611621614e9c565b60fc60008773ffffffffffffffffffffffffffffffffffffffff1673ffffffffffffffffffffffffffffffffffffffff16815260200190815260200160002060008660ff1660ff168152602001908152602001600020604051806101400160405290816000820160009054906101000a900460ff1660ff1660ff1681526020016001820154815260200160028201548152602001600382015481526020016004820160009054906101000a900460ff1660ff1660ff1681526020016004820160019054906101000a900460ff1660ff1660ff168152602001600582015481526020016006820160009054906101000a900460ff161515151581526020016006820160019054906101000a900460ff16151515158152602001600782015481525050905060008060008361012001519050600061175b610dba565b90506000611772838361419190919063ffffffff16565b90506000611790611781614214565b836132d990919063ffffffff16565b905060006117ae61179f61421f565b846132d990919063ffffffff16565b905060006117c6601e8361422a90919063ffffffff16565b90506000811180156117d85750600083115b156117e4576001830192505b8860a0015160ff168311611860576040517f08c379a000000000000000000000000000000000000000000000000000000000815260040180806020018281038252601d8152602001807f56657374696e6720436c696666204e6f742043726f737365642059657400000081525060200191505060405180910390fd5b886080015160ff1683111561189c57600061187b8f8f6130dc565b9050611894818b6020015161419190919063ffffffff16565b985050611a64565b60006118b88a60a0015160ff168561419190919063ffffffff16565b905060008111611930576040517f08c379a00000000000000000000000000000000000000000000000000000000081526004018080602001828103825260208152602001807f4e756d626572206f66206d6f6e74687320656c6170736564206973205a45524f81525060200191505060405180910390fd5b60098a6000015160ff1614156119b657611948614efc565b60148160016004811061195757fe5b60200201818152505060328160026004811061196f57fe5b60200201818152505060508160036004811061198757fe5b6020020181815250506119ae8b602001518284600481106119a457fe5b6020020151610be7565b9850506119d0565b6119cd818b6060015161325390919063ffffffff16565b97505b8960c001518811611a49576040517f08c379a00000000000000000000000000000000000000000000000000000000081526004018080602001828103825260208152602001807f4e6f20436c61696d61626c6520546f6b656e7320617420746869732054696d6581525060200191505060405180910390fd5b611a608a60c001518961419190919063ffffffff16565b9850505b879b50505050505050505050505092915050565b60fc602052816000526040600020602052806000526040600020600091509150508060000160009054906101000a900460ff16908060010154908060020154908060030154908060040160009054906101000a900460ff16908060040160019054906101000a900460ff16908060050154908060060160009054906101000a900460ff16908060060160019054906101000a900460ff1690806007015490508a565b6000611b2633836138f7565b50919050565b606060698054600181600116156101000203166002900480601f016020809104026020016040519081016040528092919081815260200182805460018160011615610100020316600290048015611bc45780601f10611b9957610100808354040283529160200191611bc4565b820191906000526020600020905b815481529060010190602001808311611ba757829003601f168201915b5050505050905090565b6000611c91611bdb613362565b84611c8c856040518060600160405280602581526020016152486025913960666000611c05613362565b73ffffffffffffffffffffffffffffffffffffffff1673ffffffffffffffffffffffffffffffffffffffff16815260200190815260200160002060008a73ffffffffffffffffffffffffffffffffffffffff1673ffffffffffffffffffffffffffffffffffffffff168152602001908152602001600020546138269092919063ffffffff16565b61336a565b6001905092915050565b6000611caf611ca8613362565b8484613561565b6001905092915050565b6000636043398b905090565b600060019054906101000a900460ff1680611ce45750611ce36142b3565b5b80611cfb57506000809054906101000a900460ff16155b611d50576040517f08c379a000000000000000000000000000000000000000000000000000000000815260040180806020018281038252602e8152602001806150d5602e913960400191505060405180910390fd5b60008060019054906101000a900460ff161590508015611da0576001600060016101000a81548160ff02191690831515021790555060016000806101000a81548160ff0219169083151502179055505b611da86142c4565b611e1c6040518060400160405280600881526020017f506c617963656e740000000000000000000000000000000000000000000000008152506040518060400160405280600481526020017f50434e54000000000000000000000000000000000000000000000000000000008152506143d3565b611e246144e6565b611e40611e2f61152f565b6a2fa54641bae8aaa00000006145fd565b611e55826a01fc3842bd1f071c0000006145fd565b6040518060c00160405280600060ff168152602001600c60ff168152602001602060ff168152602001600060ff168152602001600560ff1681526020016a0771d2fa45345aa900000081525060fb600080815260200190815260200160002060008201518160000160006101000a81548160ff021916908360ff16021790555060208201518160000160016101000a81548160ff021916908360ff16021790555060408201518160000160026101000a81548160ff021916908360ff16021790555060608201518160000160036101000a81548160ff021916908360ff16021790555060808201518160000160046101000a81548160ff021916908360ff16021790555060a082015181600101559050506040518060c00160405280600160ff168152602001600360ff168152602001600d60ff168152602001600060ff168152602001600a60ff1681526020016a03f870857a3e0e3800000081525060fb60006001815260200190815260200160002060008201518160000160006101000a81548160ff021916908360ff16021790555060208201518160000160016101000a81548160ff021916908360ff16021790555060408201518160000160026101000a81548160ff021916908360ff16021790555060608201518160000160036101000a81548160ff021916908360ff16021790555060808201518160000160046101000a81548160ff021916908360ff16021790555060a082015181600101559050506040518060c00160405280600260ff168152602001600360ff168152602001600d60ff168152602001600060ff168152602001600a60ff1681526020016a03f870857a3e0e3800000081525060fb60006002815260200190815260200160002060008201518160000160006101000a81548160ff021916908360ff16021790555060208201518160000160016101000a81548160ff021916908360ff16021790555060408201518160000160026101000a81548160ff021916908360ff16021790555060608201518160000160036101000a81548160ff021916908360ff16021790555060808201518160000160046101000a81548160ff021916908360ff16021790555060a082015181600101559050506040518060c00160405280600360ff168152602001600160ff168152602001600b60ff168152602001600060ff168152602001600a60ff1681526020016a01fc3842bd1f071c00000081525060fb60006003815260200190815260200160002060008201518160000160006101000a81548160ff021916908360ff16021790555060208201518160000160016101000a81548160ff021916908360ff16021790555060408201518160000160026101000a81548160ff021916908360ff16021790555060608201518160000160036101000a81548160ff021916908360ff16021790555060808201518160000160046101000a81548160ff021916908360ff16021790555060a082015181600101559050506040518060c00160405280600460ff168152602001600160ff168152602001600660ff168152602001600060ff168152602001601460ff1681526020016a03f870857a3e0e3800000081525060fb60006004815260200190815260200160002060008201518160000160006101000a81548160ff021916908360ff16021790555060208201518160000160016101000a81548160ff021916908360ff16021790555060408201518160000160026101000a81548160ff021916908360ff16021790555060608201518160000160036101000a81548160ff021916908360ff16021790555060808201518160000160046101000a81548160ff021916908360ff16021790555060a082015181600101559050506040518060c00160405280600560ff168152602001600360ff168152602001601c60ff168152602001600060ff168152602001600460ff1681526020016a0771d2fa45345aa900000081525060fb60006005815260200190815260200160002060008201518160000160006101000a81548160ff021916908360ff16021790555060208201518160000160016101000a81548160ff021916908360ff16021790555060408201518160000160026101000a81548160ff021916908360ff16021790555060608201518160000160036101000a81548160ff021916908360ff16021790555060808201518160000160046101000a81548160ff021916908360ff16021790555060a082015181600101559050506040518060c00160405280600660ff168152602001600660ff168152602001601f60ff168152602001600060ff168152602001600460ff1681526020016a03796274caf64c7100000081525060fb60006006815260200190815260200160002060008201518160000160006101000a81548160ff021916908360ff16021790555060208201518160000160016101000a81548160ff021916908360ff16021790555060408201518160000160026101000a81548160ff021916908360ff16021790555060608201518160000160036101000a81548160ff021916908360ff16021790555060808201518160000160046101000a81548160ff021916908360ff16021790555060a082015181600101559050506040518060c00160405280600760ff168152602001600160ff168152602001600760ff168152602001600a60ff168152602001600f60ff1681526020016a04b7059e8129b0e280000081525060fb60006007815260200190815260200160002060008201518160000160006101000a81548160ff021916908360ff16021790555060208201518160000160016101000a81548160ff021916908360ff16021790555060408201518160000160026101000a81548160ff021916908360ff16021790555060608201518160000160036101000a81548160ff021916908360ff16021790555060808201518160000160046101000a81548160ff021916908360ff16021790555060a082015181600101559050506040518060c00160405280600860ff168152602001600160ff168152602001600560ff168152602001600f60ff168152602001601460ff1681526020016a04777e962985cfff00000081525060fb60006008815260200190815260200160002060008201518160000160006101000a81548160ff021916908360ff16021790555060208201518160000160016101000a81548160ff021916908360ff16021790555060408201518160000160026101000a81548160ff021916908360ff16021790555060608201518160000160036101000a81548160ff021916908360ff16021790555060808201518160000160046101000a81548160ff021916908360ff16021790555060a082015181600101559050506040518060c00160405280600960ff168152602001600160ff168152602001600460ff168152602001601460ff168152602001601460ff1681526020016a0437f78dd1e1ef1b80000081525060fb60006009815260200190815260200160002060008201518160000160006101000a81548160ff021916908360ff16021790555060208201518160000160016101000a81548160ff021916908360ff16021790555060408201518160000160026101000a81548160ff021916908360ff16021790555060608201518160000160036101000a81548160ff021916908360ff16021790555060808201518160000160046101000a81548160ff021916908360ff16021790555060a0820151816001015590505080156129295760008060016101000a81548160ff0219169083151502179055505b5050565b6000838360fc60008373ffffffffffffffffffffffffffffffffffffffff1673ffffffffffffffffffffffffffffffffffffffff16815260200190815260200160002060008260ff1660ff16815260200190815260200160002060060160009054906101000a900460ff166129ed576040517f08c379a00000000000000000000000000000000000000000000000000000000081526004018080602001828103825260268152602001806150556026913960400191505060405180910390fd5b6129f5614e9c565b60fc60008873ffffffffffffffffffffffffffffffffffffffff1673ffffffffffffffffffffffffffffffffffffffff16815260200190815260200160002060008760ff1660ff168152602001908152602001600020604051806101400160405290816000820160009054906101000a900460ff1660ff1660ff1681526020016001820154815260200160028201548152602001600382015481526020016004820160009054906101000a900460ff1660ff1660ff1681526020016004820160019054906101000a900460ff1660ff1660ff168152602001600582015481526020016006820160009054906101000a900460ff161515151581526020016006820160019054906101000a900460ff1615151515815260200160078201548152505090506000612b2488886130dc565b90506000612b328989611559565b905060008111612b8d576040517f08c379a000000000000000000000000000000000000000000000000000000000815260040180806020018281038252602b81526020018061507b602b913960400191505060405180910390fd5b80871115612be6576040517f08c379a000000000000000000000000000000000000000000000000000000000815260040180806020018281038252602a815260200180615297602a913960400191505060405180910390fd5b6000612bf130611376565b9050878111612c4b576040517f08c379a00000000000000000000000000000000000000000000000000000000081526004018080602001828103825260248152602001806152246024913960400191505060405180910390fd5b8360200151612c638985613d8090919063ffffffff16565b1115612cd7576040517f08c379a00000000000000000000000000000000000000000000000000000000081526004018080602001828103825260208152602001807f43616e6e6f7420436c61696d206d6f7265207468616e20416c6c6f636174656481525060200191505060405180910390fd5b878460c00181815101915081815250508360200151612cff8985613d8090919063ffffffff16565b1415612d175760008460e00190151590811515815250505b8360fc60008c73ffffffffffffffffffffffffffffffffffffffff1673ffffffffffffffffffffffffffffffffffffffff16815260200190815260200160002060008b60ff1660ff16815260200190815260200160002060008201518160000160006101000a81548160ff021916908360ff16021790555060208201518160010155604082015181600201556060820151816003015560808201518160040160006101000a81548160ff021916908360ff16021790555060a08201518160040160016101000a81548160ff021916908360ff16021790555060c0820151816005015560e08201518160060160006101000a81548160ff0219169083151502179055506101008201518160060160016101000a81548160ff0219169083151502179055506101208201518160070155905050612e528a896138e0565b505050505050509392505050565b6000606660008473ffffffffffffffffffffffffffffffffffffffff1673ffffffffffffffffffffffffffffffffffffffff16815260200190815260200160002060008373ffffffffffffffffffffffffffffffffffffffff1673ffffffffffffffffffffffffffffffffffffffff16815260200190815260200160002054905092915050565b612eef613362565b73ffffffffffffffffffffffffffffffffffffffff16612f0d61152f565b73ffffffffffffffffffffffffffffffffffffffff1614612f96576040517f08c379a00000000000000000000000000000000000000000000000000000000081526004018080602001828103825260208152602001807f4f776e61626c653a2063616c6c6572206973206e6f7420746865206f776e657281525060200191505060405180910390fd5b600073ffffffffffffffffffffffffffffffffffffffff168173ffffffffffffffffffffffffffffffffffffffff16141561301c576040517f08c379a0000000000000000000000000000000000000000000000000000000008152600401808060200182810382526026815260200180614fe76026913960400191505060405180910390fd5b8073ffffffffffffffffffffffffffffffffffffffff16603360009054906101000a900473ffffffffffffffffffffffffffffffffffffffff1673ffffffffffffffffffffffffffffffffffffffff167f8be0079c531659141344cd1fd0a4f28419497f9722a3daafe3b4186f6b6457e060405160405180910390a380603360006101000a81548173ffffffffffffffffffffffffffffffffffffffff021916908373ffffffffffffffffffffffffffffffffffffffff16021790555050565b6000806130e7614e9c565b60fc60008673ffffffffffffffffffffffffffffffffffffffff1673ffffffffffffffffffffffffffffffffffffffff16815260200190815260200160002060008560ff1660ff168152602001908152602001600020604051806101400160405290816000820160009054906101000a900460ff1660ff1660ff1681526020016001820154815260200160028201548152602001600382015481526020016004820160009054906101000a900460ff1660ff1660ff1681526020016004820160019054906101000a900460ff1660ff1660ff168152602001600582015481526020016006820160009054906101000a900460ff161515151581526020016006820160019054906101000a900460ff1615151515815260200160078201548152505090506132218160c0015183613d8090919063ffffffff16565b91508061010001511561324857613245816040015183613d8090919063ffffffff16565b91505b819250505092915050565b60008083141561326657600090506132d3565b600082840290508284828161327757fe5b04146132ce576040517f08c379a00000000000000000000000000000000000000000000000000000000081526004018080602001828103825260218152602001806151366021913960400191505060405180910390fd5b809150505b92915050565b6000808211613350576040517f08c379a000000000000000000000000000000000000000000000000000000000815260040180806020018281038252601a8152602001807f536166654d6174683a206469766973696f6e206279207a65726f00000000000081525060200191505060405180910390fd5b81838161335957fe5b04905092915050565b600033905090565b600073ffffffffffffffffffffffffffffffffffffffff168373ffffffffffffffffffffffffffffffffffffffff1614156133f0576040517f08c379a00000000000000000000000000000000000000000000000000000000081526004018080602001828103825260248152602001806152006024913960400191505060405180910390fd5b600073ffffffffffffffffffffffffffffffffffffffff168273ffffffffffffffffffffffffffffffffffffffff161415613476576040517f08c379a000000000000000000000000000000000000000000000000000000000815260040180806020018281038252602281526020018061500d6022913960400191505060405180910390fd5b80606660008573ffffffffffffffffffffffffffffffffffffffff1673ffffffffffffffffffffffffffffffffffffffff16815260200190815260200160002060008473ffffffffffffffffffffffffffffffffffffffff1673ffffffffffffffffffffffffffffffffffffffff168152602001908152602001600020819055508173ffffffffffffffffffffffffffffffffffffffff168373ffffffffffffffffffffffffffffffffffffffff167f8c5be1e5ebec7d5bd14f71427d1e84f3dd0314c0f7b2291e5b200ac8c7c3b925836040518082815260200191505060405180910390a3505050565b600073ffffffffffffffffffffffffffffffffffffffff168373ffffffffffffffffffffffffffffffffffffffff1614156135e7576040517f08c379a00000000000000000000000000000000000000000000000000000000081526004018080602001828103825260258152602001806151db6025913960400191505060405180910390fd5b600073ffffffffffffffffffffffffffffffffffffffff168273ffffffffffffffffffffffffffffffffffffffff16141561366d576040517f08c379a0000000000000000000000000000000000000000000000000000000008152600401808060200182810382526023815260200180614fc46023913960400191505060405180910390fd5b6136788383836147c6565b6136e48160405180606001604052806026815260200161502f60269139606560008773ffffffffffffffffffffffffffffffffffffffff1673ffffffffffffffffffffffffffffffffffffffff168152602001908152602001600020546138269092919063ffffffff16565b606560008573ffffffffffffffffffffffffffffffffffffffff1673ffffffffffffffffffffffffffffffffffffffff1681526020019081526020016000208190555061377981606560008573ffffffffffffffffffffffffffffffffffffffff1673ffffffffffffffffffffffffffffffffffffffff16815260200190815260200160002054613d8090919063ffffffff16565b606560008473ffffffffffffffffffffffffffffffffffffffff1673ffffffffffffffffffffffffffffffffffffffff168152602001908152602001600020819055508173ffffffffffffffffffffffffffffffffffffffff168373ffffffffffffffffffffffffffffffffffffffff167fddf252ad1be2c89b69c2b068fc378daa952ba7f163c4a11628f55a4df523b3ef836040518082815260200191505060405180910390a3505050565b60008383111582906138d3576040517f08c379a00000000000000000000000000000000000000000000000000000000081526004018080602001828103825283818151815260200191508051906020019080838360005b8381101561389857808201518184015260208101905061387d565b50505050905090810190601f1680156138c55780820380516001836020036101000a031916815260200191505b509250505060405180910390fd5b5082840390509392505050565b60006138ed308484613561565b6001905092915050565b6000613901611cb9565b613909610dba565b1161395f576040517f08c379a00000000000000000000000000000000000000000000000000000000081526004018080602001828103825260268152602001806151b56026913960400191505060405180910390fd5b828260fc60008373ffffffffffffffffffffffffffffffffffffffff1673ffffffffffffffffffffffffffffffffffffffff16815260200190815260200160002060008260ff1660ff16815260200190815260200160002060060160009054906101000a900460ff16613a1d576040517f08c379a00000000000000000000000000000000000000000000000000000000081526004018080602001828103825260268152602001806150556026913960400191505060405180910390fd5b613a25614e9c565b60fc60008773ffffffffffffffffffffffffffffffffffffffff1673ffffffffffffffffffffffffffffffffffffffff16815260200190815260200160002060008660ff1660ff168152602001908152602001600020604051806101400160405290816000820160009054906101000a900460ff1660ff1660ff1681526020016001820154815260200160028201548152602001600382015481526020016004820160009054906101000a900460ff1660ff1660ff1681526020016004820160019054906101000a900460ff1660ff1660ff168152602001600582015481526020016006820160009054906101000a900460ff161515151581526020016006820160019054906101000a900460ff1615151515815260200160078201548152505090506007816000015160ff1610158015613b6857506009816000015160ff1611155b613bbd576040517f08c379a000000000000000000000000000000000000000000000000000000000815260040180806020018281038252602f8152602001806150a6602f913960400191505060405180910390fd5b60001515816101000151151514613c1f576040517f08c379a000000000000000000000000000000000000000000000000000000000815260040180806020018281038252603681526020018061517f6036913960400191505060405180910390fd5b6000816040015190506001826101000190151590811515815250508160fc60008973ffffffffffffffffffffffffffffffffffffffff1673ffffffffffffffffffffffffffffffffffffffff16815260200190815260200160002060008860ff1660ff16815260200190815260200160002060008201518160000160006101000a81548160ff021916908360ff16021790555060208201518160010155604082015181600201556060820151816003015560808201518160040160006101000a81548160ff021916908360ff16021790555060a08201518160040160016101000a81548160ff021916908360ff16021790555060c0820151816005015560e08201518160060160006101000a81548160ff0219169083151502179055506101008201518160060160016101000a81548160ff0219169083151502179055506101208201518160070155905050613d7587826138e0565b505050505092915050565b600080828401905083811015613dfe576040517f08c379a000000000000000000000000000000000000000000000000000000000815260040180806020018281038252601b8152602001807f536166654d6174683a206164646974696f6e206f766572666c6f77000000000081525060200191505060405180910390fd5b8091505092915050565b868660008160ff1610158015613e22575060098160ff1611155b613e94576040517f08c379a00000000000000000000000000000000000000000000000000000000081526004018080602001828103825260158152602001807f496e76616c69642056657374696e6720496e646578000000000000000000000081525060200191505060405180910390fd5b600073ffffffffffffffffffffffffffffffffffffffff168273ffffffffffffffffffffffffffffffffffffffff161415613f37576040517f08c379a000000000000000000000000000000000000000000000000000000000815260040180806020018281038252600f8152602001807f496e76616c69642041646472657373000000000000000000000000000000000081525060200191505060405180910390fd5b60fc60008373ffffffffffffffffffffffffffffffffffffffff1673ffffffffffffffffffffffffffffffffffffffff16815260200190815260200160002060008260ff1660ff16815260200190815260200160002060060160009054906101000a900460ff1615613ff4576040517f08c379a00000000000000000000000000000000000000000000000000000000081526004018080602001828103825260338152602001806151036033913960400191505060405180910390fd5b613ffc614e9c565b6040518061014001604052808a60ff1681526020018981526020018681526020018581526020018760ff1681526020018860ff168152602001600081526020016001151581526020016000151581526020014281525090508060fc60008c73ffffffffffffffffffffffffffffffffffffffff1673ffffffffffffffffffffffffffffffffffffffff16815260200190815260200160002060008b60ff1660ff16815260200190815260200160002060008201518160000160006101000a81548160ff021916908360ff16021790555060208201518160010155604082015181600201556060820151816003015560808201518160040160006101000a81548160ff021916908360ff16021790555060a08201518160040160016101000a81548160ff021916908360ff16021790555060c0820151816005015560e08201518160060160006101000a81548160ff0219169083151502179055506101008201518160060160016101000a81548160ff021916908315150217905550610120820151816007015590505050505050505050505050565b600082821115614209576040517f08c379a000000000000000000000000000000000000000000000000000000000815260040180806020018281038252601e8152602001807f536166654d6174683a207375627472616374696f6e206f766572666c6f77000081525060200191505060405180910390fd5b818303905092915050565b600062278d00905090565b600062015180905090565b60008082116142a1576040517f08c379a00000000000000000000000000000000000000000000000000000000081526004018080602001828103825260188152602001807f536166654d6174683a206d6f64756c6f206279207a65726f000000000000000081525060200191505060405180910390fd5b8183816142aa57fe5b06905092915050565b60006142be30614834565b15905090565b600060019054906101000a900460ff16806142e357506142e26142b3565b5b806142fa57506000809054906101000a900460ff16155b61434f576040517f08c379a000000000000000000000000000000000000000000000000000000000815260040180806020018281038252602e8152602001806150d5602e913960400191505060405180910390fd5b60008060019054906101000a900460ff16159050801561439f576001600060016101000a81548160ff02191690831515021790555060016000806101000a81548160ff0219169083151502179055505b6143a7614847565b6143af614946565b80156143d05760008060016101000a81548160ff0219169083151502179055505b50565b600060019054906101000a900460ff16806143f257506143f16142b3565b5b8061440957506000809054906101000a900460ff16155b61445e576040517f08c379a000000000000000000000000000000000000000000000000000000000815260040180806020018281038252602e8152602001806150d5602e913960400191505060405180910390fd5b60008060019054906101000a900460ff1615905080156144ae576001600060016101000a81548160ff02191690831515021790555060016000806101000a81548160ff0219169083151502179055505b6144b6614847565b6144c08383614aee565b80156144e15760008060016101000a81548160ff0219169083151502179055505b505050565b600060019054906101000a900460ff168061450557506145046142b3565b5b8061451c57506000809054906101000a900460ff16155b614571576040517f08c379a000000000000000000000000000000000000000000000000000000000815260040180806020018281038252602e8152602001806150d5602e913960400191505060405180910390fd5b60008060019054906101000a900460ff1615905080156145c1576001600060016101000a81548160ff02191690831515021790555060016000806101000a81548160ff0219169083151502179055505b6145c9614847565b6145d1614c39565b6145d9614d53565b80156145fa5760008060016101000a81548160ff0219169083151502179055505b50565b600073ffffffffffffffffffffffffffffffffffffffff168273ffffffffffffffffffffffffffffffffffffffff1614156146a0576040517f08c379a000000000000000000000000000000000000000000000000000000000815260040180806020018281038252601f8152602001807f45524332303a206d696e7420746f20746865207a65726f20616464726573730081525060200191505060405180910390fd5b6146ac600083836147c6565b6146c181606754613d8090919063ffffffff16565b60678190555061471981606560008573ffffffffffffffffffffffffffffffffffffffff1673ffffffffffffffffffffffffffffffffffffffff16815260200190815260200160002054613d8090919063ffffffff16565b606560008473ffffffffffffffffffffffffffffffffffffffff1673ffffffffffffffffffffffffffffffffffffffff168152602001908152602001600020819055508173ffffffffffffffffffffffffffffffffffffffff16600073ffffffffffffffffffffffffffffffffffffffff167fddf252ad1be2c89b69c2b068fc378daa952ba7f163c4a11628f55a4df523b3ef836040518082815260200191505060405180910390a35050565b6147d1838383614e52565b6147d961135f565b1561482f576040517f08c379a000000000000000000000000000000000000000000000000000000000815260040180806020018281038252602a81526020018061526d602a913960400191505060405180910390fd5b505050565b600080823b905060008111915050919050565b600060019054906101000a900460ff168061486657506148656142b3565b5b8061487d57506000809054906101000a900460ff16155b6148d2576040517f08c379a000000000000000000000000000000000000000000000000000000000815260040180806020018281038252602e8152602001806150d5602e913960400191505060405180910390fd5b60008060019054906101000a900460ff161590508015614922576001600060016101000a81548160ff02191690831515021790555060016000806101000a81548160ff0219169083151502179055505b80156149435760008060016101000a81548160ff0219169083151502179055505b50565b600060019054906101000a900460ff168061496557506149646142b3565b5b8061497c57506000809054906101000a900460ff16155b6149d1576040517f08c379a000000000000000000000000000000000000000000000000000000000815260040180806020018281038252602e8152602001806150d5602e913960400191505060405180910390fd5b60008060019054906101000a900460ff161590508015614a21576001600060016101000a81548160ff02191690831515021790555060016000806101000a81548160ff0219169083151502179055505b6000614a2b613362565b905080603360006101000a81548173ffffffffffffffffffffffffffffffffffffffff021916908373ffffffffffffffffffffffffffffffffffffffff1602179055508073ffffffffffffffffffffffffffffffffffffffff16600073ffffffffffffffffffffffffffffffffffffffff167f8be0079c531659141344cd1fd0a4f28419497f9722a3daafe3b4186f6b6457e060405160405180910390a3508015614aeb5760008060016101000a81548160ff0219169083151502179055505b50565b600060019054906101000a900460ff1680614b0d5750614b0c6142b3565b5b80614b2457506000809054906101000a900460ff16155b614b79576040517f08c379a000000000000000000000000000000000000000000000000000000000815260040180806020018281038252602e8152602001806150d5602e913960400191505060405180910390fd5b60008060019054906101000a900460ff161590508015614bc9576001600060016101000a81548160ff02191690831515021790555060016000806101000a81548160ff0219169083151502179055505b8260689080519060200190614bdf929190614f1e565b508160699080519060200190614bf6929190614f1e565b506012606a60006101000a81548160ff021916908360ff1602179055508015614c345760008060016101000a81548160ff0219169083151502179055505b505050565b600060019054906101000a900460ff1680614c585750614c576142b3565b5b80614c6f57506000809054906101000a900460ff16155b614cc4576040517f08c379a000000000000000000000000000000000000000000000000000000000815260040180806020018281038252602e8152602001806150d5602e913960400191505060405180910390fd5b60008060019054906101000a900460ff161590508015614d14576001600060016101000a81548160ff02191690831515021790555060016000806101000a81548160ff0219169083151502179055505b6000609760006101000a81548160ff0219169083151502179055508015614d505760008060016101000a81548160ff0219169083151502179055505b50565b600060019054906101000a900460ff1680614d725750614d716142b3565b5b80614d8957506000809054906101000a900460ff16155b614dde576040517f08c379a000000000000000000000000000000000000000000000000000000000815260040180806020018281038252602e8152602001806150d5602e913960400191505060405180910390fd5b60008060019054906101000a900460ff161590508015614e2e576001600060016101000a81548160ff02191690831515021790555060016000806101000a81548160ff0219169083151502179055505b8015614e4f5760008060016101000a81548160ff0219169083151502179055505b50565b505050565b6040518060c00160405280600060ff168152602001600060ff168152602001600060ff168152602001600060ff168152602001600060ff168152602001600081525090565b604051806101400160405280600060ff168152602001600081526020016000815260200160008152602001600060ff168152602001600060ff16815260200160008152602001600015158152602001600015158152602001600081525090565b6040518060800160405280600490602082028038833980820191505090505090565b828054600181600116156101000203166002900490600052602060002090601f016020900481019282601f10614f5f57805160ff1916838001178555614f8d565b82800160010185558215614f8d579182015b82811115614f8c578251825591602001919060010190614f71565b5b509050614f9a9190614f9e565b5090565b614fc091905b80821115614fbc576000816000905550600101614fa4565b5090565b9056fe45524332303a207472616e7366657220746f20746865207a65726f20616464726573734f776e61626c653a206e6577206f776e657220697320746865207a65726f206164647265737345524332303a20617070726f766520746f20746865207a65726f206164647265737345524332303a207472616e7366657220616d6f756e7420657863656564732062616c616e636555736572204e4f5420616464656420746f20616e792056657374696e672043617465676f72794e6f20746f6b656e7320746f207472616e73666572206174207468697320706f696e74206f662074696d6556657374696e672043617465676f727920646f65736e27742062656c6f6e6720746f2053414c452056457374696e67496e697469616c697a61626c653a20636f6e747261637420697320616c726561647920696e697469616c697a6564557365722056657374696e672044657461696c7320416c726561647920416464656420746f20746869732043617465676f7279536166654d6174683a206d756c7469706c69636174696f6e206f766572666c6f7745524332303a207472616e7366657220616d6f756e74206578636565647320616c6c6f77616e636554474520546f6b656e73204861766520616c7265616479206265656e20636c61696d656420666f7220476976656e2041646472657373546f6b656e2047656e65726174696f6e204576656e74204e6f7420537461727465642059657445524332303a207472616e736665722066726f6d20746865207a65726f206164647265737345524332303a20617070726f76652066726f6d20746865207a65726f20616464726573734e6f7420456e6f75676820546f6b656e2042616c616e636520696e20436f6e747261637445524332303a2064656372656173656420616c6c6f77616e63652062656c6f77207a65726f45524332305061757361626c653a20746f6b656e207472616e73666572207768696c652070617573656443616e6e6f7420436c61696d206d6f7265207468616e204d6f6e74686c79205665737420416d6f756e74a264697066735822122073913f3a0943384e9a41c9bebfb3c3199110775cb76048698b5109a359dc75b364736f6c63430006020033",
  "source": "pragma solidity 0.6.2;\n// SPDX-License-Identifier: MIT\n\nimport \"@openzeppelin/contracts-upgradeable/token/ERC20/ERC20Upgradeable.sol\";\nimport \"@openzeppelin/contracts-upgradeable/math/SafeMathUpgradeable.sol\";\nimport \"@openzeppelin/contracts-upgradeable/access/OwnableUpgradeable.sol\";\nimport \"@openzeppelin/contracts-upgradeable/proxy/Initializable.sol\";\nimport \"@openzeppelin/contracts-upgradeable/token/ERC20/ERC20PausableUpgradeable.sol\";\nimport \"@openzeppelin/contracts-upgradeable/math/SafeMathUpgradeable.sol\";\n\ncontract PlaycentTokenV1 is\n  Initializable,\n  OwnableUpgradeable,\n  ERC20PausableUpgradeable\n{\n  using SafeMathUpgradeable for uint256;\n  /**\n   * Category 0 - Team\n   * Category 1 - Operations\n   * Category 2 - Marketing/Partners\n   * Category 3 - Advisors\n   * Category 4 - Staking/Earn Incentives\n   * Category 5 - Play/Mining\n   * Category 6 - Reserve\n   * Category 7 - Seed Sale\n   * Category 8 - Private 1\n   * Category 9 - Private 2\n   */\n  struct VestType {\n    uint8 indexId;\n    uint8 lockPeriod;\n    uint8 vestingDuration;\n    uint8 tgePercent;\n    uint8 monthlyPercent;\n    uint256 totalTokenAllocation;\n  }\n\n  struct VestAllocation {\n    uint8 vestIndexID;\n    uint256 totalTokensAllocated;\n    uint256 totalTGETokens;\n    uint256 monthlyTokens;\n    uint8 vestingDuration;\n    uint8 lockPeriod;\n    uint256 totalVestTokensClaimed;\n    bool isVesting;\n    bool isTgeTokensClaimed;\n    uint256 startTime;\n  }\n\n  mapping(uint256 => VestType) public vestTypes;\n  mapping(address => mapping(uint8 => VestAllocation))\n    public walletToVestAllocations;\n\n\n  function initialize(address _PublicSaleAddress) public initializer {\n    __Ownable_init();\n    __ERC20_init(\"Playcent\", \"PCNT\");\n    __ERC20Pausable_init();\n    _mint(owner(), 57600000 ether);\n    _mint(_PublicSaleAddress, 2400000 ether);\n\n    vestTypes[0] = VestType(0, 12, 32, 0, 5, 9000000 ether); // Team\n    vestTypes[1] = VestType(1, 3, 13, 0, 10, 4800000 ether); // Operations\n    vestTypes[2] = VestType(2, 3, 13, 0, 10, 4800000 ether); // Marketing/Partners\n    vestTypes[3] = VestType(3, 1, 11, 0, 10, 2400000 ether); // Advisors\n    vestTypes[4] = VestType(4, 1, 6, 0, 20, 4800000 ether); //Staking/Early Incentive Rewards\n    vestTypes[5] = VestType(5, 3, 28, 0, 4, 9000000 ether); //Play Mining\n    vestTypes[6] = VestType(6, 6, 31, 0, 4, 4200000 ether); //Reserve\n    // Sale Vesting Strategies\n    vestTypes[7] = VestType(7, 1, 7, 10, 15, 5700000 ether); // Seed Sale\n    vestTypes[8] = VestType(8, 1, 5, 15, 20, 5400000 ether); // Private Sale 1\n    vestTypes[9] = VestType(9, 1, 4, 20, 20, 5100000 ether); // Private Sale 2\n  }\n\n  modifier onlyValidVestingBenifciary(\n    address _userAddresses,\n    uint8 _vestingIndex\n  ) {\n    require(_vestingIndex >= 0 && _vestingIndex <= 9, \"Invalid Vesting Index\");\n    require(_userAddresses != address(0), \"Invalid Address\");\n    require(\n      !walletToVestAllocations[_userAddresses][_vestingIndex].isVesting,\n      \"User Vesting Details Already Added to this Category\"\n    );\n    _;\n  }\n\n  modifier checkVestingStatus(address _userAddresses, uint8 _vestingIndex) {\n    require(\n      walletToVestAllocations[_userAddresses][_vestingIndex].isVesting,\n      \"User NOT added to any Vesting Category\"\n    );\n    _;\n  }\n\n  modifier onlyAfterTGE() {\n    require(\n      getCurrentTime() > getTgeTIME(),\n      \"Token Generation Event Not Started Yet\"\n    );\n    _;\n  }\n\n  // function setLocker(address _locker) external onlyOwner() {\n  //   locker = ILocker(_locker);\n  // }\n\n  // function _transfer(address sender, address recipient, uint256 amount) internal virtual override {\n  //     if (address(locker) != address(0)) {\n  //         locker.lockOrGetPenalty(sender, recipient);\n  //     }\n  //     return ERC20._transfer(sender, recipient, amount);\n  // }\n\n  // function _transfer(\n  //   address sender,\n  //   address recipient,\n  //   uint256 amount\n  // ) internal virtual override {\n  //   if (address(locker) != address(0)) {\n  //     locker.lockOrGetPenalty(sender, recipient);\n  //   }\n  //   return super._transfer(sender, recipient, amount);\n  // }\n\n  function getCurrentTime() public view returns (uint256) {\n    return block.timestamp;\n  }\n\n  function  daysInSeconds() internal pure returns(uint256){\n    return 86400;\n  }\n  \n\n  function monthInSeconds() internal pure returns (uint256) {\n    return 2592000;\n  }\n\n  function getTgeTIME() public pure returns (uint256) {\n    return 1615018379; // Sat Mar 06 2021 11:30:00 GMT+0000\n  }\n\n  function percentage(uint256 _totalAmount, uint256 _rate)\n    public\n    pure\n    returns (uint256)\n  {\n    return _totalAmount.mul(_rate).div(100);\n  }\n\n  /**\n     * @notice - Allows only the Owner to ADD an array of Addresses as well as their Vesting Amount\n               - The array of user and amounts should be passed along with the vestingCategory Index. \n               - Thus, a particular batch of addresses shall be added under only one Vesting Category Index \n     * @param _userAddresses array of addresses of the Users\n     * @param _vestingAmounts array of amounts to be vested\n     * @param _vestnigType allows the owner to select the type of vesting category\n     * @return - true if Function executes successfully\n     */\n\n  function addVestingDetails(\n    address[] calldata _userAddresses,\n    uint256[] calldata _vestingAmounts,\n    uint8 _vestnigType\n  ) external onlyOwner returns (bool) {\n    require(\n      _userAddresses.length == _vestingAmounts.length,\n      \"Unequal arrays passed\"\n    );\n\n    // Get Vesting Category Details\n    VestType memory vestData = vestTypes[_vestnigType];\n    uint256 arrayLength = _userAddresses.length;\n\n    for (uint256 i = 0; i < arrayLength; i++) {\n      uint8 vestIndexID = _vestnigType;\n      address userAddress = _userAddresses[i];\n      uint256 totalAllocation = _vestingAmounts[i];\n      uint8 lockPeriod = vestData.lockPeriod;\n      uint8 vestingDuration = vestData.vestingDuration;\n      uint256 tgeAmount = percentage(totalAllocation, vestData.tgePercent);\n      uint256 monthlyAmount =\n        percentage(totalAllocation, vestData.monthlyPercent);\n\n      addUserVestingDetails(\n        userAddress,\n        vestIndexID,\n        totalAllocation,\n        lockPeriod,\n        vestingDuration,\n        tgeAmount,\n        monthlyAmount\n      );\n    }\n    return true;\n  }\n\n  /** @notice - Internal functions that is initializes the VestAllocation Struct with the respective arguments passed\n   * @param _userAddresses addresses of the User\n   * @param _totalAllocation total amount to be lockedUp\n   * @param _vestingIndex denotes the type of vesting selected\n   * @param _lockPeriod denotes the lock of the vesting category selcted\n   * @param _vestingDuration denotes the total duration of the vesting category selcted\n   * @param _tgeAmount denotes the total TGE amount to be transferred to the userVestingData\n   * @param _monthlyAmount denotes the total Monthly Amount to be transferred to the user\n   */\n\n  function addUserVestingDetails(\n    address _userAddresses,\n    uint8 _vestingIndex,\n    uint256 _totalAllocation,\n    uint8 _lockPeriod,\n    uint8 _vestingDuration,\n    uint256 _tgeAmount,\n    uint256 _monthlyAmount\n  ) internal onlyValidVestingBenifciary(_userAddresses, _vestingIndex) {\n    VestAllocation memory userVestingData =\n      VestAllocation(\n        _vestingIndex,\n        _totalAllocation,\n        _tgeAmount,\n        _monthlyAmount,\n        _vestingDuration,\n        _lockPeriod,\n        0,\n        true,\n        false,\n        now\n      );\n    walletToVestAllocations[_userAddresses][_vestingIndex] = userVestingData;\n  }\n\n  function totalTokensClaimed(address _userAddresses, uint8 _vestingIndex)\n    public\n    view\n    returns (uint256)\n  {\n    // Get Vesting Details\n    uint256 totalClaimedTokens;\n    VestAllocation memory vestData =\n      walletToVestAllocations[_userAddresses][_vestingIndex];\n\n    totalClaimedTokens = totalClaimedTokens.add(\n      vestData.totalVestTokensClaimed\n    );\n\n    if (vestData.isTgeTokensClaimed) {\n      totalClaimedTokens = totalClaimedTokens.add(vestData.totalTGETokens);\n    }\n\n    return totalClaimedTokens;\n  }\n\n  /**\n   * @notice Calculates the amount of tokens to be transferred at any given point of time\n   * @param _userAddresses address of the User\n   */\n \n\n  function calculateClaimableTokens(address _userAddresses, uint8 _vestingIndex)\n    public\n    view\n    checkVestingStatus(_userAddresses, _vestingIndex)\n    returns (uint256)\n  {\n    // Get Vesting Details\n    VestAllocation memory vestData =\n      walletToVestAllocations[_userAddresses][_vestingIndex];\n\n    // Get Time Details\n    uint256 actualClaimableAmount;\n    uint256 tokensAfterElapsedMonths;\n    uint256 vestStartTime = vestData.startTime;\n    uint256 currentTime = getCurrentTime();\n    uint256 timeElapsed = currentTime.sub(vestStartTime);\n\n    uint256 totalMonthsElapsed = timeElapsed.div(monthInSeconds());\n    uint256 totalDaysElapsed = timeElapsed.div(daysInSeconds());\n    uint256 partialDaysElapsed = totalDaysElapsed.mod(30);\n\n    if(partialDaysElapsed > 0 && totalMonthsElapsed >0){\n        totalMonthsElapsed += 1;\n      }\n\n    //Check whether or not the VESTING CLIFF has been reached\n    require(\n      totalMonthsElapsed > vestData.lockPeriod,\n      \"Vesting Cliff Not Crossed Yet\"\n    );\n\n    // If total duration of Vesting already crossed, return pending tokens to claimed\n    if (totalMonthsElapsed > vestData.vestingDuration) {\n      uint256 _totalTokensClaimed =\n        totalTokensClaimed(_userAddresses, _vestingIndex);\n      actualClaimableAmount = vestData.totalTokensAllocated.sub(\n        _totalTokensClaimed\n      );\n      // if current time has crossed the Vesting Cliff but not the total Vesting Duration\n      // Calculating Actual Months(Excluding the CLIFF) to initiate vesting\n    } else {\n       uint256 actualMonthElapsed = totalMonthsElapsed.sub(vestData.lockPeriod);\n      require(actualMonthElapsed > 0, \"Number of months elapsed is ZERO\");\n      // Calculate the Total Tokens on the basis of Vesting Index and Month elapsed\n      if (vestData.vestIndexID == 9) {\n        uint256[4] memory monthsToRates;\n        monthsToRates[1] = 20;\n        monthsToRates[2] = 50;\n        monthsToRates[3] = 80;\n        tokensAfterElapsedMonths = percentage(\n          vestData.totalTokensAllocated,\n          monthsToRates[actualMonthElapsed]\n        );\n      } else {\n        tokensAfterElapsedMonths = vestData.monthlyTokens.mul(\n          actualMonthElapsed\n        );\n      }\n      require(\n        tokensAfterElapsedMonths > vestData.totalVestTokensClaimed,\n        \"No Claimable Tokens at this Time\"\n      );\n      // Get the actual Claimable Tokens\n      actualClaimableAmount = tokensAfterElapsedMonths.sub(\n        vestData.totalVestTokensClaimed\n      );\n    }\n    return actualClaimableAmount;\n  }\n  /**\n   * @notice Function to transfer tokens from this contract to the user\n   * @param _beneficiary address of the User\n   * @param _amountOfTokens number of tokens to be transferred\n   */\n  function _sendTokens(address _beneficiary, uint256 _amountOfTokens)\n    private\n    returns (bool)\n  {\n    _transfer(address(this), _beneficiary, _amountOfTokens);\n    return true;\n  }\n\n  /**\n   * @notice Calculates and Transfer the total tokens to be transferred to the user after Token Generation Event is over\n   * @dev The function shall only work for users under Sale Vesting Category(index - 7,8,9).\n   * @dev The function can only be called once by the user(only if the isTgeTokensClaimed boolean value is FALSE).\n   * Once the tokens have been transferred, isTgeTokensClaimed becomes TRUE for that particular address\n   * @param _userAddresses address of the User\n   */\n  function _claimTGETokens(address _userAddresses, uint8 _vestingIndex)\n    internal\n    onlyAfterTGE\n    checkVestingStatus(_userAddresses, _vestingIndex)\n    returns (bool)\n  {\n    // Get Vesting Details\n    VestAllocation memory vestData =\n      walletToVestAllocations[_userAddresses][_vestingIndex];\n\n    require(\n      vestData.vestIndexID >= 7 && vestData.vestIndexID <= 9,\n      \"Vesting Category doesn't belong to SALE VEsting\"\n    );\n    require(\n      vestData.isTgeTokensClaimed == false,\n      \"TGE Tokens Have already been claimed for Given Address\"\n    );\n\n    uint256 tokensToTransfer = vestData.totalTGETokens;\n\n    // Updating Contract State\n    vestData.isTgeTokensClaimed = true;\n    walletToVestAllocations[_userAddresses][_vestingIndex] = vestData;\n    _sendTokens(_userAddresses, tokensToTransfer);\n  }\n\n  function claimTGETokensOnlyOwner(address _userAddresses, uint8 _vestingIndex)\n    external\n    onlyOwner\n    returns (bool)\n  {\n    _claimTGETokens(_userAddresses, _vestingIndex);\n  }\n\n  function claimTGETokens(uint8 _vestingIndex) external returns (bool) {\n    _claimTGETokens(msg.sender, _vestingIndex);\n  }\n\n  /**\n   * @notice Calculates and Transfers the total tokens to be transferred to the user by calculating the Amount of tokens to be transferred at the given time\n   * @dev The function shall only work for users under Vesting Category is valid(index - 1 to 9).\n   * @dev isVesting becomes false if all allocated tokens have been claimed.\n   * @dev User cannot claim more tokens than actually allocated to them by the OWNER\n   * @param _userAddresses address of the User\n   */\n  \n  function _claimVestTokens(address _userAddresses, uint8 _vestingIndex,uint256 _tokenAmount)\n    public\n    checkVestingStatus(_userAddresses, _vestingIndex)\n    returns (bool)\n  {\n    // Get Vesting Details\n    VestAllocation memory vestData =\n      walletToVestAllocations[_userAddresses][_vestingIndex];\n\n    // Get total amount of tokens claimed till date\n    uint256 _totalTokensClaimed =\n      totalTokensClaimed(_userAddresses, _vestingIndex);\n    // Get the total claimable token amount at the time of calling this function\n    uint256 tokensToTransfer =\n      calculateClaimableTokens(_userAddresses, _vestingIndex);\n\n    require(tokensToTransfer > 0, \"No tokens to transfer at this point of time\");\n    require (_tokenAmount <= tokensToTransfer,\"Cannot Claim more than Monthly Vest Amount\");\n    uint256 contractTokenBalance = balanceOf(address(this));\n    require(\n      contractTokenBalance > _tokenAmount,\n      \"Not Enough Token Balance in Contract\"\n    );\n    require(\n      _totalTokensClaimed.add(_tokenAmount) <=\n        vestData.totalTokensAllocated,\n      \"Cannot Claim more than Allocated\"\n    );\n\n    vestData.totalVestTokensClaimed += _tokenAmount;\n    if (\n      _totalTokensClaimed.add(_tokenAmount) == vestData.totalTokensAllocated\n    ) {\n      vestData.isVesting = false;\n    }\n    walletToVestAllocations[_userAddresses][_vestingIndex] = vestData;\n    _sendTokens(_userAddresses, _tokenAmount);\n  }\n\n\n  function withdrawContractTokens() external onlyOwner returns (bool) {\n    uint256 remainingTokens = balanceOf(address(this));\n    _sendTokens(owner(), remainingTokens);\n  }\n}\n",
  "sourcePath": "/home/zaryab/blockchain_begins/all_about_ethereum/quillHash_CODES/bloqueLabs/playcentToken/contracts/tokenERC.sol",
  "compiler": {
    "name": "solc",
    "version": "0.6.2+commit.bacdbe57.Linux.g++"
  },
  "schemaVersion": "3.3.3",
  "updatedAt": "2021-03-05T11:45:55.787Z",
  "networkType": "ethereum",
  "devdoc": {
    "methods": {
      "_claimVestTokens(address,uint8,uint256)": {
        "details": "The function shall only work for users under Vesting Category is valid(index - 1 to 9).isVesting becomes false if all allocated tokens have been claimed.User cannot claim more tokens than actually allocated to them by the OWNER",
        "params": {
          "_userAddresses": "address of the User"
        }
      },
      "addVestingDetails(address[],uint256[],uint8)": {
        "params": {
          "_userAddresses": "array of addresses of the Users",
          "_vestingAmounts": "array of amounts to be vested",
          "_vestnigType": "allows the owner to select the type of vesting category"
        },
        "returns": {
          "_0": "- true if Function executes successfully"
        }
      },
      "allowance(address,address)": {
        "details": "See {IERC20-allowance}."
      },
      "approve(address,uint256)": {
        "details": "See {IERC20-approve}.     * Requirements:     * - `spender` cannot be the zero address."
      },
      "balanceOf(address)": {
        "details": "See {IERC20-balanceOf}."
      },
      "calculateClaimableTokens(address,uint8)": {
        "params": {
          "_userAddresses": "address of the User"
        }
      },
      "decimals()": {
        "details": "Returns the number of decimals used to get its user representation. For example, if `decimals` equals `2`, a balance of `505` tokens should be displayed to a user as `5,05` (`505 / 10 ** 2`).     * Tokens usually opt for a value of 18, imitating the relationship between Ether and Wei. This is the value {ERC20} uses, unless {_setupDecimals} is called.     * NOTE: This information is only used for _display_ purposes: it in no way affects any of the arithmetic of the contract, including {IERC20-balanceOf} and {IERC20-transfer}."
      },
      "decreaseAllowance(address,uint256)": {
        "details": "Atomically decreases the allowance granted to `spender` by the caller.     * This is an alternative to {approve} that can be used as a mitigation for problems described in {IERC20-approve}.     * Emits an {Approval} event indicating the updated allowance.     * Requirements:     * - `spender` cannot be the zero address. - `spender` must have allowance for the caller of at least `subtractedValue`."
      },
      "increaseAllowance(address,uint256)": {
        "details": "Atomically increases the allowance granted to `spender` by the caller.     * This is an alternative to {approve} that can be used as a mitigation for problems described in {IERC20-approve}.     * Emits an {Approval} event indicating the updated allowance.     * Requirements:     * - `spender` cannot be the zero address."
      },
      "name()": {
        "details": "Returns the name of the token."
      },
      "owner()": {
        "details": "Returns the address of the current owner."
      },
      "paused()": {
        "details": "Returns true if the contract is paused, and false otherwise."
      },
      "renounceOwnership()": {
        "details": "Leaves the contract without owner. It will not be possible to call `onlyOwner` functions anymore. Can only be called by the current owner.     * NOTE: Renouncing ownership will leave the contract without an owner, thereby removing any functionality that is only available to the owner."
      },
      "symbol()": {
        "details": "Returns the symbol of the token, usually a shorter version of the name."
      },
      "totalSupply()": {
        "details": "See {IERC20-totalSupply}."
      },
      "transfer(address,uint256)": {
        "details": "See {IERC20-transfer}.     * Requirements:     * - `recipient` cannot be the zero address. - the caller must have a balance of at least `amount`."
      },
      "transferFrom(address,address,uint256)": {
        "details": "See {IERC20-transferFrom}.     * Emits an {Approval} event indicating the updated allowance. This is not required by the EIP. See the note at the beginning of {ERC20}.     * Requirements:     * - `sender` and `recipient` cannot be the zero address. - `sender` must have a balance of at least `amount`. - the caller must have allowance for ``sender``'s tokens of at least `amount`."
      },
      "transferOwnership(address)": {
        "details": "Transfers ownership of the contract to a new account (`newOwner`). Can only be called by the current owner."
      }
    }
  },
  "userdoc": {
    "methods": {
      "_claimVestTokens(address,uint8,uint256)": {
        "notice": "Calculates and Transfers the total tokens to be transferred to the user by calculating the Amount of tokens to be transferred at the given time"
      },
      "addVestingDetails(address[],uint256[],uint8)": {
        "notice": "- Allows only the Owner to ADD an array of Addresses as well as their Vesting Amount - The array of user and amounts should be passed along with the vestingCategory Index.  - Thus, a particular batch of addresses shall be added under only one Vesting Category Index "
      },
      "calculateClaimableTokens(address,uint8)": {
        "notice": "Calculates the amount of tokens to be transferred at any given point of time"
      }
    }
  }
}