{
  "contractName": "PlayToken",
  "abi": [
    {
      "anonymous": false,
      "inputs": [
        {
          "indexed": true,
          "internalType": "address",
          "name": "owner",
          "type": "address"
        },
        {
          "indexed": true,
          "internalType": "address",
          "name": "spender",
          "type": "address"
        },
        {
          "indexed": false,
          "internalType": "uint256",
          "name": "value",
          "type": "uint256"
        }
      ],
      "name": "Approval",
      "type": "event"
    },
    {
      "anonymous": false,
      "inputs": [
        {
          "indexed": true,
          "internalType": "address",
          "name": "previousOwner",
          "type": "address"
        },
        {
          "indexed": true,
          "internalType": "address",
          "name": "newOwner",
          "type": "address"
        }
      ],
      "name": "OwnershipTransferred",
      "type": "event"
    },
    {
      "anonymous": false,
      "inputs": [
        {
          "indexed": false,
          "internalType": "address",
          "name": "account",
          "type": "address"
        }
      ],
      "name": "Paused",
      "type": "event"
    },
    {
      "anonymous": false,
      "inputs": [
        {
          "indexed": true,
          "internalType": "address",
          "name": "from",
          "type": "address"
        },
        {
          "indexed": true,
          "internalType": "address",
          "name": "to",
          "type": "address"
        },
        {
          "indexed": false,
          "internalType": "uint256",
          "name": "value",
          "type": "uint256"
        }
      ],
      "name": "Transfer",
      "type": "event"
    },
    {
      "anonymous": false,
      "inputs": [
        {
          "indexed": false,
          "internalType": "address",
          "name": "account",
          "type": "address"
        }
      ],
      "name": "Unpaused",
      "type": "event"
    },
    {
      "inputs": [
        {
          "internalType": "address",
          "name": "owner",
          "type": "address"
        },
        {
          "internalType": "address",
          "name": "spender",
          "type": "address"
        }
      ],
      "name": "allowance",
      "outputs": [
        {
          "internalType": "uint256",
          "name": "",
          "type": "uint256"
        }
      ],
      "stateMutability": "view",
      "type": "function",
      "constant": true
    },
    {
      "inputs": [
        {
          "internalType": "address",
          "name": "spender",
          "type": "address"
        },
        {
          "internalType": "uint256",
          "name": "amount",
          "type": "uint256"
        }
      ],
      "name": "approve",
      "outputs": [
        {
          "internalType": "bool",
          "name": "",
          "type": "bool"
        }
      ],
      "stateMutability": "nonpayable",
      "type": "function"
    },
    {
      "inputs": [
        {
          "internalType": "address",
          "name": "account",
          "type": "address"
        }
      ],
      "name": "balanceOf",
      "outputs": [
        {
          "internalType": "uint256",
          "name": "",
          "type": "uint256"
        }
      ],
      "stateMutability": "view",
      "type": "function",
      "constant": true
    },
    {
      "inputs": [],
      "name": "decimals",
      "outputs": [
        {
          "internalType": "uint8",
          "name": "",
          "type": "uint8"
        }
      ],
      "stateMutability": "view",
      "type": "function",
      "constant": true
    },
    {
      "inputs": [
        {
          "internalType": "address",
          "name": "spender",
          "type": "address"
        },
        {
          "internalType": "uint256",
          "name": "subtractedValue",
          "type": "uint256"
        }
      ],
      "name": "decreaseAllowance",
      "outputs": [
        {
          "internalType": "bool",
          "name": "",
          "type": "bool"
        }
      ],
      "stateMutability": "nonpayable",
      "type": "function"
    },
    {
      "inputs": [
        {
          "internalType": "address",
          "name": "spender",
          "type": "address"
        },
        {
          "internalType": "uint256",
          "name": "addedValue",
          "type": "uint256"
        }
      ],
      "name": "increaseAllowance",
      "outputs": [
        {
          "internalType": "bool",
          "name": "",
          "type": "bool"
        }
      ],
      "stateMutability": "nonpayable",
      "type": "function"
    },
    {
      "inputs": [],
      "name": "name",
      "outputs": [
        {
          "internalType": "string",
          "name": "",
          "type": "string"
        }
      ],
      "stateMutability": "view",
      "type": "function",
      "constant": true
    },
    {
      "inputs": [],
      "name": "owner",
      "outputs": [
        {
          "internalType": "address",
          "name": "",
          "type": "address"
        }
      ],
      "stateMutability": "view",
      "type": "function",
      "constant": true
    },
    {
      "inputs": [],
      "name": "paused",
      "outputs": [
        {
          "internalType": "bool",
          "name": "",
          "type": "bool"
        }
      ],
      "stateMutability": "view",
      "type": "function",
      "constant": true
    },
    {
      "inputs": [],
      "name": "renounceOwnership",
      "outputs": [],
      "stateMutability": "nonpayable",
      "type": "function"
    },
    {
      "inputs": [],
      "name": "symbol",
      "outputs": [
        {
          "internalType": "string",
          "name": "",
          "type": "string"
        }
      ],
      "stateMutability": "view",
      "type": "function",
      "constant": true
    },
    {
      "inputs": [],
      "name": "totalSupply",
      "outputs": [
        {
          "internalType": "uint256",
          "name": "",
          "type": "uint256"
        }
      ],
      "stateMutability": "view",
      "type": "function",
      "constant": true
    },
    {
      "inputs": [
        {
          "internalType": "address",
          "name": "recipient",
          "type": "address"
        },
        {
          "internalType": "uint256",
          "name": "amount",
          "type": "uint256"
        }
      ],
      "name": "transfer",
      "outputs": [
        {
          "internalType": "bool",
          "name": "",
          "type": "bool"
        }
      ],
      "stateMutability": "nonpayable",
      "type": "function"
    },
    {
      "inputs": [
        {
          "internalType": "address",
          "name": "sender",
          "type": "address"
        },
        {
          "internalType": "address",
          "name": "recipient",
          "type": "address"
        },
        {
          "internalType": "uint256",
          "name": "amount",
          "type": "uint256"
        }
      ],
      "name": "transferFrom",
      "outputs": [
        {
          "internalType": "bool",
          "name": "",
          "type": "bool"
        }
      ],
      "stateMutability": "nonpayable",
      "type": "function"
    },
    {
      "inputs": [
        {
          "internalType": "address",
          "name": "newOwner",
          "type": "address"
        }
      ],
      "name": "transferOwnership",
      "outputs": [],
      "stateMutability": "nonpayable",
      "type": "function"
    },
    {
      "inputs": [
        {
          "internalType": "address",
          "name": "",
          "type": "address"
        }
      ],
      "name": "userToVestingDetails",
      "outputs": [
        {
          "internalType": "uint8",
          "name": "categoryId",
          "type": "uint8"
        },
        {
          "internalType": "address",
          "name": "walletAddress",
          "type": "address"
        },
        {
          "internalType": "uint256",
          "name": "totalAmount",
          "type": "uint256"
        },
        {
          "internalType": "uint256",
          "name": "startTime",
          "type": "uint256"
        },
        {
          "internalType": "uint256",
          "name": "vestingDuration",
          "type": "uint256"
        },
        {
          "internalType": "uint256",
          "name": "vestingCliff",
          "type": "uint256"
        },
        {
          "internalType": "uint256",
          "name": "vestingPercent",
          "type": "uint256"
        },
        {
          "internalType": "uint256",
          "name": "remainingAmountToTransfer",
          "type": "uint256"
        },
        {
          "internalType": "uint256",
          "name": "totalAmountClaimed",
          "type": "uint256"
        },
        {
          "internalType": "bool",
          "name": "isVesting",
          "type": "bool"
        }
      ],
      "stateMutability": "view",
      "type": "function",
      "constant": true
    },
    {
      "inputs": [
        {
          "internalType": "uint256",
          "name": "",
          "type": "uint256"
        }
      ],
      "name": "vestCategory",
      "outputs": [
        {
          "internalType": "uint8",
          "name": "categoryId",
          "type": "uint8"
        },
        {
          "internalType": "uint256",
          "name": "cliff",
          "type": "uint256"
        },
        {
          "internalType": "uint256",
          "name": "lockUpPeriod",
          "type": "uint256"
        },
        {
          "internalType": "uint256",
          "name": "vestPercentage",
          "type": "uint256"
        },
        {
          "internalType": "uint256",
          "name": "totalAllocatedToken",
          "type": "uint256"
        }
      ],
      "stateMutability": "view",
      "type": "function",
      "constant": true
    },
    {
      "inputs": [],
      "name": "initialize",
      "outputs": [],
      "stateMutability": "nonpayable",
      "type": "function"
    },
    {
      "inputs": [],
      "name": "getCurrentTime",
      "outputs": [
        {
          "internalType": "uint256",
          "name": "",
          "type": "uint256"
        }
      ],
      "stateMutability": "view",
      "type": "function",
      "constant": true
    },
    {
      "inputs": [
        {
          "internalType": "address[]",
          "name": "_userAddresses",
          "type": "address[]"
        },
        {
          "internalType": "uint256[]",
          "name": "_vestingAmounts",
          "type": "uint256[]"
        },
        {
          "internalType": "uint8",
          "name": "_vestnigType",
          "type": "uint8"
        }
      ],
      "name": "addVestingDetails",
      "outputs": [
        {
          "internalType": "bool",
          "name": "",
          "type": "bool"
        }
      ],
      "stateMutability": "nonpayable",
      "type": "function"
    },
    {
      "inputs": [
        {
          "internalType": "address",
          "name": "_userAddresses",
          "type": "address"
        }
      ],
      "name": "getVestingRate",
      "outputs": [
        {
          "internalType": "uint256",
          "name": "",
          "type": "uint256"
        }
      ],
      "stateMutability": "view",
      "type": "function",
      "constant": true
    },
    {
      "inputs": [
        {
          "internalType": "address",
          "name": "_userAddresses",
          "type": "address"
        }
      ],
      "name": "timeElapsed",
      "outputs": [
        {
          "internalType": "uint256",
          "name": "",
          "type": "uint256"
        }
      ],
      "stateMutability": "view",
      "type": "function",
      "constant": true
    },
    {
      "inputs": [
        {
          "internalType": "address",
          "name": "_userAddresses",
          "type": "address"
        }
      ],
      "name": "calculateClaimableTokens",
      "outputs": [
        {
          "internalType": "uint256",
          "name": "",
          "type": "uint256"
        }
      ],
      "stateMutability": "view",
      "type": "function",
      "constant": true
    },
    {
      "inputs": [
        {
          "internalType": "address",
          "name": "_userAddresses",
          "type": "address"
        }
      ],
      "name": "claimVestTokens",
      "outputs": [
        {
          "internalType": "bool",
          "name": "",
          "type": "bool"
        }
      ],
      "stateMutability": "nonpayable",
      "type": "function"
    }
  ],
  "bytecode": "0x608060405234801561001057600080fd5b506147b3806100206000396000f3fe608060405234801561001057600080fd5b5060043610610175576000357c010000000000000000000000000000000000000000000000000000000090048063715018a6116100e0578063a9059cbb11610099578063a9059cbb1461076f578063dd62ed3e146107d5578063f2fde38b1461084d578063f31664ff14610891578063f864e1c51461095e578063fa3d888e146109c257610175565b8063715018a6146105d057806371f71ace146105da5780638129fc1c146106325780638da5cb5b1461063c57806395d89b4114610686578063a457c2d71461070957610175565b8063313ce56711610132578063313ce5671461038157806339509351146103a557806342087c2a1461040b57806352985d2a146104635780635c975abb1461055657806370a082311461057857610175565b806306fdde031461017a578063095ea7b3146101fd57806318160ddd146102635780631e70c8641461028157806323b872dd146102dd57806329cb924d14610363575b600080fd5b610182610a1a565b6040518080602001828103825283818151815260200191508051906020019080838360005b838110156101c25780820151818401526020810190506101a7565b50505050905090810190601f1680156101ef5780820380516001836020036101000a031916815260200191505b509250505060405180910390f35b6102496004803603604081101561021357600080fd5b81019080803573ffffffffffffffffffffffffffffffffffffffff16906020019092919080359060200190929190505050610abc565b604051808215151515815260200191505060405180910390f35b61026b610ada565b6040518082815260200191505060405180910390f35b6102c36004803603602081101561029757600080fd5b81019080803573ffffffffffffffffffffffffffffffffffffffff169060200190929190505050610ae4565b604051808215151515815260200191505060405180910390f35b610349600480360360608110156102f357600080fd5b81019080803573ffffffffffffffffffffffffffffffffffffffff169060200190929190803573ffffffffffffffffffffffffffffffffffffffff16906020019092919080359060200190929190505050610f2a565b604051808215151515815260200191505060405180910390f35b61036b611003565b6040518082815260200191505060405180910390f35b61038961100b565b604051808260ff1660ff16815260200191505060405180910390f35b6103f1600480360360408110156103bb57600080fd5b81019080803573ffffffffffffffffffffffffffffffffffffffff16906020019092919080359060200190929190505050611022565b604051808215151515815260200191505060405180910390f35b61044d6004803603602081101561042157600080fd5b81019080803573ffffffffffffffffffffffffffffffffffffffff1690602001909291905050506110d5565b6040518082815260200191505060405180910390f35b61053c6004803603606081101561047957600080fd5b810190808035906020019064010000000081111561049657600080fd5b8201836020820111156104a857600080fd5b803590602001918460208302840111640100000000831117156104ca57600080fd5b9091929391929390803590602001906401000000008111156104eb57600080fd5b8201836020820111156104fd57600080fd5b8035906020019184602083028401116401000000008311171561051f57600080fd5b9091929391929390803560ff16906020019092919050505061136f565b604051808215151515815260200191505060405180910390f35b61055e6115b6565b604051808215151515815260200191505060405180910390f35b6105ba6004803603602081101561058e57600080fd5b81019080803573ffffffffffffffffffffffffffffffffffffffff1690602001909291905050506115cd565b6040518082815260200191505060405180910390f35b6105d8611616565b005b61061c600480360360208110156105f057600080fd5b81019080803573ffffffffffffffffffffffffffffffffffffffff169060200190929190505050611786565b6040518082815260200191505060405180910390f35b61063a61198b565b005b61064461219c565b604051808273ffffffffffffffffffffffffffffffffffffffff1673ffffffffffffffffffffffffffffffffffffffff16815260200191505060405180910390f35b61068e6121c6565b6040518080602001828103825283818151815260200191508051906020019080838360005b838110156106ce5780820151818401526020810190506106b3565b50505050905090810190601f1680156106fb5780820380516001836020036101000a031916815260200191505b509250505060405180910390f35b6107556004803603604081101561071f57600080fd5b81019080803573ffffffffffffffffffffffffffffffffffffffff16906020019092919080359060200190929190505050612268565b604051808215151515815260200191505060405180910390f35b6107bb6004803603604081101561078557600080fd5b81019080803573ffffffffffffffffffffffffffffffffffffffff16906020019092919080359060200190929190505050612335565b604051808215151515815260200191505060405180910390f35b610837600480360360408110156107eb57600080fd5b81019080803573ffffffffffffffffffffffffffffffffffffffff169060200190929190803573ffffffffffffffffffffffffffffffffffffffff169060200190929190505050612353565b6040518082815260200191505060405180910390f35b61088f6004803603602081101561086357600080fd5b81019080803573ffffffffffffffffffffffffffffffffffffffff1690602001909291905050506123da565b005b6108d3600480360360208110156108a757600080fd5b81019080803573ffffffffffffffffffffffffffffffffffffffff1690602001909291905050506125cf565b604051808b60ff1660ff1681526020018a73ffffffffffffffffffffffffffffffffffffffff1673ffffffffffffffffffffffffffffffffffffffff168152602001898152602001888152602001878152602001868152602001858152602001848152602001838152602001821515151581526020019a505050505050505050505060405180910390f35b61098a6004803603602081101561097457600080fd5b810190808035906020019092919050505061265d565b604051808660ff1660ff1681526020018581526020018481526020018381526020018281526020019550505050505060405180910390f35b610a04600480360360208110156109d857600080fd5b81019080803573ffffffffffffffffffffffffffffffffffffffff1690602001909291905050506126a0565b6040518082815260200191505060405180910390f35b606060688054600181600116156101000203166002900480601f016020809104026020016040519081016040528092919081815260200182805460018160011615610100020316600290048015610ab25780601f10610a8757610100808354040283529160200191610ab2565b820191906000526020600020905b815481529060010190602001808311610a9557829003601f168201915b5050505050905090565b6000610ad0610ac9612a65565b8484612a6d565b6001905092915050565b6000606754905090565b60008160fc60008273ffffffffffffffffffffffffffffffffffffffff1673ffffffffffffffffffffffffffffffffffffffff16815260200190815260200160002060080160009054906101000a900460ff16610b8c576040517f08c379a00000000000000000000000000000000000000000000000000000000081526004018080602001828103825260268152602001806146036026913960400191505060405180910390fd5b610b9461442c565b60fc60008573ffffffffffffffffffffffffffffffffffffffff1673ffffffffffffffffffffffffffffffffffffffff168152602001908152602001600020604051806101400160405290816000820160009054906101000a900460ff1660ff1660ff1681526020016000820160019054906101000a900473ffffffffffffffffffffffffffffffffffffffff1673ffffffffffffffffffffffffffffffffffffffff1673ffffffffffffffffffffffffffffffffffffffff168152602001600182015481526020016002820154815260200160038201548152602001600482015481526020016005820154815260200160068201548152602001600782015481526020016008820160009054906101000a900460ff16151515158152505090506000610cc0856126a0565b90506000610ccd306115cd565b9050818111610d27576040517f08c379a000000000000000000000000000000000000000000000000000000000815260040180806020018281038252602481526020018061470b6024913960400191505060405180910390fd5b8260400151610d4483856101000151612c6490919063ffffffff16565b1115610db8576040517f08c379a00000000000000000000000000000000000000000000000000000000081526004018080602001828103825260208152602001807f43616e6e6f7420436c61696d206d6f7265207468616e20416c6c6f636174656481525060200191505060405180910390fd5b8183610100018181525050610dda828460e00151612cec90919063ffffffff16565b8360e001818152505060008360e001511415610e03576000836101200190151590811515815250505b8260fc60008873ffffffffffffffffffffffffffffffffffffffff1673ffffffffffffffffffffffffffffffffffffffff16815260200190815260200160002060008201518160000160006101000a81548160ff021916908360ff16021790555060208201518160000160016101000a81548173ffffffffffffffffffffffffffffffffffffffff021916908373ffffffffffffffffffffffffffffffffffffffff16021790555060408201518160010155606082015181600201556080820151816003015560a0820151816004015560c0820151816005015560e0820151816006015561010082015181600701556101208201518160080160006101000a81548160ff021916908315150217905550905050610f208683612d6f565b5050505050919050565b6000610f37848484612d86565b610ff884610f43612a65565b610ff38560405180606001604052806028815260200161469a60289139606660008b73ffffffffffffffffffffffffffffffffffffffff1673ffffffffffffffffffffffffffffffffffffffff1681526020019081526020016000206000610fa9612a65565b73ffffffffffffffffffffffffffffffffffffffff1673ffffffffffffffffffffffffffffffffffffffff1681526020019081526020016000205461304b9092919063ffffffff16565b612a6d565b600190509392505050565b600042905090565b6000606a60009054906101000a900460ff16905090565b60006110cb61102f612a65565b846110c68560666000611040612a65565b73ffffffffffffffffffffffffffffffffffffffff1673ffffffffffffffffffffffffffffffffffffffff16815260200190815260200160002060008973ffffffffffffffffffffffffffffffffffffffff1673ffffffffffffffffffffffffffffffffffffffff16815260200190815260200160002054612c6490919063ffffffff16565b612a6d565b6001905092915050565b60008160fc60008273ffffffffffffffffffffffffffffffffffffffff1673ffffffffffffffffffffffffffffffffffffffff16815260200190815260200160002060080160009054906101000a900460ff1661117d576040517f08c379a00000000000000000000000000000000000000000000000000000000081526004018080602001828103825260268152602001806146036026913960400191505060405180910390fd5b61118561442c565b60fc60008573ffffffffffffffffffffffffffffffffffffffff1673ffffffffffffffffffffffffffffffffffffffff168152602001908152602001600020604051806101400160405290816000820160009054906101000a900460ff1660ff1660ff1681526020016000820160019054906101000a900473ffffffffffffffffffffffffffffffffffffffff1673ffffffffffffffffffffffffffffffffffffffff1673ffffffffffffffffffffffffffffffffffffffff168152602001600182015481526020016002820154815260200160038201548152602001600482015481526020016005820154815260200160068201548152602001600782015481526020016008820160009054906101000a900460ff161515151581525050905060008060008360600151905060006112bc611003565b905060006112d78660a0015184612c6490919063ffffffff16565b905060006112f2876080015185612c6490919063ffffffff16565b905060006113098585612cec90919063ffffffff16565b90506000611315613105565b9050600061132c828461311090919063ffffffff16565b9050600061135961134a848d60a0015161311090919063ffffffff16565b83612cec90919063ffffffff16565b9050809c50505050505050505050505050919050565b6000611379612a65565b73ffffffffffffffffffffffffffffffffffffffff1661139761219c565b73ffffffffffffffffffffffffffffffffffffffff1614611420576040517f08c379a00000000000000000000000000000000000000000000000000000000081526004018080602001828103825260208152602001807f4f776e61626c653a2063616c6c6572206973206e6f7420746865206f776e657281525060200191505060405180910390fd5b83839050868690501461149b576040517f08c379a00000000000000000000000000000000000000000000000000000000081526004018080602001828103825260158152602001807f556e657175616c2061727261797320706173736564000000000000000000000081525060200191505060405180910390fd5b6114a361449a565b60fb60008460ff1681526020019081526020016000206040518060a00160405290816000820160009054906101000a900460ff1660ff1660ff1681526020016001820154815260200160028201548152602001600382015481526020016004820154815250509050600087879050905060008090505b818110156115a657600085905060008a8a8481811061153457fe5b9050602002013573ffffffffffffffffffffffffffffffffffffffff169050600089898581811061156157fe5b905060200201359050600086604001519050600087602001519050600088606001519050611593858786858786613199565b5050505050508080600101915050611519565b5060019250505095945050505050565b6000609760009054906101000a900460ff16905090565b6000606560008373ffffffffffffffffffffffffffffffffffffffff1673ffffffffffffffffffffffffffffffffffffffff168152602001908152602001600020549050919050565b61161e612a65565b73ffffffffffffffffffffffffffffffffffffffff1661163c61219c565b73ffffffffffffffffffffffffffffffffffffffff16146116c5576040517f08c379a00000000000000000000000000000000000000000000000000000000081526004018080602001828103825260208152602001807f4f776e61626c653a2063616c6c6572206973206e6f7420746865206f776e657281525060200191505060405180910390fd5b600073ffffffffffffffffffffffffffffffffffffffff16603360009054906101000a900473ffffffffffffffffffffffffffffffffffffffff1673ffffffffffffffffffffffffffffffffffffffff167f8be0079c531659141344cd1fd0a4f28419497f9722a3daafe3b4186f6b6457e060405160405180910390a36000603360006101000a81548173ffffffffffffffffffffffffffffffffffffffff021916908373ffffffffffffffffffffffffffffffffffffffff160217905550565b60008160fc60008273ffffffffffffffffffffffffffffffffffffffff1673ffffffffffffffffffffffffffffffffffffffff16815260200190815260200160002060080160009054906101000a900460ff1661182e576040517f08c379a00000000000000000000000000000000000000000000000000000000081526004018080602001828103825260268152602001806146036026913960400191505060405180910390fd5b600061183861442c565b60fc60008673ffffffffffffffffffffffffffffffffffffffff1673ffffffffffffffffffffffffffffffffffffffff168152602001908152602001600020604051806101400160405290816000820160009054906101000a900460ff1660ff1660ff1681526020016000820160019054906101000a900473ffffffffffffffffffffffffffffffffffffffff1673ffffffffffffffffffffffffffffffffffffffff1673ffffffffffffffffffffffffffffffffffffffff168152602001600182015481526020016002820154815260200160038201548152602001600482015481526020016005820154815260200160068201548152602001600782015481526020016008820160009054906101000a900460ff16151515158152505090506006816000015160ff1611611974578060c001519150611980565b61197d856134f9565b91505b819350505050919050565b600060019054906101000a900460ff16806119aa57506119a96137f7565b5b806119c157506000809054906101000a900460ff16155b611a16576040517f08c379a000000000000000000000000000000000000000000000000000000000815260040180806020018281038252602e815260200180614629602e913960400191505060405180910390fd5b60008060019054906101000a900460ff161590508015611a66576001600060016101000a81548160ff02191690831515021790555060016000806101000a81548160ff0219169083151502179055505b611a6e613808565b611ae26040518060400160405280600881526020017f506c617963656e740000000000000000000000000000000000000000000000008152506040518060400160405280600481526020017f50434e5400000000000000000000000000000000000000000000000000000000815250613917565b611aea613a2a565b611b06611af561219c565b6a31a17e847807b1bc000000613b41565b6040518060a00160405280600060ff1681526020016301e133808152602001630502c3808152602001674563918244f4000081526020016a0771d2fa45345aa900000081525060fb600080815260200190815260200160002060008201518160000160006101000a81548160ff021916908360ff160217905550602082015181600101556040820151816002015560608201518160030155608082015181600401559050506040518060a00160405280600160ff1681526020016277f8808152602001630208c0808152602001678ac7230489e8000081526020016a03f870857a3e0e3800000081525060fb60006001815260200190815260200160002060008201518160000160006101000a81548160ff021916908360ff160217905550602082015181600101556040820151816002015560608201518160030155608082015181600401559050506040518060a00160405280600260ff1681526020016277f8808152602001630208c0808152602001678ac7230489e8000081526020016a03f870857a3e0e3800000081525060fb60006002815260200190815260200160002060008201518160000160006101000a81548160ff021916908360ff160217905550602082015181600101556040820151816002015560608201518160030155608082015181600401559050506040518060a00160405280600360ff16815260200162278d0081526020016301b855008152602001678ac7230489e8000081526020016a01fc3842bd1f071c00000081525060fb60006003815260200190815260200160002060008201518160000160006101000a81548160ff021916908360ff160217905550602082015181600101556040820151816002015560608201518160030155608082015181600401559050506040518060a00160405280600460ff168152602001630118cf8081526020016301b855008152602001678ac7230489e8000081526020016a03f870857a3e0e3800000081525060fb60006004815260200190815260200160002060008201518160000160006101000a81548160ff021916908360ff160217905550602082015181600101556040820151816002015560608201518160030155608082015181600401559050506040518060a00160405280600560ff1681526020016277f88081526020016304633e008152602001673782dace9d90000081526020016a0771d2fa45345aa900000081525060fb60006005815260200190815260200160002060008201518160000160006101000a81548160ff021916908360ff160217905550602082015181600101556040820151816002015560608201518160030155608082015181600401559050506040518060a00160405280600660ff16815260200162eff10081526020016304b258008152602001670de0b6b3a764000081526020016a03796274caf64c7100000081525060fb60006006815260200190815260200160002060008201518160000160006101000a81548160ff021916908360ff160217905550602082015181600101556040820151816002015560608201518160030155608082015181600401559050506040518060a00160405280600760ff168152602001624f1a008152602001630118cf808152602001678ac7230489e8000081526020016a04b7059e8129b0e280000081525060fb60006007815260200190815260200160002060008201518160000160006101000a81548160ff021916908360ff160217905550602082015181600101556040820151816002015560608201518160030155608082015181600401559050506040518060a00160405280600860ff168152602001624f1a00815260200162c5c100815260200167d02ab486cedc000081526020016a04777e962985cfff00000081525060fb60006008815260200190815260200160002060008201518160000160006101000a81548160ff021916908360ff160217905550602082015181600101556040820151816002015560608201518160030155608082015181600401559050506040518060a00160405280600960ff168152602001624f1a008152602001629e340081526020016801158e460913d0000081526020016a0437f78dd1e1ef1b80000081525060fb60006009815260200190815260200160002060008201518160000160006101000a81548160ff021916908360ff1602179055506020820151816001015560408201518160020155606082015181600301556080820151816004015590505080156121995760008060016101000a81548160ff0219169083151502179055505b50565b6000603360009054906101000a900473ffffffffffffffffffffffffffffffffffffffff16905090565b606060698054600181600116156101000203166002900480601f01602080910402602001604051908101604052809291908181526020018280546001816001161561010002031660029004801561225e5780601f106122335761010080835404028352916020019161225e565b820191906000526020600020905b81548152906001019060200180831161224157829003601f168201915b5050505050905090565b600061232b612275612a65565b846123268560405180606001604052806025815260200161472f602591396066600061229f612a65565b73ffffffffffffffffffffffffffffffffffffffff1673ffffffffffffffffffffffffffffffffffffffff16815260200190815260200160002060008a73ffffffffffffffffffffffffffffffffffffffff1673ffffffffffffffffffffffffffffffffffffffff1681526020019081526020016000205461304b9092919063ffffffff16565b612a6d565b6001905092915050565b6000612349612342612a65565b8484612d86565b6001905092915050565b6000606660008473ffffffffffffffffffffffffffffffffffffffff1673ffffffffffffffffffffffffffffffffffffffff16815260200190815260200160002060008373ffffffffffffffffffffffffffffffffffffffff1673ffffffffffffffffffffffffffffffffffffffff16815260200190815260200160002054905092915050565b6123e2612a65565b73ffffffffffffffffffffffffffffffffffffffff1661240061219c565b73ffffffffffffffffffffffffffffffffffffffff1614612489576040517f08c379a00000000000000000000000000000000000000000000000000000000081526004018080602001828103825260208152602001807f4f776e61626c653a2063616c6c6572206973206e6f7420746865206f776e657281525060200191505060405180910390fd5b600073ffffffffffffffffffffffffffffffffffffffff168173ffffffffffffffffffffffffffffffffffffffff16141561250f576040517f08c379a00000000000000000000000000000000000000000000000000000000081526004018080602001828103825260268152602001806145956026913960400191505060405180910390fd5b8073ffffffffffffffffffffffffffffffffffffffff16603360009054906101000a900473ffffffffffffffffffffffffffffffffffffffff1673ffffffffffffffffffffffffffffffffffffffff167f8be0079c531659141344cd1fd0a4f28419497f9722a3daafe3b4186f6b6457e060405160405180910390a380603360006101000a81548173ffffffffffffffffffffffffffffffffffffffff021916908373ffffffffffffffffffffffffffffffffffffffff16021790555050565b60fc6020528060005260406000206000915090508060000160009054906101000a900460ff16908060000160019054906101000a900473ffffffffffffffffffffffffffffffffffffffff16908060010154908060020154908060030154908060040154908060050154908060060154908060070154908060080160009054906101000a900460ff1690508a565b60fb6020528060005260406000206000915090508060000160009054906101000a900460ff16908060010154908060020154908060030154908060040154905085565b60008160fc60008273ffffffffffffffffffffffffffffffffffffffff1673ffffffffffffffffffffffffffffffffffffffff16815260200190815260200160002060080160009054906101000a900460ff16612748576040517f08c379a00000000000000000000000000000000000000000000000000000000081526004018080602001828103825260268152602001806146036026913960400191505060405180910390fd5b61275061442c565b60fc60008573ffffffffffffffffffffffffffffffffffffffff1673ffffffffffffffffffffffffffffffffffffffff168152602001908152602001600020604051806101400160405290816000820160009054906101000a900460ff1660ff1660ff1681526020016000820160019054906101000a900473ffffffffffffffffffffffffffffffffffffffff1673ffffffffffffffffffffffffffffffffffffffff1673ffffffffffffffffffffffffffffffffffffffff168152602001600182015481526020016002820154815260200160038201548152602001600482015481526020016005820154815260200160068201548152602001600782015481526020016008820160009054906101000a900460ff16151515158152505090506000806000836060015190506000612887611003565b905060006128a28660a0015184612c6490919063ffffffff16565b905060006128bd876080015185612c6490919063ffffffff16565b905060006128d48585612cec90919063ffffffff16565b905060006128e0613105565b90506128eb8c611786565b9750838510156129075760009a50505050505050505050612a5f565b828511156129325761292b8961010001518a60400151612cec90919063ffffffff16565b9650612a52565b600061296668056bc75e2d631000006129588b8d60400151613d0a90919063ffffffff16565b61311090919063ffffffff16565b9050600061297d838561311090919063ffffffff16565b905060006129aa61299b858e60a0015161311090919063ffffffff16565b83612cec90919063ffffffff16565b905060008111612a22576040517f08c379a00000000000000000000000000000000000000000000000000000000081526004018080602001828103825260208152602001807f4e756d626572206f66206d6f6e74687320656c6170736564206973205a45524f81525060200191505060405180910390fd5b612a4c8c6101000151612a3e8386613d0a90919063ffffffff16565b612cec90919063ffffffff16565b99505050505b869a505050505050505050505b50919050565b600033905090565b600073ffffffffffffffffffffffffffffffffffffffff168373ffffffffffffffffffffffffffffffffffffffff161415612af3576040517f08c379a00000000000000000000000000000000000000000000000000000000081526004018080602001828103825260248152602001806146e76024913960400191505060405180910390fd5b600073ffffffffffffffffffffffffffffffffffffffff168273ffffffffffffffffffffffffffffffffffffffff161415612b79576040517f08c379a00000000000000000000000000000000000000000000000000000000081526004018080602001828103825260228152602001806145bb6022913960400191505060405180910390fd5b80606660008573ffffffffffffffffffffffffffffffffffffffff1673ffffffffffffffffffffffffffffffffffffffff16815260200190815260200160002060008473ffffffffffffffffffffffffffffffffffffffff1673ffffffffffffffffffffffffffffffffffffffff168152602001908152602001600020819055508173ffffffffffffffffffffffffffffffffffffffff168373ffffffffffffffffffffffffffffffffffffffff167f8c5be1e5ebec7d5bd14f71427d1e84f3dd0314c0f7b2291e5b200ac8c7c3b925836040518082815260200191505060405180910390a3505050565b600080828401905083811015612ce2576040517f08c379a000000000000000000000000000000000000000000000000000000000815260040180806020018281038252601b8152602001807f536166654d6174683a206164646974696f6e206f766572666c6f77000000000081525060200191505060405180910390fd5b8091505092915050565b600082821115612d64576040517f08c379a000000000000000000000000000000000000000000000000000000000815260040180806020018281038252601e8152602001807f536166654d6174683a207375627472616374696f6e206f766572666c6f77000081525060200191505060405180910390fd5b818303905092915050565b6000612d7b8383612335565b506001905092915050565b600073ffffffffffffffffffffffffffffffffffffffff168373ffffffffffffffffffffffffffffffffffffffff161415612e0c576040517f08c379a00000000000000000000000000000000000000000000000000000000081526004018080602001828103825260258152602001806146c26025913960400191505060405180910390fd5b600073ffffffffffffffffffffffffffffffffffffffff168273ffffffffffffffffffffffffffffffffffffffff161415612e92576040517f08c379a00000000000000000000000000000000000000000000000000000000081526004018080602001828103825260238152602001806145726023913960400191505060405180910390fd5b612e9d838383613d90565b612f09816040518060600160405280602681526020016145dd60269139606560008773ffffffffffffffffffffffffffffffffffffffff1673ffffffffffffffffffffffffffffffffffffffff1681526020019081526020016000205461304b9092919063ffffffff16565b606560008573ffffffffffffffffffffffffffffffffffffffff1673ffffffffffffffffffffffffffffffffffffffff16815260200190815260200160002081905550612f9e81606560008573ffffffffffffffffffffffffffffffffffffffff1673ffffffffffffffffffffffffffffffffffffffff16815260200190815260200160002054612c6490919063ffffffff16565b606560008473ffffffffffffffffffffffffffffffffffffffff1673ffffffffffffffffffffffffffffffffffffffff168152602001908152602001600020819055508173ffffffffffffffffffffffffffffffffffffffff168373ffffffffffffffffffffffffffffffffffffffff167fddf252ad1be2c89b69c2b068fc378daa952ba7f163c4a11628f55a4df523b3ef836040518082815260200191505060405180910390a3505050565b60008383111582906130f8576040517f08c379a00000000000000000000000000000000000000000000000000000000081526004018080602001828103825283818151815260200191508051906020019080838360005b838110156130bd5780820151818401526020810190506130a2565b50505050905090810190601f1680156130ea5780820380516001836020036101000a031916815260200191505b509250505060405180910390fd5b5082840390509392505050565b600062278d00905090565b6000808211613187576040517f08c379a000000000000000000000000000000000000000000000000000000000815260040180806020018281038252601a8152602001807f536166654d6174683a206469766973696f6e206279207a65726f00000000000081525060200191505060405180910390fd5b81838161319057fe5b04905092915050565b858560008160ff16101580156131b3575060098160ff1611155b613225576040517f08c379a00000000000000000000000000000000000000000000000000000000081526004018080602001828103825260158152602001807f496e76616c69642056657374696e6720496e646578000000000000000000000081525060200191505060405180910390fd5b600073ffffffffffffffffffffffffffffffffffffffff168273ffffffffffffffffffffffffffffffffffffffff1614156132c8576040517f08c379a000000000000000000000000000000000000000000000000000000000815260040180806020018281038252600f8152602001807f496e76616c69642041646472657373000000000000000000000000000000000081525060200191505060405180910390fd5b60fc60008373ffffffffffffffffffffffffffffffffffffffff1673ffffffffffffffffffffffffffffffffffffffff16815260200190815260200160002060080160009054906101000a900460ff161561336e576040517f08c379a00000000000000000000000000000000000000000000000000000000081526004018080602001828103825260228152602001806146576022913960400191505060405180910390fd5b61337661442c565b6040518061014001604052808960ff1681526020018a73ffffffffffffffffffffffffffffffffffffffff168152602001888152602001428152602001868152602001878152602001858152602001888152602001600081526020016001151581525090508060fc60008b73ffffffffffffffffffffffffffffffffffffffff1673ffffffffffffffffffffffffffffffffffffffff16815260200190815260200160002060008201518160000160006101000a81548160ff021916908360ff16021790555060208201518160000160016101000a81548173ffffffffffffffffffffffffffffffffffffffff021916908373ffffffffffffffffffffffffffffffffffffffff16021790555060408201518160010155606082015181600201556080820151816003015560a0820151816004015560c0820151816005015560e0820151816006015561010082015181600701556101208201518160080160006101000a81548160ff021916908315150217905550905050505050505050505050565b600061350361442c565b60fc60008473ffffffffffffffffffffffffffffffffffffffff1673ffffffffffffffffffffffffffffffffffffffff168152602001908152602001600020604051806101400160405290816000820160009054906101000a900460ff1660ff1660ff1681526020016000820160019054906101000a900473ffffffffffffffffffffffffffffffffffffffff1673ffffffffffffffffffffffffffffffffffffffff1673ffffffffffffffffffffffffffffffffffffffff168152602001600182015481526020016002820154815260200160038201548152602001600482015481526020016005820154815260200160068201548152602001600782015481526020016008820160009054906101000a900460ff161515151581525050905060008160000151905060078160ff1610158015613645575060098160ff1611155b6136b7576040517f08c379a00000000000000000000000000000000000000000000000000000000081526004018080602001828103825260178152602001807f496e76616c69642053616c65205665737420496e64657800000000000000000081525060200191505060405180910390fd5b60006136c1611003565b905060008360600151905060006136e18284612cec90919063ffffffff16565b905060006136ed613dfe565b90506000613704828461311090919063ffffffff16565b9050600060078760ff16141561373757603c82118015613725575060d58211155b156137365767d02ab486cedc000090505b5b60088760ff16141561378f57603c82118015613754575060788211155b1561376a576801158e460913d00000905061378e565b60788211801561377b575060968211155b1561378d5768015af1d78b58c4000090505b5b5b60098760ff1614156137e757603c821180156137ac5750605a8211155b156137c2576801158e460913d0000090506137e6565b605a821180156137d3575060788211155b156137e5576801a055690d9db8000090505b5b5b8098505050505050505050919050565b600061380230613e09565b15905090565b600060019054906101000a900460ff168061382757506138266137f7565b5b8061383e57506000809054906101000a900460ff16155b613893576040517f08c379a000000000000000000000000000000000000000000000000000000000815260040180806020018281038252602e815260200180614629602e913960400191505060405180910390fd5b60008060019054906101000a900460ff1615905080156138e3576001600060016101000a81548160ff02191690831515021790555060016000806101000a81548160ff0219169083151502179055505b6138eb613e1c565b6138f3613f1b565b80156139145760008060016101000a81548160ff0219169083151502179055505b50565b600060019054906101000a900460ff168061393657506139356137f7565b5b8061394d57506000809054906101000a900460ff16155b6139a2576040517f08c379a000000000000000000000000000000000000000000000000000000000815260040180806020018281038252602e815260200180614629602e913960400191505060405180910390fd5b60008060019054906101000a900460ff1615905080156139f2576001600060016101000a81548160ff02191690831515021790555060016000806101000a81548160ff0219169083151502179055505b6139fa613e1c565b613a0483836140c3565b8015613a255760008060016101000a81548160ff0219169083151502179055505b505050565b600060019054906101000a900460ff1680613a495750613a486137f7565b5b80613a6057506000809054906101000a900460ff16155b613ab5576040517f08c379a000000000000000000000000000000000000000000000000000000000815260040180806020018281038252602e815260200180614629602e913960400191505060405180910390fd5b60008060019054906101000a900460ff161590508015613b05576001600060016101000a81548160ff02191690831515021790555060016000806101000a81548160ff0219169083151502179055505b613b0d613e1c565b613b1561420e565b613b1d614328565b8015613b3e5760008060016101000a81548160ff0219169083151502179055505b50565b600073ffffffffffffffffffffffffffffffffffffffff168273ffffffffffffffffffffffffffffffffffffffff161415613be4576040517f08c379a000000000000000000000000000000000000000000000000000000000815260040180806020018281038252601f8152602001807f45524332303a206d696e7420746f20746865207a65726f20616464726573730081525060200191505060405180910390fd5b613bf060008383613d90565b613c0581606754612c6490919063ffffffff16565b606781905550613c5d81606560008573ffffffffffffffffffffffffffffffffffffffff1673ffffffffffffffffffffffffffffffffffffffff16815260200190815260200160002054612c6490919063ffffffff16565b606560008473ffffffffffffffffffffffffffffffffffffffff1673ffffffffffffffffffffffffffffffffffffffff168152602001908152602001600020819055508173ffffffffffffffffffffffffffffffffffffffff16600073ffffffffffffffffffffffffffffffffffffffff167fddf252ad1be2c89b69c2b068fc378daa952ba7f163c4a11628f55a4df523b3ef836040518082815260200191505060405180910390a35050565b600080831415613d1d5760009050613d8a565b6000828402905082848281613d2e57fe5b0414613d85576040517f08c379a00000000000000000000000000000000000000000000000000000000081526004018080602001828103825260218152602001806146796021913960400191505060405180910390fd5b809150505b92915050565b613d9b838383614427565b613da36115b6565b15613df9576040517f08c379a000000000000000000000000000000000000000000000000000000000815260040180806020018281038252602a815260200180614754602a913960400191505060405180910390fd5b505050565b600062015180905090565b600080823b905060008111915050919050565b600060019054906101000a900460ff1680613e3b5750613e3a6137f7565b5b80613e5257506000809054906101000a900460ff16155b613ea7576040517f08c379a000000000000000000000000000000000000000000000000000000000815260040180806020018281038252602e815260200180614629602e913960400191505060405180910390fd5b60008060019054906101000a900460ff161590508015613ef7576001600060016101000a81548160ff02191690831515021790555060016000806101000a81548160ff0219169083151502179055505b8015613f185760008060016101000a81548160ff0219169083151502179055505b50565b600060019054906101000a900460ff1680613f3a5750613f396137f7565b5b80613f5157506000809054906101000a900460ff16155b613fa6576040517f08c379a000000000000000000000000000000000000000000000000000000000815260040180806020018281038252602e815260200180614629602e913960400191505060405180910390fd5b60008060019054906101000a900460ff161590508015613ff6576001600060016101000a81548160ff02191690831515021790555060016000806101000a81548160ff0219169083151502179055505b6000614000612a65565b905080603360006101000a81548173ffffffffffffffffffffffffffffffffffffffff021916908373ffffffffffffffffffffffffffffffffffffffff1602179055508073ffffffffffffffffffffffffffffffffffffffff16600073ffffffffffffffffffffffffffffffffffffffff167f8be0079c531659141344cd1fd0a4f28419497f9722a3daafe3b4186f6b6457e060405160405180910390a35080156140c05760008060016101000a81548160ff0219169083151502179055505b50565b600060019054906101000a900460ff16806140e257506140e16137f7565b5b806140f957506000809054906101000a900460ff16155b61414e576040517f08c379a000000000000000000000000000000000000000000000000000000000815260040180806020018281038252602e815260200180614629602e913960400191505060405180910390fd5b60008060019054906101000a900460ff16159050801561419e576001600060016101000a81548160ff02191690831515021790555060016000806101000a81548160ff0219169083151502179055505b82606890805190602001906141b49291906144cc565b5081606990805190602001906141cb9291906144cc565b506012606a60006101000a81548160ff021916908360ff16021790555080156142095760008060016101000a81548160ff0219169083151502179055505b505050565b600060019054906101000a900460ff168061422d575061422c6137f7565b5b8061424457506000809054906101000a900460ff16155b614299576040517f08c379a000000000000000000000000000000000000000000000000000000000815260040180806020018281038252602e815260200180614629602e913960400191505060405180910390fd5b60008060019054906101000a900460ff1615905080156142e9576001600060016101000a81548160ff02191690831515021790555060016000806101000a81548160ff0219169083151502179055505b6000609760006101000a81548160ff02191690831515021790555080156143255760008060016101000a81548160ff0219169083151502179055505b50565b600060019054906101000a900460ff168061434757506143466137f7565b5b8061435e57506000809054906101000a900460ff16155b6143b3576040517f08c379a000000000000000000000000000000000000000000000000000000000815260040180806020018281038252602e815260200180614629602e913960400191505060405180910390fd5b60008060019054906101000a900460ff161590508015614403576001600060016101000a81548160ff02191690831515021790555060016000806101000a81548160ff0219169083151502179055505b80156144245760008060016101000a81548160ff0219169083151502179055505b50565b505050565b604051806101400160405280600060ff168152602001600073ffffffffffffffffffffffffffffffffffffffff168152602001600081526020016000815260200160008152602001600081526020016000815260200160008152602001600081526020016000151581525090565b6040518060a00160405280600060ff168152602001600081526020016000815260200160008152602001600081525090565b828054600181600116156101000203166002900490600052602060002090601f016020900481019282601f1061450d57805160ff191683800117855561453b565b8280016001018555821561453b579182015b8281111561453a57825182559160200191906001019061451f565b5b509050614548919061454c565b5090565b61456e91905b8082111561456a576000816000905550600101614552565b5090565b9056fe45524332303a207472616e7366657220746f20746865207a65726f20616464726573734f776e61626c653a206e6577206f776e657220697320746865207a65726f206164647265737345524332303a20617070726f766520746f20746865207a65726f206164647265737345524332303a207472616e7366657220616d6f756e7420657863656564732062616c616e636555736572204e4f5420616464656420746f20616e792056657374696e672043617465676f7279496e697469616c697a61626c653a20636f6e747261637420697320616c726561647920696e697469616c697a6564557365722056657374696e672044657461696c7320416c7265616479204164646564536166654d6174683a206d756c7469706c69636174696f6e206f766572666c6f7745524332303a207472616e7366657220616d6f756e74206578636565647320616c6c6f77616e636545524332303a207472616e736665722066726f6d20746865207a65726f206164647265737345524332303a20617070726f76652066726f6d20746865207a65726f20616464726573734e6f7420456e6f75676820546f6b656e2042616c616e636520696e20436f6e747261637445524332303a2064656372656173656420616c6c6f77616e63652062656c6f77207a65726f45524332305061757361626c653a20746f6b656e207472616e73666572207768696c6520706175736564a26469706673582212207a17fdad74edcc3a5044455cbce21f25e84b536bf70ecf63296f60c5288432ca64736f6c63430006020033",
  "source": "pragma solidity 0.6.2;\n// SPDX-License-Identifier: MIT\n\nimport \"@openzeppelin/contracts-upgradeable/token/ERC20/ERC20Upgradeable.sol\";\nimport \"@openzeppelin/contracts-upgradeable/math/SafeMathUpgradeable.sol\";\nimport \"@openzeppelin/contracts-upgradeable/access/OwnableUpgradeable.sol\";\nimport \"@openzeppelin/contracts-upgradeable/proxy/Initializable.sol\";\nimport \"@openzeppelin/contracts-upgradeable/token/ERC20/ERC20PausableUpgradeable.sol\";\nimport \"@openzeppelin/contracts-upgradeable/math/SafeMathUpgradeable.sol\";\n\n\ncontract PlayToken is Initializable,OwnableUpgradeable,ERC20PausableUpgradeable{\n\tusing SafeMathUpgradeable for uint;\n\t/**\n\t * Category 0 - Team\n\t * Category 1 - Operations\n\t * Category 2 - Marketing/Partners\n\t * Category 3 - Advisors\n\t * Category 4 - Staking/Earn Incentives\n\t * Category 5 - Play/Mining\n\t * Category 6 - Reserve\n\t * Category 7 - Seed Sale\n\t * Category 8 - Private 1\n\t * Category 9 - Private 2\n\t */\n\tstruct vestingDetails{\n\t\tuint8 categoryId;\n\t\tuint cliff;\n\t\tuint lockUpPeriod;\n\t\tuint vestPercentage;\n\t\tuint totalAllocatedToken;\n\t}\n\n\tstruct vestAccountDetails{\n\t\tuint8 categoryId;\n\t\taddress walletAddress;\n\t\tuint totalAmount;\n\t\tuint startTime;\n\t\tuint vestingDuration;\n\t\tuint vestingCliff;\n\t\tuint vestingPercent;\n\t\tuint remainingAmountToTransfer;\n\t\tuint totalAmountClaimed;\n\t\tbool isVesting;\n\t}\n\n\tmapping (uint => vestingDetails) public vestCategory;\n\tmapping(address => vestAccountDetails) public userToVestingDetails;\n\t\n\tfunction initialize() initializer public{\n\t\t__Ownable_init();\n        __ERC20_init('Playcent','PCNT');\t\t\n\t\t__ERC20Pausable_init();\n\t\t_mint(owner(),60000000 ether);\n \t\t\n \t\tvestCategory[0] = vestingDetails(0,365 days,973 days,5000000000000000000,9000000 ether); // Team\n\t\tvestCategory[1] = vestingDetails(1,91 days, 395 days,10000000000000000000,4800000 ether); // Operations\n\t\tvestCategory[2] = vestingDetails(2,91 days, 395 days,10000000000000000000,4800000 ether); // Marketing/Partners\n\t\tvestCategory[3] = vestingDetails(3,30 days, 334 days,10000000000000000000,2400000 ether); // Advisors\n\t\tvestCategory[4] = vestingDetails(4,213 days, 334 days,10000000000000000000,4800000 ether); //Staking/Early Incentive Rewards\n\t\tvestCategory[5] = vestingDetails(5,91 days, 852 days,4000000000000000000,9000000 ether); //Play Mining\t\n\t\tvestCategory[6] = vestingDetails(6,182 days, 912 days,1000000000000000000,4200000 ether); //Reserve\t\n\t\t// Sale Vesting Strategies\n\t\tvestCategory[7] = vestingDetails(7,60 days,213 days,10000000000000000000,5700000 ether); // Seed Sale\n\t\tvestCategory[8] = vestingDetails(8,60 days,150 days,15000000000000000000,5400000 ether); // Private Sale 1\n\t\tvestCategory[9] = vestingDetails(9,60 days,120 days,20000000000000000000,5100000 ether); // Private Sale 2\n\t}\n\n\n\tmodifier onlyValidVestingBenifciary(address _userAddresses,uint8 _vestingIndex) { \n\t\trequire(_vestingIndex >= 0 && _vestingIndex <= 9,\"Invalid Vesting Index\");\t\t  \n\t\trequire (_userAddresses != address(0),\"Invalid Address\");\n\t\trequire (!userToVestingDetails[_userAddresses].isVesting,\"User Vesting Details Already Added\");\n\t\t_; \n\t}\n\n\tmodifier checkValidVestingCategory(uint8 _index){ \n\t\trequire(_index >= 0 && _index <= 9,\"Invalid Vesting Index\");\n\t\t_; \n\t}\n\n\tmodifier checkVestingStatus(address _userAddresses){ \n\t \trequire (userToVestingDetails[_userAddresses].isVesting,\"User NOT added to any Vesting Category\");\n\t\t_; \n\t}\n\n\tfunction getCurrentTime() public view returns(uint256){\n\t\treturn block.timestamp;\n\t}\t\n\n\tfunction monthInSeconds() internal pure returns(uint256){\t\t\n\t\treturn 2592000;\n\t}\n\t\n\tfunction daysInSeconds() internal pure returns(uint256){\t\t\n\t\treturn 86400;\n\t}\n\t/**\n\t * @notice - Allows only the Owner to ADD an array of Addresses as well as their Vesting Amount\n\t \t\t   - The array of user and amounts should be passed along with the vestingCategory Index. \n\t \t\t   - Thus, a particular batch of addresses shall be added under only one Vesting Category Index \n\t * @param _userAddresses array of addresses of the Users\n\t * @param _vestingAmounts array of amounts to be vested\n\t * @param _vestnigType allows the owner to select the type of vesting category\n\t * @return - true if Function executes successfully\n\t */\n\n\tfunction addVestingDetails(address[] calldata _userAddresses, uint256[] calldata _vestingAmounts, uint8 _vestnigType) external onlyOwner returns(bool){\n\t\trequire(_userAddresses.length == _vestingAmounts.length,\"Unequal arrays passed\");\n\n\t\tvestingDetails memory vestData = vestCategory[_vestnigType];\n\t\tuint arrayLength = _userAddresses.length;\n\n\t\tfor(uint i= 0; i<arrayLength; i++){\n\t\t\tuint8 categoryId = _vestnigType;\n\t\t\taddress user = _userAddresses[i];\n\t\t\tuint256 amount = _vestingAmounts[i];\n\t\t\tuint256 vestingDuration = vestData.lockUpPeriod;\n\t\t\tuint256 vestingCliff = vestData.cliff;\n\t\t\tuint256 vestPercent = vestData.vestPercentage;\n\n\n\t\t\taddUserVestingDetails(user,categoryId,amount,vestingCliff,vestingDuration,vestPercent);\n\t\t}\n\t\treturn true;\n\t}\n\n\n\t/** @notice - Internal functions that is initializes the vestAccountDetails Struct with the respective arguments passed\n\t * @param _userAddresses addresses of the User\n\t * @param _totalAmount total amount to be lockedUp\n\t * @param _categoryId denotes the type of vesting selected\n\t * @param _vestingCliff denotes the cliff of the vesting category selcted\n\t * @param _vestingDuration denotes the total duration of the vesting category selcted\n\t * @param _vestPercent denotes the percentage of total amount to be vested after cliff period\n\t */\n\t \n\tfunction addUserVestingDetails(address _userAddresses, uint8 _categoryId, uint256 _totalAmount, uint256 _vestingCliff, uint256 _vestingDuration,uint256 _vestPercent) onlyValidVestingBenifciary(_userAddresses,_categoryId) internal{\t\n\t\tvestAccountDetails memory userVestingData = vestAccountDetails(\n\t\t\t_categoryId,\n\t\t\t_userAddresses,\n\t\t\t_totalAmount,\n\t\t\tblock.timestamp,\n\t\t\t_vestingDuration,\n\t\t\t_vestingCliff,\n\t\t\t_vestPercent,\n\t\t\t_totalAmount,\n\t\t\t0,\n\t\t\ttrue\t\n\t\t);\n\t\tuserToVestingDetails[_userAddresses] = userVestingData;\n\t}\n\n\t/**\n\t * @notice Calculates the Variable Rate of Vest depending on the amount of time(months) elapsed\n\t * @param user address of the User  \n\t */\n\tfunction _getSaleVestRate(address user) internal view returns(uint256){\n\t\tvestAccountDetails memory vestingData = userToVestingDetails[user];\n\t\tuint8 category = vestingData.categoryId;\n\t\t//Check whether the category id is of any particular Sale(Seed,Private 1 or Private 2)\n\t\trequire(category >= 7 && category <= 9,\"Invalid Sale Vest Index\");\n\n\t\tuint256 currentTime = getCurrentTime();\n\t\tuint256 userStartTime = vestingData.startTime;\n\t\tuint256 timeElapsed = currentTime.sub(userStartTime);\n\t\tuint256 oneDayInSeconds = daysInSeconds();\n\n\t\tuint256 timeElapsedInDays = timeElapsed.div(oneDayInSeconds);\n\t\tuint256 currentVestRate;\n\n\t\tif(category == 7){\n            if(timeElapsedInDays > 60 && timeElapsedInDays <= 213 ){\n            \tcurrentVestRate = 15000000000000000000;\n            }\n\t\t}\n\t\tif(category == 8){\n            if(timeElapsedInDays > 60 && timeElapsedInDays <= 120 ){\n            \tcurrentVestRate = 20000000000000000000;\n            }else if(timeElapsedInDays > 120 && timeElapsedInDays <= 150 ){\n            \tcurrentVestRate = 25000000000000000000;\n            }\n\t\t}\n\t\tif(category == 9){\n            if(timeElapsedInDays > 60 && timeElapsedInDays <= 90 ){\n            \tcurrentVestRate = 20000000000000000000;\n            }else if(timeElapsedInDays > 90 && timeElapsedInDays <= 120 ){\n            \tcurrentVestRate = 30000000000000000000;\n            }\n\t\t}\n\t\treturn currentVestRate;\n\t}\n\n\tfunction getVestingRate(address _userAddresses) public checkVestingStatus(_userAddresses) view returns(uint256){\n\t\tuint256 vestRate;\n\t\tvestAccountDetails memory vestData = userToVestingDetails[_userAddresses];\n\n\t\tif(vestData.categoryId <= 6){\n\t \t\tvestRate = vestData.vestingPercent;\n\t \t}else{\n\t \t\tvestRate = _getSaleVestRate(_userAddresses);\n\t \t}\n\n\t \treturn vestRate;\n\t}\n\t\n   /**\n\t * @notice Calculates the amount of tokens to be transferred at any given point of time\n\t * @param _userAddresses address of the User  \n\t */\n\n\n\t function timeElapsed(address _userAddresses) public view checkVestingStatus(_userAddresses) returns(uint256){\t \t\n\t \t// Get Vesting Details\n\t \tvestAccountDetails memory vestData = userToVestingDetails[_userAddresses];\n\t \t\n\t \tuint256 vestRate;\n\t \tuint256 totalClaimableAmount;\n\t \tuint256 vestStartTime = vestData.startTime;\n\t \tuint256 currentTime = getCurrentTime();\n\t \tuint256 vestCliff = vestStartTime.add(vestData.vestingCliff);\n\t \tuint256 vestDuration = vestStartTime.add(vestData.vestingDuration);\n\t \t\n\t \t\n\t \tuint256 timeElapsed = currentTime.sub(vestStartTime);\n\t \tuint256 oneMonthInSeconds = monthInSeconds();\n\t\tuint256 totalMonthsElapsed = timeElapsed.div(oneMonthInSeconds);\n\t\tuint actualMonthElapsed = totalMonthsElapsed.sub(vestData.vestingCliff.div(oneMonthInSeconds));\n\t \t\n\t \treturn actualMonthElapsed;\n\n\t }\n\t function calculateClaimableTokens(address _userAddresses) public view checkVestingStatus(_userAddresses) returns(uint256){\t \t\n\t \t// Get Vesting Details\n\t \tvestAccountDetails memory vestData = userToVestingDetails[_userAddresses];\n\t \t\n\t \tuint256 vestRate;\n\t \tuint256 totalClaimableAmount;\n\t \tuint256 vestStartTime = vestData.startTime;\n\t \tuint256 currentTime = getCurrentTime();\n\t \tuint256 vestCliff = vestStartTime.add(vestData.vestingCliff);\n\t \tuint256 vestDuration = vestStartTime.add(vestData.vestingDuration);\n\t \t\n\t \t\n\t \tuint256 timeElapsed = currentTime.sub(vestStartTime);\n\t \tuint256 oneMonthInSeconds = monthInSeconds();\n\n\t\tvestRate = getVestingRate(_userAddresses);\n\t \t// Finally check the Claimable Amount by comparing the timeElapsed with the Current Time\n\n\t \tif(currentTime < vestCliff){  // If Vesting Cliff is not reached yet\n\t \t\treturn 0;\n\t \t}else if(currentTime > vestDuration){ // If total duration of Vesting already crossed\n\t \t\t// uint256 amountPerMonth = (vestData.totalAmount.mul(vestRate)).div(100000000000000000000);\n\t \t\t// uint256 totalDuration = vestData.vestingDuration.div(oneMonthInSeconds);\n\t \t\ttotalClaimableAmount = vestData.totalAmount.sub(vestData.totalAmountClaimed);\n\t \t}else{ // if current time has crossed the Vesting Cliff but not the total Vesting Duration\n\t \t\tuint256 amountPerMonth = (vestData.totalAmount.mul(vestRate)).div(100000000000000000000);\n\t \t\tuint256 totalMonthsElapsed = timeElapsed.div(oneMonthInSeconds);\n\t \t\t// Calculating Actual Months(Excluding the CLIFF) to initiate vesting\n\t \t\tuint actualMonthElapsed = totalMonthsElapsed.sub(vestData.vestingCliff.div(oneMonthInSeconds)); \n\t \t\trequire (actualMonthElapsed > 0,\"Number of months elapsed is ZERO\");\n\t \t\ttotalClaimableAmount = (amountPerMonth.mul(actualMonthElapsed)).sub(vestData.totalAmountClaimed);\n\t \t}\n\t \treturn totalClaimableAmount;\n\n\t }\n\t \n\tfunction _sendTokens(address _beneficiary, uint256 _amountOfTokens) internal returns(bool){\n\t\tsuper.transfer(_beneficiary,_amountOfTokens);\n\t\treturn true;\n\t}\n\n\tfunction claimVestTokens(address _userAddresses) external checkVestingStatus(_userAddresses) returns(bool){\n\t\t// Get Vesting Details\n\t \tvestAccountDetails memory vestData = userToVestingDetails[_userAddresses];\n\n\t\tuint256 tokensToTransfer = calculateClaimableTokens(_userAddresses);\n\t\tuint256 contractTokenBalance = balanceOf(address(this));\n\t\trequire(contractTokenBalance > tokensToTransfer,\"Not Enough Token Balance in Contract\");\n\t\trequire(vestData.totalAmountClaimed.add(tokensToTransfer) <= vestData.totalAmount,\"Cannot Claim more than Allocated\");\n\t\t\n\n\t\tvestData.totalAmountClaimed = tokensToTransfer;\n\t\tvestData.remainingAmountToTransfer = vestData.remainingAmountToTransfer.sub(tokensToTransfer);\n\t\tif(vestData.remainingAmountToTransfer == 0){\n\t\t\tvestData.isVesting = false;\n\t\t}\n\t\tuserToVestingDetails[_userAddresses] = vestData;\n\t\t_sendTokens(_userAddresses,tokensToTransfer);\n\t}\n\t\n\t\n\t\n}",
  "sourcePath": "/home/zaryab/blockchain_begins/all_about_ethereum/quillHash_CODES/bloqueLabs/playcentToken/contracts/tokenERC.sol",
  "compiler": {
    "name": "solc",
    "version": "0.6.2+commit.bacdbe57.Linux.g++"
  },
  "schemaVersion": "3.3.3",
  "updatedAt": "2021-02-25T14:16:04.942Z",
  "networkType": "ethereum",
  "devdoc": {
    "methods": {
      "addVestingDetails(address[],uint256[],uint8)": {
        "params": {
          "_userAddresses": "array of addresses of the Users",
          "_vestingAmounts": "array of amounts to be vested",
          "_vestnigType": "allows the owner to select the type of vesting category"
        },
        "returns": {
          "_0": "- true if Function executes successfully"
        }
      },
      "allowance(address,address)": {
        "details": "See {IERC20-allowance}."
      },
      "approve(address,uint256)": {
        "details": "See {IERC20-approve}.     * Requirements:     * - `spender` cannot be the zero address."
      },
      "balanceOf(address)": {
        "details": "See {IERC20-balanceOf}."
      },
      "decimals()": {
        "details": "Returns the number of decimals used to get its user representation. For example, if `decimals` equals `2`, a balance of `505` tokens should be displayed to a user as `5,05` (`505 / 10 ** 2`).     * Tokens usually opt for a value of 18, imitating the relationship between Ether and Wei. This is the value {ERC20} uses, unless {_setupDecimals} is called.     * NOTE: This information is only used for _display_ purposes: it in no way affects any of the arithmetic of the contract, including {IERC20-balanceOf} and {IERC20-transfer}."
      },
      "decreaseAllowance(address,uint256)": {
        "details": "Atomically decreases the allowance granted to `spender` by the caller.     * This is an alternative to {approve} that can be used as a mitigation for problems described in {IERC20-approve}.     * Emits an {Approval} event indicating the updated allowance.     * Requirements:     * - `spender` cannot be the zero address. - `spender` must have allowance for the caller of at least `subtractedValue`."
      },
      "increaseAllowance(address,uint256)": {
        "details": "Atomically increases the allowance granted to `spender` by the caller.     * This is an alternative to {approve} that can be used as a mitigation for problems described in {IERC20-approve}.     * Emits an {Approval} event indicating the updated allowance.     * Requirements:     * - `spender` cannot be the zero address."
      },
      "name()": {
        "details": "Returns the name of the token."
      },
      "owner()": {
        "details": "Returns the address of the current owner."
      },
      "paused()": {
        "details": "Returns true if the contract is paused, and false otherwise."
      },
      "renounceOwnership()": {
        "details": "Leaves the contract without owner. It will not be possible to call `onlyOwner` functions anymore. Can only be called by the current owner.     * NOTE: Renouncing ownership will leave the contract without an owner, thereby removing any functionality that is only available to the owner."
      },
      "symbol()": {
        "details": "Returns the symbol of the token, usually a shorter version of the name."
      },
      "timeElapsed(address)": {
        "params": {
          "_userAddresses": "address of the User  "
        }
      },
      "totalSupply()": {
        "details": "See {IERC20-totalSupply}."
      },
      "transfer(address,uint256)": {
        "details": "See {IERC20-transfer}.     * Requirements:     * - `recipient` cannot be the zero address. - the caller must have a balance of at least `amount`."
      },
      "transferFrom(address,address,uint256)": {
        "details": "See {IERC20-transferFrom}.     * Emits an {Approval} event indicating the updated allowance. This is not required by the EIP. See the note at the beginning of {ERC20}.     * Requirements:     * - `sender` and `recipient` cannot be the zero address. - `sender` must have a balance of at least `amount`. - the caller must have allowance for ``sender``'s tokens of at least `amount`."
      },
      "transferOwnership(address)": {
        "details": "Transfers ownership of the contract to a new account (`newOwner`). Can only be called by the current owner."
      }
    }
  },
  "userdoc": {
    "methods": {
      "addVestingDetails(address[],uint256[],uint8)": {
        "notice": "- Allows only the Owner to ADD an array of Addresses as well as their Vesting Amount - The array of user and amounts should be passed along with the vestingCategory Index.  - Thus, a particular batch of addresses shall be added under only one Vesting Category Index "
      },
      "timeElapsed(address)": {
        "notice": "Calculates the amount of tokens to be transferred at any given point of time"
      }
    }
  }
}